{
  "address": "0xd842B37d31550DDE5372F9eFd5eddf924FC19E72",
  "abi": [
    {
      "anonymous": false,
      "inputs": [
        {
          "indexed": false,
          "internalType": "address",
          "name": "admin",
          "type": "address"
        },
        {
          "indexed": false,
          "internalType": "bool",
          "name": "enabled",
          "type": "bool"
        }
      ],
      "name": "AdminAccessSet",
      "type": "event"
    },
    {
      "anonymous": false,
      "inputs": [
        {
          "indexed": true,
          "internalType": "address",
          "name": "owner",
          "type": "address"
        },
        {
          "indexed": true,
          "internalType": "address",
          "name": "approved",
          "type": "address"
        },
        {
          "indexed": true,
          "internalType": "uint256",
          "name": "tokenId",
          "type": "uint256"
        }
      ],
      "name": "Approval",
      "type": "event"
    },
    {
      "anonymous": false,
      "inputs": [
        {
          "indexed": true,
          "internalType": "address",
          "name": "owner",
          "type": "address"
        },
        {
          "indexed": true,
          "internalType": "address",
          "name": "operator",
          "type": "address"
        },
        {
          "indexed": false,
          "internalType": "bool",
          "name": "approved",
          "type": "bool"
        }
      ],
      "name": "ApprovalForAll",
      "type": "event"
    },
    {
      "anonymous": false,
      "inputs": [
        {
          "indexed": true,
          "internalType": "address",
          "name": "previousOwner",
          "type": "address"
        },
        {
          "indexed": true,
          "internalType": "address",
          "name": "newOwner",
          "type": "address"
        }
      ],
      "name": "OwnershipTransferred",
      "type": "event"
    },
    {
      "anonymous": false,
      "inputs": [
        {
          "indexed": true,
          "internalType": "address",
          "name": "from",
          "type": "address"
        },
        {
          "indexed": true,
          "internalType": "address",
          "name": "to",
          "type": "address"
        },
        {
          "indexed": true,
          "internalType": "uint256",
          "name": "tokenId",
          "type": "uint256"
        }
      ],
      "name": "Transfer",
      "type": "event"
    },
    {
      "inputs": [
        {
          "internalType": "address",
          "name": "to",
          "type": "address"
        },
        {
          "internalType": "uint256",
          "name": "tokenId",
          "type": "uint256"
        }
      ],
      "name": "approve",
      "outputs": [],
      "stateMutability": "nonpayable",
      "type": "function"
    },
    {
      "inputs": [
        {
          "internalType": "address",
          "name": "owner",
          "type": "address"
        }
      ],
      "name": "balanceOf",
      "outputs": [
        {
          "internalType": "uint256",
          "name": "",
          "type": "uint256"
        }
      ],
      "stateMutability": "view",
      "type": "function"
    },
    {
      "inputs": [
        {
          "internalType": "uint256",
          "name": "tokenId",
          "type": "uint256"
        }
      ],
      "name": "getApproved",
      "outputs": [
        {
          "internalType": "address",
          "name": "",
          "type": "address"
        }
      ],
      "stateMutability": "view",
      "type": "function"
    },
    {
      "inputs": [
        {
          "internalType": "string",
          "name": "name_",
          "type": "string"
        },
        {
          "internalType": "string",
          "name": "symbol_",
          "type": "string"
        }
      ],
      "name": "initialize",
      "outputs": [],
      "stateMutability": "nonpayable",
      "type": "function"
    },
    {
      "inputs": [
        {
          "internalType": "address",
          "name": "admin",
          "type": "address"
        }
      ],
      "name": "isAdmin",
      "outputs": [
        {
          "internalType": "bool",
          "name": "",
          "type": "bool"
        }
      ],
      "stateMutability": "view",
      "type": "function"
    },
    {
      "inputs": [
        {
          "internalType": "address",
          "name": "owner",
          "type": "address"
        },
        {
          "internalType": "address",
          "name": "operator",
          "type": "address"
        }
      ],
      "name": "isApprovedForAll",
      "outputs": [
        {
          "internalType": "bool",
          "name": "",
          "type": "bool"
        }
      ],
      "stateMutability": "view",
      "type": "function"
    },
    {
      "inputs": [
        {
          "internalType": "address",
          "name": "forwarder",
          "type": "address"
        }
      ],
      "name": "isTrustedForwarder",
      "outputs": [
        {
          "internalType": "bool",
          "name": "",
          "type": "bool"
        }
      ],
      "stateMutability": "view",
      "type": "function"
    },
    {
      "inputs": [
        {
          "internalType": "address",
          "name": "to_",
          "type": "address"
        },
        {
          "internalType": "string",
          "name": "tokenURI_",
          "type": "string"
        }
      ],
      "name": "mint",
      "outputs": [],
      "stateMutability": "nonpayable",
      "type": "function"
    },
    {
      "inputs": [],
      "name": "name",
      "outputs": [
        {
          "internalType": "string",
          "name": "",
          "type": "string"
        }
      ],
      "stateMutability": "view",
      "type": "function"
    },
    {
      "inputs": [],
      "name": "owner",
      "outputs": [
        {
          "internalType": "address",
          "name": "",
          "type": "address"
        }
      ],
      "stateMutability": "view",
      "type": "function"
    },
    {
      "inputs": [
        {
          "internalType": "uint256",
          "name": "tokenId",
          "type": "uint256"
        }
      ],
      "name": "ownerOf",
      "outputs": [
        {
          "internalType": "address",
          "name": "",
          "type": "address"
        }
      ],
      "stateMutability": "view",
      "type": "function"
    },
    {
      "inputs": [],
      "name": "renounceOwnership",
      "outputs": [],
      "stateMutability": "nonpayable",
      "type": "function"
    },
    {
      "inputs": [
        {
          "internalType": "address",
          "name": "from",
          "type": "address"
        },
        {
          "internalType": "address",
          "name": "to",
          "type": "address"
        },
        {
          "internalType": "uint256",
          "name": "tokenId",
          "type": "uint256"
        }
      ],
      "name": "safeTransferFrom",
      "outputs": [],
      "stateMutability": "nonpayable",
      "type": "function"
    },
    {
      "inputs": [
        {
          "internalType": "address",
          "name": "from",
          "type": "address"
        },
        {
          "internalType": "address",
          "name": "to",
          "type": "address"
        },
        {
          "internalType": "uint256",
          "name": "tokenId",
          "type": "uint256"
        },
        {
          "internalType": "bytes",
          "name": "_data",
          "type": "bytes"
        }
      ],
      "name": "safeTransferFrom",
      "outputs": [],
      "stateMutability": "nonpayable",
      "type": "function"
    },
    {
      "inputs": [
        {
          "internalType": "address",
          "name": "admin",
          "type": "address"
        },
        {
          "internalType": "bool",
          "name": "enabled",
          "type": "bool"
        }
      ],
      "name": "setAdminAccess",
      "outputs": [],
      "stateMutability": "nonpayable",
      "type": "function"
    },
    {
      "inputs": [
        {
          "internalType": "address",
          "name": "operator",
          "type": "address"
        },
        {
          "internalType": "bool",
          "name": "approved",
          "type": "bool"
        }
      ],
      "name": "setApprovalForAll",
      "outputs": [],
      "stateMutability": "nonpayable",
      "type": "function"
    },
    {
      "inputs": [
        {
          "internalType": "uint256",
          "name": "tokenId",
          "type": "uint256"
        },
        {
          "internalType": "string",
          "name": "_tokenURI",
          "type": "string"
        }
      ],
      "name": "setTokenURI",
      "outputs": [],
      "stateMutability": "nonpayable",
      "type": "function"
    },
    {
      "inputs": [
        {
          "internalType": "bytes4",
          "name": "interfaceId",
          "type": "bytes4"
        }
      ],
      "name": "supportsInterface",
      "outputs": [
        {
          "internalType": "bool",
          "name": "",
          "type": "bool"
        }
      ],
      "stateMutability": "view",
      "type": "function"
    },
    {
      "inputs": [],
      "name": "symbol",
      "outputs": [
        {
          "internalType": "string",
          "name": "",
          "type": "string"
        }
      ],
      "stateMutability": "view",
      "type": "function"
    },
    {
      "inputs": [
        {
          "internalType": "uint256",
          "name": "tokenId",
          "type": "uint256"
        }
      ],
      "name": "tokenURI",
      "outputs": [
        {
          "internalType": "string",
          "name": "",
          "type": "string"
        }
      ],
      "stateMutability": "view",
      "type": "function"
    },
    {
      "inputs": [
        {
          "internalType": "address",
          "name": "from",
          "type": "address"
        },
        {
          "internalType": "address",
          "name": "to",
          "type": "address"
        },
        {
          "internalType": "uint256",
          "name": "tokenId",
          "type": "uint256"
        }
      ],
      "name": "transferFrom",
      "outputs": [],
      "stateMutability": "nonpayable",
      "type": "function"
    },
    {
      "inputs": [
        {
          "internalType": "address",
          "name": "newOwner",
          "type": "address"
        }
      ],
      "name": "transferOwnership",
      "outputs": [],
      "stateMutability": "nonpayable",
      "type": "function"
    },
    {
      "inputs": [],
      "name": "trustedForwarder",
      "outputs": [
        {
          "internalType": "address",
          "name": "",
          "type": "address"
        }
      ],
      "stateMutability": "view",
      "type": "function"
    }
  ],
  "transactionHash": "0x9793ade8f110e56fd19f28989338943ee403ecc94d968b8692a9d0a4bc3e0ced",
  "args": [],
  "numDeployments": 1,
  "solcInputHash": "d4659635ee62359513406f3ff08d419a",
  "bytecode": "0x608060405234801561001057600080fd5b50613936806100206000396000f3fe608060405234801561001057600080fd5b506004361061014d5760003560e01c806370a08231116100c3578063b88d4fde1161007c578063b88d4fde1461039c578063c87b56dd146103b8578063d0def521146103e8578063e985e9c514610404578063f2fde38b14610434578063f65a0b3e146104505761014d565b806370a08231146102ec578063715018a61461031c5780637da0a877146103265780638da5cb5b1461034457806395d89b4114610362578063a22cb465146103805761014d565b806323b872dd1161011557806323b872dd1461020857806324d7806c1461022457806342842e0e146102545780634cd88b7614610270578063572b6c051461028c5780636352211e146102bc5761014d565b806301ffc9a71461015257806306fdde0314610182578063081812fc146101a0578063095ea7b3146101d0578063162094c4146101ec575b600080fd5b61016c60048036038101906101679190612609565b61046c565b6040516101799190612bc7565b60405180910390f35b61018a61054e565b6040516101979190612be2565b60405180910390f35b6101ba60048036038101906101b591906126db565b6105e0565b6040516101c79190612b37565b60405180910390f35b6101ea60048036038101906101e591906125c9565b610665565b005b61020660048036038101906102019190612708565b61077d565b005b610222600480360381019061021d9190612457565b6107da565b005b61023e600480360381019061023991906123ea565b61083a565b60405161024b9190612bc7565b60405180910390f35b61026e60048036038101906102699190612457565b6108cd565b005b61028a60048036038101906102859190612663565b6108ed565b005b6102a660048036038101906102a191906123ea565b6109ed565b6040516102b39190612bc7565b60405180910390f35b6102d660048036038101906102d191906126db565b610a47565b6040516102e39190612b37565b60405180910390f35b610306600480360381019061030191906123ea565b610af9565b6040516103139190612ea4565b60405180910390f35b610324610bb1565b005b61032e610c39565b60405161033b9190612b37565b60405180910390f35b61034c610c5f565b6040516103599190612b37565b60405180910390f35b61036a610c89565b6040516103779190612be2565b60405180910390f35b61039a6004803603810190610395919061252d565b610d1b565b005b6103b660048036038101906103b191906124aa565b610d31565b005b6103d260048036038101906103cd91906126db565b610d93565b6040516103df9190612be2565b60405180910390f35b61040260048036038101906103fd919061256d565b610ee5565b005b61041e60048036038101906104199190612417565b610f65565b60405161042b9190612bc7565b60405180910390f35b61044e600480360381019061044991906123ea565b610ff9565b005b61046a6004803603810190610465919061252d565b6110f1565b005b60007f80ac58cd000000000000000000000000000000000000000000000000000000007bffffffffffffffffffffffffffffffffffffffffffffffffffffffff1916827bffffffffffffffffffffffffffffffffffffffffffffffffffffffff1916148061053757507f5b5e139f000000000000000000000000000000000000000000000000000000007bffffffffffffffffffffffffffffffffffffffffffffffffffffffff1916827bffffffffffffffffffffffffffffffffffffffffffffffffffffffff1916145b80610547575061054682611201565b5b9050919050565b60606065805461055d906130fa565b80601f0160208091040260200160405190810160405280929190818152602001828054610589906130fa565b80156105d65780601f106105ab576101008083540402835291602001916105d6565b820191906000526020600020905b8154815290600101906020018083116105b957829003601f168201915b5050505050905090565b60006105eb8261126b565b61062a576040517f08c379a000000000000000000000000000000000000000000000000000000000815260040161062190612dc4565b60405180910390fd5b6069600083815260200190815260200160002060009054906101000a900473ffffffffffffffffffffffffffffffffffffffff169050919050565b600061067082610a47565b90508073ffffffffffffffffffffffffffffffffffffffff168373ffffffffffffffffffffffffffffffffffffffff1614156106e1576040517f08c379a00000000000000000000000000000000000000000000000000000000081526004016106d890612e24565b60405180910390fd5b8073ffffffffffffffffffffffffffffffffffffffff166107006112d7565b73ffffffffffffffffffffffffffffffffffffffff16148061072f575061072e816107296112d7565b610f65565b5b61076e576040517f08c379a000000000000000000000000000000000000000000000000000000000815260040161076590612ce4565b60405180910390fd5b61077883836112e6565b505050565b61078d6107886112d7565b61083a565b6107cc576040517f08c379a00000000000000000000000000000000000000000000000000000000081526004016107c390612e44565b60405180910390fd5b6107d6828261139f565b5050565b6107eb6107e56112d7565b82611413565b61082a576040517f08c379a000000000000000000000000000000000000000000000000000000000815260040161082190612e64565b60405180910390fd5b6108358383836114f1565b505050565b600060fc60008373ffffffffffffffffffffffffffffffffffffffff1673ffffffffffffffffffffffffffffffffffffffff16815260200190815260200160002060009054906101000a900460ff16806108c65750610897610c5f565b73ffffffffffffffffffffffffffffffffffffffff168273ffffffffffffffffffffffffffffffffffffffff16145b9050919050565b6108e883838360405180602001604052806000815250610d31565b505050565b600060019054906101000a900460ff166109155760008054906101000a900460ff161561091e565b61091d611758565b5b61095d576040517f08c379a000000000000000000000000000000000000000000000000000000000815260040161095490612d64565b60405180910390fd5b60008060019054906101000a900460ff1615905080156109ad576001600060016101000a81548160ff02191690831515021790555060016000806101000a81548160ff0219169083151502179055505b6109b5611769565b6109bf83836117ba565b6109c7611817565b80156109e85760008060016101000a81548160ff0219169083151502179055505b505050565b600060fb60009054906101000a900473ffffffffffffffffffffffffffffffffffffffff1673ffffffffffffffffffffffffffffffffffffffff168273ffffffffffffffffffffffffffffffffffffffff16149050919050565b6000806067600084815260200190815260200160002060009054906101000a900473ffffffffffffffffffffffffffffffffffffffff169050600073ffffffffffffffffffffffffffffffffffffffff168173ffffffffffffffffffffffffffffffffffffffff161415610af0576040517f08c379a0000000000000000000000000000000000000000000000000000000008152600401610ae790612d24565b60405180910390fd5b80915050919050565b60008073ffffffffffffffffffffffffffffffffffffffff168273ffffffffffffffffffffffffffffffffffffffff161415610b6a576040517f08c379a0000000000000000000000000000000000000000000000000000000008152600401610b6190612d04565b60405180910390fd5b606860008373ffffffffffffffffffffffffffffffffffffffff1673ffffffffffffffffffffffffffffffffffffffff168152602001908152602001600020549050919050565b610bb96112d7565b73ffffffffffffffffffffffffffffffffffffffff16610bd7610c5f565b73ffffffffffffffffffffffffffffffffffffffff1614610c2d576040517f08c379a0000000000000000000000000000000000000000000000000000000008152600401610c2490612de4565b60405180910390fd5b610c376000611870565b565b60fb60009054906101000a900473ffffffffffffffffffffffffffffffffffffffff1681565b600060c960009054906101000a900473ffffffffffffffffffffffffffffffffffffffff16905090565b606060668054610c98906130fa565b80601f0160208091040260200160405190810160405280929190818152602001828054610cc4906130fa565b8015610d115780601f10610ce657610100808354040283529160200191610d11565b820191906000526020600020905b815481529060010190602001808311610cf457829003601f168201915b5050505050905090565b610d2d610d266112d7565b8383611936565b5050565b610d42610d3c6112d7565b83611413565b610d81576040517f08c379a0000000000000000000000000000000000000000000000000000000008152600401610d7890612e64565b60405180910390fd5b610d8d84848484611aa3565b50505050565b6060610d9e8261126b565b610ddd576040517f08c379a0000000000000000000000000000000000000000000000000000000008152600401610dd490612da4565b60405180910390fd5b6000609760008481526020019081526020016000208054610dfd906130fa565b80601f0160208091040260200160405190810160405280929190818152602001828054610e29906130fa565b8015610e765780601f10610e4b57610100808354040283529160200191610e76565b820191906000526020600020905b815481529060010190602001808311610e5957829003601f168201915b505050505090506000610e87611aff565b9050600081511415610e9d578192505050610ee0565b600082511115610ed2578082604051602001610eba929190612b13565b60405160208183030381529060405292505050610ee0565b610edb84611b16565b925050505b919050565b610ef5610ef06112d7565b61083a565b610f34576040517f08c379a0000000000000000000000000000000000000000000000000000000008152600401610f2b90612e44565b60405180910390fd5b610f3e60fd611bbd565b6000610f4a60fd611bd3565b9050610f568382611be1565b610f60818361139f565b505050565b6000606a60008473ffffffffffffffffffffffffffffffffffffffff1673ffffffffffffffffffffffffffffffffffffffff16815260200190815260200160002060008373ffffffffffffffffffffffffffffffffffffffff1673ffffffffffffffffffffffffffffffffffffffff16815260200190815260200160002060009054906101000a900460ff16905092915050565b6110016112d7565b73ffffffffffffffffffffffffffffffffffffffff1661101f610c5f565b73ffffffffffffffffffffffffffffffffffffffff1614611075576040517f08c379a000000000000000000000000000000000000000000000000000000000815260040161106c90612de4565b60405180910390fd5b600073ffffffffffffffffffffffffffffffffffffffff168173ffffffffffffffffffffffffffffffffffffffff1614156110e5576040517f08c379a00000000000000000000000000000000000000000000000000000000081526004016110dc90612c24565b60405180910390fd5b6110ee81611870565b50565b6110f96112d7565b73ffffffffffffffffffffffffffffffffffffffff16611117610c5f565b73ffffffffffffffffffffffffffffffffffffffff161461116d576040517f08c379a000000000000000000000000000000000000000000000000000000000815260040161116490612de4565b60405180910390fd5b8060fc60008473ffffffffffffffffffffffffffffffffffffffff1673ffffffffffffffffffffffffffffffffffffffff16815260200190815260200160002060006101000a81548160ff0219169083151502179055507fe529461c8529abc0e0fe7c5ee361f74fe22e0b7574df1fc0b7558a282091fb7882826040516111f5929190612b9e565b60405180910390a15050565b60007f01ffc9a7000000000000000000000000000000000000000000000000000000007bffffffffffffffffffffffffffffffffffffffffffffffffffffffff1916827bffffffffffffffffffffffffffffffffffffffffffffffffffffffff1916149050919050565b60008073ffffffffffffffffffffffffffffffffffffffff166067600084815260200190815260200160002060009054906101000a900473ffffffffffffffffffffffffffffffffffffffff1673ffffffffffffffffffffffffffffffffffffffff1614159050919050565b60006112e1611dbb565b905090565b816069600083815260200190815260200160002060006101000a81548173ffffffffffffffffffffffffffffffffffffffff021916908373ffffffffffffffffffffffffffffffffffffffff160217905550808273ffffffffffffffffffffffffffffffffffffffff1661135983610a47565b73ffffffffffffffffffffffffffffffffffffffff167f8c5be1e5ebec7d5bd14f71427d1e84f3dd0314c0f7b2291e5b200ac8c7c3b92560405160405180910390a45050565b6113a88261126b565b6113e7576040517f08c379a00000000000000000000000000000000000000000000000000000000081526004016113de90612d44565b60405180910390fd5b8060976000848152602001908152602001600020908051906020019061140e9291906121fe565b505050565b600061141e8261126b565b61145d576040517f08c379a000000000000000000000000000000000000000000000000000000000815260040161145490612cc4565b60405180910390fd5b600061146883610a47565b90508073ffffffffffffffffffffffffffffffffffffffff168473ffffffffffffffffffffffffffffffffffffffff1614806114d757508373ffffffffffffffffffffffffffffffffffffffff166114bf846105e0565b73ffffffffffffffffffffffffffffffffffffffff16145b806114e857506114e78185610f65565b5b91505092915050565b8273ffffffffffffffffffffffffffffffffffffffff1661151182610a47565b73ffffffffffffffffffffffffffffffffffffffff1614611567576040517f08c379a000000000000000000000000000000000000000000000000000000000815260040161155e90612c44565b60405180910390fd5b600073ffffffffffffffffffffffffffffffffffffffff168273ffffffffffffffffffffffffffffffffffffffff1614156115d7576040517f08c379a00000000000000000000000000000000000000000000000000000000081526004016115ce90612c84565b60405180910390fd5b6115e2838383611df7565b6115ed6000826112e6565b6001606860008573ffffffffffffffffffffffffffffffffffffffff1673ffffffffffffffffffffffffffffffffffffffff168152602001908152602001600020600082825461163d9190613010565b925050819055506001606860008473ffffffffffffffffffffffffffffffffffffffff1673ffffffffffffffffffffffffffffffffffffffff16815260200190815260200160002060008282546116949190612f89565b92505081905550816067600083815260200190815260200160002060006101000a81548173ffffffffffffffffffffffffffffffffffffffff021916908373ffffffffffffffffffffffffffffffffffffffff160217905550808273ffffffffffffffffffffffffffffffffffffffff168473ffffffffffffffffffffffffffffffffffffffff167fddf252ad1be2c89b69c2b068fc378daa952ba7f163c4a11628f55a4df523b3ef60405160405180910390a4611753838383611dfc565b505050565b600061176330611e01565b15905090565b600060019054906101000a900460ff166117b8576040517f08c379a00000000000000000000000000000000000000000000000000000000081526004016117af90612e84565b60405180910390fd5b565b600060019054906101000a900460ff16611809576040517f08c379a000000000000000000000000000000000000000000000000000000000815260040161180090612e84565b60405180910390fd5b6118138282611e24565b5050565b600060019054906101000a900460ff16611866576040517f08c379a000000000000000000000000000000000000000000000000000000000815260040161185d90612e84565b60405180910390fd5b61186e611ea5565b565b600060c960009054906101000a900473ffffffffffffffffffffffffffffffffffffffff1690508160c960006101000a81548173ffffffffffffffffffffffffffffffffffffffff021916908373ffffffffffffffffffffffffffffffffffffffff1602179055508173ffffffffffffffffffffffffffffffffffffffff168173ffffffffffffffffffffffffffffffffffffffff167f8be0079c531659141344cd1fd0a4f28419497f9722a3daafe3b4186f6b6457e060405160405180910390a35050565b8173ffffffffffffffffffffffffffffffffffffffff168373ffffffffffffffffffffffffffffffffffffffff1614156119a5576040517f08c379a000000000000000000000000000000000000000000000000000000000815260040161199c90612ca4565b60405180910390fd5b80606a60008573ffffffffffffffffffffffffffffffffffffffff1673ffffffffffffffffffffffffffffffffffffffff16815260200190815260200160002060008473ffffffffffffffffffffffffffffffffffffffff1673ffffffffffffffffffffffffffffffffffffffff16815260200190815260200160002060006101000a81548160ff0219169083151502179055508173ffffffffffffffffffffffffffffffffffffffff168373ffffffffffffffffffffffffffffffffffffffff167f17307eab39ab6107e8899845ad3d59bd9653f200f220920489ca2b5937696c3183604051611a969190612bc7565b60405180910390a3505050565b611aae8484846114f1565b611aba84848484611f06565b611af9576040517f08c379a0000000000000000000000000000000000000000000000000000000008152600401611af090612c04565b60405180910390fd5b50505050565b606060405180602001604052806000815250905090565b6060611b218261126b565b611b60576040517f08c379a0000000000000000000000000000000000000000000000000000000008152600401611b5790612e04565b60405180910390fd5b6000611b6a611aff565b90506000815111611b8a5760405180602001604052806000815250611bb5565b80611b948461209d565b604051602001611ba5929190612b13565b6040516020818303038152906040525b915050919050565b6001816000016000828254019250508190555050565b600081600001549050919050565b600073ffffffffffffffffffffffffffffffffffffffff168273ffffffffffffffffffffffffffffffffffffffff161415611c51576040517f08c379a0000000000000000000000000000000000000000000000000000000008152600401611c4890612d84565b60405180910390fd5b611c5a8161126b565b15611c9a576040517f08c379a0000000000000000000000000000000000000000000000000000000008152600401611c9190612c64565b60405180910390fd5b611ca660008383611df7565b6001606860008473ffffffffffffffffffffffffffffffffffffffff1673ffffffffffffffffffffffffffffffffffffffff1681526020019081526020016000206000828254611cf69190612f89565b92505081905550816067600083815260200190815260200160002060006101000a81548173ffffffffffffffffffffffffffffffffffffffff021916908373ffffffffffffffffffffffffffffffffffffffff160217905550808273ffffffffffffffffffffffffffffffffffffffff16600073ffffffffffffffffffffffffffffffffffffffff167fddf252ad1be2c89b69c2b068fc378daa952ba7f163c4a11628f55a4df523b3ef60405160405180910390a4611db760008383611dfc565b5050565b60006018600036905010158015611dd75750611dd6336109ed565b5b15611deb57601436033560601c9050611df3565b339050611df4565b5b90565b505050565b505050565b6000808273ffffffffffffffffffffffffffffffffffffffff163b119050919050565b600060019054906101000a900460ff16611e73576040517f08c379a0000000000000000000000000000000000000000000000000000000008152600401611e6a90612e84565b60405180910390fd5b8160659080519060200190611e899291906121fe565b508060669080519060200190611ea09291906121fe565b505050565b600060019054906101000a900460ff16611ef4576040517f08c379a0000000000000000000000000000000000000000000000000000000008152600401611eeb90612e84565b60405180910390fd5b611f04611eff6112d7565b611870565b565b6000611f278473ffffffffffffffffffffffffffffffffffffffff16611e01565b15612090578373ffffffffffffffffffffffffffffffffffffffff1663150b7a02611f506112d7565b8786866040518563ffffffff1660e01b8152600401611f729493929190612b52565b602060405180830381600087803b158015611f8c57600080fd5b505af1925050508015611fbd57506040513d601f19601f82011682018060405250810190611fba9190612636565b60015b612040573d8060008114611fed576040519150601f19603f3d011682016040523d82523d6000602084013e611ff2565b606091505b50600081511415612038576040517f08c379a000000000000000000000000000000000000000000000000000000000815260040161202f90612c04565b60405180910390fd5b805181602001fd5b63150b7a0260e01b7bffffffffffffffffffffffffffffffffffffffffffffffffffffffff1916817bffffffffffffffffffffffffffffffffffffffffffffffffffffffff191614915050612095565b600190505b949350505050565b606060008214156120e5576040518060400160405280600181526020017f300000000000000000000000000000000000000000000000000000000000000081525090506121f9565b600082905060005b600082146121175780806121009061315d565b915050600a826121109190612fdf565b91506120ed565b60008167ffffffffffffffff81111561213357612132613293565b5b6040519080825280601f01601f1916602001820160405280156121655781602001600182028036833780820191505090505b5090505b600085146121f25760018261217e9190613010565b9150600a8561218d91906131a6565b60306121999190612f89565b60f81b8183815181106121af576121ae613264565b5b60200101907effffffffffffffffffffffffffffffffffffffffffffffffffffffffffffff1916908160001a905350600a856121eb9190612fdf565b9450612169565b8093505050505b919050565b82805461220a906130fa565b90600052602060002090601f01602090048101928261222c5760008555612273565b82601f1061224557805160ff1916838001178555612273565b82800160010185558215612273579182015b82811115612272578251825591602001919060010190612257565b5b5090506122809190612284565b5090565b5b8082111561229d576000816000905550600101612285565b5090565b60006122b46122af84612ee4565b612ebf565b9050828152602081018484840111156122d0576122cf6132c7565b5b6122db8482856130b8565b509392505050565b60006122f66122f184612f15565b612ebf565b905082815260208101848484011115612312576123116132c7565b5b61231d8482856130b8565b509392505050565b600081359050612334816138a4565b92915050565b600081359050612349816138bb565b92915050565b60008135905061235e816138d2565b92915050565b600081519050612373816138d2565b92915050565b600082601f83011261238e5761238d6132c2565b5b813561239e8482602086016122a1565b91505092915050565b600082601f8301126123bc576123bb6132c2565b5b81356123cc8482602086016122e3565b91505092915050565b6000813590506123e4816138e9565b92915050565b600060208284031215612400576123ff6132d1565b5b600061240e84828501612325565b91505092915050565b6000806040838503121561242e5761242d6132d1565b5b600061243c85828601612325565b925050602061244d85828601612325565b9150509250929050565b6000806000606084860312156124705761246f6132d1565b5b600061247e86828701612325565b935050602061248f86828701612325565b92505060406124a0868287016123d5565b9150509250925092565b600080600080608085870312156124c4576124c36132d1565b5b60006124d287828801612325565b94505060206124e387828801612325565b93505060406124f4878288016123d5565b925050606085013567ffffffffffffffff811115612515576125146132cc565b5b61252187828801612379565b91505092959194509250565b60008060408385031215612544576125436132d1565b5b600061255285828601612325565b92505060206125638582860161233a565b9150509250929050565b60008060408385031215612584576125836132d1565b5b600061259285828601612325565b925050602083013567ffffffffffffffff8111156125b3576125b26132cc565b5b6125bf858286016123a7565b9150509250929050565b600080604083850312156125e0576125df6132d1565b5b60006125ee85828601612325565b92505060206125ff858286016123d5565b9150509250929050565b60006020828403121561261f5761261e6132d1565b5b600061262d8482850161234f565b91505092915050565b60006020828403121561264c5761264b6132d1565b5b600061265a84828501612364565b91505092915050565b6000806040838503121561267a576126796132d1565b5b600083013567ffffffffffffffff811115612698576126976132cc565b5b6126a4858286016123a7565b925050602083013567ffffffffffffffff8111156126c5576126c46132cc565b5b6126d1858286016123a7565b9150509250929050565b6000602082840312156126f1576126f06132d1565b5b60006126ff848285016123d5565b91505092915050565b6000806040838503121561271f5761271e6132d1565b5b600061272d858286016123d5565b925050602083013567ffffffffffffffff81111561274e5761274d6132cc565b5b61275a858286016123a7565b9150509250929050565b61276d81613044565b82525050565b61277c81613056565b82525050565b600061278d82612f46565b6127978185612f5c565b93506127a78185602086016130c7565b6127b0816132d6565b840191505092915050565b60006127c682612f51565b6127d08185612f6d565b93506127e08185602086016130c7565b6127e9816132d6565b840191505092915050565b60006127ff82612f51565b6128098185612f7e565b93506128198185602086016130c7565b80840191505092915050565b6000612832603283612f6d565b915061283d826132e7565b604082019050919050565b6000612855602683612f6d565b915061286082613336565b604082019050919050565b6000612878602583612f6d565b915061288382613385565b604082019050919050565b600061289b601c83612f6d565b91506128a6826133d4565b602082019050919050565b60006128be602483612f6d565b91506128c9826133fd565b604082019050919050565b60006128e1601983612f6d565b91506128ec8261344c565b602082019050919050565b6000612904602c83612f6d565b915061290f82613475565b604082019050919050565b6000612927603883612f6d565b9150612932826134c4565b604082019050919050565b600061294a602a83612f6d565b915061295582613513565b604082019050919050565b600061296d602983612f6d565b915061297882613562565b604082019050919050565b6000612990602e83612f6d565b915061299b826135b1565b604082019050919050565b60006129b3602e83612f6d565b91506129be82613600565b604082019050919050565b60006129d6602083612f6d565b91506129e18261364f565b602082019050919050565b60006129f9603183612f6d565b9150612a0482613678565b604082019050919050565b6000612a1c602c83612f6d565b9150612a27826136c7565b604082019050919050565b6000612a3f602083612f6d565b9150612a4a82613716565b602082019050919050565b6000612a62602f83612f6d565b9150612a6d8261373f565b604082019050919050565b6000612a85602183612f6d565b9150612a908261378e565b604082019050919050565b6000612aa8601383612f6d565b9150612ab3826137dd565b602082019050919050565b6000612acb603183612f6d565b9150612ad682613806565b604082019050919050565b6000612aee602b83612f6d565b9150612af982613855565b604082019050919050565b612b0d816130ae565b82525050565b6000612b1f82856127f4565b9150612b2b82846127f4565b91508190509392505050565b6000602082019050612b4c6000830184612764565b92915050565b6000608082019050612b676000830187612764565b612b746020830186612764565b612b816040830185612b04565b8181036060830152612b938184612782565b905095945050505050565b6000604082019050612bb36000830185612764565b612bc06020830184612773565b9392505050565b6000602082019050612bdc6000830184612773565b92915050565b60006020820190508181036000830152612bfc81846127bb565b905092915050565b60006020820190508181036000830152612c1d81612825565b9050919050565b60006020820190508181036000830152612c3d81612848565b9050919050565b60006020820190508181036000830152612c5d8161286b565b9050919050565b60006020820190508181036000830152612c7d8161288e565b9050919050565b60006020820190508181036000830152612c9d816128b1565b9050919050565b60006020820190508181036000830152612cbd816128d4565b9050919050565b60006020820190508181036000830152612cdd816128f7565b9050919050565b60006020820190508181036000830152612cfd8161291a565b9050919050565b60006020820190508181036000830152612d1d8161293d565b9050919050565b60006020820190508181036000830152612d3d81612960565b9050919050565b60006020820190508181036000830152612d5d81612983565b9050919050565b60006020820190508181036000830152612d7d816129a6565b9050919050565b60006020820190508181036000830152612d9d816129c9565b9050919050565b60006020820190508181036000830152612dbd816129ec565b9050919050565b60006020820190508181036000830152612ddd81612a0f565b9050919050565b60006020820190508181036000830152612dfd81612a32565b9050919050565b60006020820190508181036000830152612e1d81612a55565b9050919050565b60006020820190508181036000830152612e3d81612a78565b9050919050565b60006020820190508181036000830152612e5d81612a9b565b9050919050565b60006020820190508181036000830152612e7d81612abe565b9050919050565b60006020820190508181036000830152612e9d81612ae1565b9050919050565b6000602082019050612eb96000830184612b04565b92915050565b6000612ec9612eda565b9050612ed5828261312c565b919050565b6000604051905090565b600067ffffffffffffffff821115612eff57612efe613293565b5b612f08826132d6565b9050602081019050919050565b600067ffffffffffffffff821115612f3057612f2f613293565b5b612f39826132d6565b9050602081019050919050565b600081519050919050565b600081519050919050565b600082825260208201905092915050565b600082825260208201905092915050565b600081905092915050565b6000612f94826130ae565b9150612f9f836130ae565b9250827fffffffffffffffffffffffffffffffffffffffffffffffffffffffffffffffff03821115612fd457612fd36131d7565b5b828201905092915050565b6000612fea826130ae565b9150612ff5836130ae565b92508261300557613004613206565b5b828204905092915050565b600061301b826130ae565b9150613026836130ae565b925082821015613039576130386131d7565b5b828203905092915050565b600061304f8261308e565b9050919050565b60008115159050919050565b60007fffffffff0000000000000000000000000000000000000000000000000000000082169050919050565b600073ffffffffffffffffffffffffffffffffffffffff82169050919050565b6000819050919050565b82818337600083830152505050565b60005b838110156130e55780820151818401526020810190506130ca565b838111156130f4576000848401525b50505050565b6000600282049050600182168061311257607f821691505b6020821081141561312657613125613235565b5b50919050565b613135826132d6565b810181811067ffffffffffffffff8211171561315457613153613293565b5b80604052505050565b6000613168826130ae565b91507fffffffffffffffffffffffffffffffffffffffffffffffffffffffffffffffff82141561319b5761319a6131d7565b5b600182019050919050565b60006131b1826130ae565b91506131bc836130ae565b9250826131cc576131cb613206565b5b828206905092915050565b7f4e487b7100000000000000000000000000000000000000000000000000000000600052601160045260246000fd5b7f4e487b7100000000000000000000000000000000000000000000000000000000600052601260045260246000fd5b7f4e487b7100000000000000000000000000000000000000000000000000000000600052602260045260246000fd5b7f4e487b7100000000000000000000000000000000000000000000000000000000600052603260045260246000fd5b7f4e487b7100000000000000000000000000000000000000000000000000000000600052604160045260246000fd5b600080fd5b600080fd5b600080fd5b600080fd5b6000601f19601f8301169050919050565b7f4552433732313a207472616e7366657220746f206e6f6e20455243373231526560008201527f63656976657220696d706c656d656e7465720000000000000000000000000000602082015250565b7f4f776e61626c653a206e6577206f776e657220697320746865207a65726f206160008201527f6464726573730000000000000000000000000000000000000000000000000000602082015250565b7f4552433732313a207472616e736665722066726f6d20696e636f72726563742060008201527f6f776e6572000000000000000000000000000000000000000000000000000000602082015250565b7f4552433732313a20746f6b656e20616c7265616479206d696e74656400000000600082015250565b7f4552433732313a207472616e7366657220746f20746865207a65726f2061646460008201527f7265737300000000000000000000000000000000000000000000000000000000602082015250565b7f4552433732313a20617070726f766520746f2063616c6c657200000000000000600082015250565b7f4552433732313a206f70657261746f7220717565727920666f72206e6f6e657860008201527f697374656e7420746f6b656e0000000000000000000000000000000000000000602082015250565b7f4552433732313a20617070726f76652063616c6c6572206973206e6f74206f7760008201527f6e6572206e6f7220617070726f76656420666f7220616c6c0000000000000000602082015250565b7f4552433732313a2062616c616e636520717565727920666f7220746865207a6560008201527f726f206164647265737300000000000000000000000000000000000000000000602082015250565b7f4552433732313a206f776e657220717565727920666f72206e6f6e657869737460008201527f656e7420746f6b656e0000000000000000000000000000000000000000000000602082015250565b7f45524337323155524953746f726167653a2055524920736574206f66206e6f6e60008201527f6578697374656e7420746f6b656e000000000000000000000000000000000000602082015250565b7f496e697469616c697a61626c653a20636f6e747261637420697320616c72656160008201527f647920696e697469616c697a6564000000000000000000000000000000000000602082015250565b7f4552433732313a206d696e7420746f20746865207a65726f2061646472657373600082015250565b7f45524337323155524953746f726167653a2055524920717565727920666f722060008201527f6e6f6e6578697374656e7420746f6b656e000000000000000000000000000000602082015250565b7f4552433732313a20617070726f76656420717565727920666f72206e6f6e657860008201527f697374656e7420746f6b656e0000000000000000000000000000000000000000602082015250565b7f4f776e61626c653a2063616c6c6572206973206e6f7420746865206f776e6572600082015250565b7f4552433732314d657461646174613a2055524920717565727920666f72206e6f60008201527f6e6578697374656e7420746f6b656e0000000000000000000000000000000000602082015250565b7f4552433732313a20617070726f76616c20746f2063757272656e74206f776e6560008201527f7200000000000000000000000000000000000000000000000000000000000000602082015250565b7f43616c6c6572206973206e6f742061646d696e00000000000000000000000000600082015250565b7f4552433732313a207472616e736665722063616c6c6572206973206e6f74206f60008201527f776e6572206e6f7220617070726f766564000000000000000000000000000000602082015250565b7f496e697469616c697a61626c653a20636f6e7472616374206973206e6f74206960008201527f6e697469616c697a696e67000000000000000000000000000000000000000000602082015250565b6138ad81613044565b81146138b857600080fd5b50565b6138c481613056565b81146138cf57600080fd5b50565b6138db81613062565b81146138e657600080fd5b50565b6138f2816130ae565b81146138fd57600080fd5b5056fea2646970667358221220302bc0759c4426fab12555f78a540f6a0d33600f153813c44ee71173c525138064736f6c63430008060033",
  "devdoc": {
    "kind": "dev",
    "methods": {
      "approve(address,uint256)": {
        "details": "See {IERC721-approve}."
      },
      "balanceOf(address)": {
        "details": "See {IERC721-balanceOf}."
      },
      "getApproved(uint256)": {
        "details": "See {IERC721-getApproved}."
      },
      "isApprovedForAll(address,address)": {
        "details": "See {IERC721-isApprovedForAll}."
      },
      "name()": {
        "details": "See {IERC721Metadata-name}."
      },
      "owner()": {
        "details": "Returns the address of the current owner."
      },
      "ownerOf(uint256)": {
        "details": "See {IERC721-ownerOf}."
      },
      "renounceOwnership()": {
        "details": "Leaves the contract without owner. It will not be possible to call `onlyOwner` functions anymore. Can only be called by the current owner. NOTE: Renouncing ownership will leave the contract without an owner, thereby removing any functionality that is only available to the owner."
      },
      "safeTransferFrom(address,address,uint256)": {
        "details": "See {IERC721-safeTransferFrom}."
      },
      "safeTransferFrom(address,address,uint256,bytes)": {
        "details": "See {IERC721-safeTransferFrom}."
      },
      "setApprovalForAll(address,bool)": {
        "details": "See {IERC721-setApprovalForAll}."
      },
      "supportsInterface(bytes4)": {
        "details": "See {IERC165-supportsInterface}."
      },
      "symbol()": {
        "details": "See {IERC721Metadata-symbol}."
      },
      "tokenURI(uint256)": {
        "details": "See {IERC721Metadata-tokenURI}."
      },
      "transferFrom(address,address,uint256)": {
        "details": "See {IERC721-transferFrom}."
      },
      "transferOwnership(address)": {
        "details": "Transfers ownership of the contract to a new account (`newOwner`). Can only be called by the current owner."
      }
    },
    "version": 1
  },
  "userdoc": {
    "kind": "user",
    "methods": {},
    "version": 1
  },
  "storageLayout": {
    "storage": [
      {
        "astId": 130,
        "contract": "src/BeMetaPlace.sol:BeMetaPlace",
        "label": "_initialized",
        "offset": 0,
        "slot": "0",
        "type": "t_bool"
      },
      {
        "astId": 133,
        "contract": "src/BeMetaPlace.sol:BeMetaPlace",
        "label": "_initializing",
        "offset": 1,
        "slot": "0",
        "type": "t_bool"
      },
      {
        "astId": 1681,
        "contract": "src/BeMetaPlace.sol:BeMetaPlace",
        "label": "__gap",
        "offset": 0,
        "slot": "1",
        "type": "t_array(t_uint256)50_storage"
      },
      {
        "astId": 2002,
        "contract": "src/BeMetaPlace.sol:BeMetaPlace",
        "label": "__gap",
        "offset": 0,
        "slot": "51",
        "type": "t_array(t_uint256)50_storage"
      },
      {
        "astId": 226,
        "contract": "src/BeMetaPlace.sol:BeMetaPlace",
        "label": "_name",
        "offset": 0,
        "slot": "101",
        "type": "t_string_storage"
      },
      {
        "astId": 228,
        "contract": "src/BeMetaPlace.sol:BeMetaPlace",
        "label": "_symbol",
        "offset": 0,
        "slot": "102",
        "type": "t_string_storage"
      },
      {
        "astId": 232,
        "contract": "src/BeMetaPlace.sol:BeMetaPlace",
        "label": "_owners",
        "offset": 0,
        "slot": "103",
        "type": "t_mapping(t_uint256,t_address)"
      },
      {
        "astId": 236,
        "contract": "src/BeMetaPlace.sol:BeMetaPlace",
        "label": "_balances",
        "offset": 0,
        "slot": "104",
        "type": "t_mapping(t_address,t_uint256)"
      },
      {
        "astId": 240,
        "contract": "src/BeMetaPlace.sol:BeMetaPlace",
        "label": "_tokenApprovals",
        "offset": 0,
        "slot": "105",
        "type": "t_mapping(t_uint256,t_address)"
      },
      {
        "astId": 246,
        "contract": "src/BeMetaPlace.sol:BeMetaPlace",
        "label": "_operatorApprovals",
        "offset": 0,
        "slot": "106",
        "type": "t_mapping(t_address,t_mapping(t_address,t_bool))"
      },
      {
        "astId": 1087,
        "contract": "src/BeMetaPlace.sol:BeMetaPlace",
        "label": "__gap",
        "offset": 0,
        "slot": "107",
        "type": "t_array(t_uint256)44_storage"
      },
      {
        "astId": 1250,
        "contract": "src/BeMetaPlace.sol:BeMetaPlace",
        "label": "_tokenURIs",
        "offset": 0,
        "slot": "151",
        "type": "t_mapping(t_uint256,t_string_storage)"
      },
      {
        "astId": 1369,
        "contract": "src/BeMetaPlace.sol:BeMetaPlace",
        "label": "__gap",
        "offset": 0,
        "slot": "152",
        "type": "t_array(t_uint256)49_storage"
      },
      {
        "astId": 10,
        "contract": "src/BeMetaPlace.sol:BeMetaPlace",
        "label": "_owner",
        "offset": 0,
        "slot": "201",
        "type": "t_address"
      },
      {
        "astId": 122,
        "contract": "src/BeMetaPlace.sol:BeMetaPlace",
        "label": "__gap",
        "offset": 0,
        "slot": "202",
        "type": "t_array(t_uint256)49_storage"
      },
      {
        "astId": 2103,
        "contract": "src/BeMetaPlace.sol:BeMetaPlace",
        "label": "trustedForwarder",
        "offset": 0,
        "slot": "251",
        "type": "t_address"
      },
      {
        "astId": 2027,
        "contract": "src/BeMetaPlace.sol:BeMetaPlace",
        "label": "_admins",
        "offset": 0,
        "slot": "252",
        "type": "t_mapping(t_address,t_bool)"
      },
      {
        "astId": 2171,
        "contract": "src/BeMetaPlace.sol:BeMetaPlace",
        "label": "_tokenCounters",
        "offset": 0,
        "slot": "253",
        "type": "t_struct(Counter)1688_storage"
      }
    ],
    "types": {
      "t_address": {
        "encoding": "inplace",
        "label": "address",
        "numberOfBytes": "20"
      },
      "t_array(t_uint256)44_storage": {
        "base": "t_uint256",
        "encoding": "inplace",
        "label": "uint256[44]",
        "numberOfBytes": "1408"
      },
      "t_array(t_uint256)49_storage": {
        "base": "t_uint256",
        "encoding": "inplace",
        "label": "uint256[49]",
        "numberOfBytes": "1568"
      },
      "t_array(t_uint256)50_storage": {
        "base": "t_uint256",
        "encoding": "inplace",
        "label": "uint256[50]",
        "numberOfBytes": "1600"
      },
      "t_bool": {
        "encoding": "inplace",
        "label": "bool",
        "numberOfBytes": "1"
      },
      "t_mapping(t_address,t_bool)": {
        "encoding": "mapping",
        "key": "t_address",
        "label": "mapping(address => bool)",
        "numberOfBytes": "32",
        "value": "t_bool"
      },
      "t_mapping(t_address,t_mapping(t_address,t_bool))": {
        "encoding": "mapping",
        "key": "t_address",
        "label": "mapping(address => mapping(address => bool))",
        "numberOfBytes": "32",
        "value": "t_mapping(t_address,t_bool)"
      },
      "t_mapping(t_address,t_uint256)": {
        "encoding": "mapping",
        "key": "t_address",
        "label": "mapping(address => uint256)",
        "numberOfBytes": "32",
        "value": "t_uint256"
      },
      "t_mapping(t_uint256,t_address)": {
        "encoding": "mapping",
        "key": "t_uint256",
        "label": "mapping(uint256 => address)",
        "numberOfBytes": "32",
        "value": "t_address"
      },
      "t_mapping(t_uint256,t_string_storage)": {
        "encoding": "mapping",
        "key": "t_uint256",
        "label": "mapping(uint256 => string)",
        "numberOfBytes": "32",
        "value": "t_string_storage"
      },
      "t_string_storage": {
        "encoding": "bytes",
        "label": "string",
        "numberOfBytes": "32"
      },
      "t_struct(Counter)1688_storage": {
        "encoding": "inplace",
        "label": "struct CountersUpgradeable.Counter",
        "members": [
          {
            "astId": 1687,
            "contract": "src/BeMetaPlace.sol:BeMetaPlace",
            "label": "_value",
            "offset": 0,
            "slot": "0",
            "type": "t_uint256"
          }
        ],
        "numberOfBytes": "32"
      },
      "t_uint256": {
        "encoding": "inplace",
        "label": "uint256",
        "numberOfBytes": "32"
      }
    }
  }
}