{
  "address": "0x2e0CFEB5b34e15c9B67a7e4632444dBe4152445c",
  "abi": [
    {
      "anonymous": false,
      "inputs": [
        {
          "indexed": false,
          "internalType": "address",
          "name": "admin",
          "type": "address"
        },
        {
          "indexed": false,
          "internalType": "bool",
          "name": "enabled",
          "type": "bool"
        }
      ],
      "name": "AdminAccessSet",
      "type": "event"
    },
    {
      "anonymous": false,
      "inputs": [
        {
          "indexed": true,
          "internalType": "address",
          "name": "owner",
          "type": "address"
        },
        {
          "indexed": true,
          "internalType": "address",
          "name": "spender",
          "type": "address"
        },
        {
          "indexed": false,
          "internalType": "uint256",
          "name": "value",
          "type": "uint256"
        }
      ],
      "name": "Approval",
      "type": "event"
    },
    {
      "anonymous": false,
      "inputs": [
        {
          "indexed": true,
          "internalType": "address",
          "name": "previousOwner",
          "type": "address"
        },
        {
          "indexed": true,
          "internalType": "address",
          "name": "newOwner",
          "type": "address"
        }
      ],
      "name": "OwnershipTransferred",
      "type": "event"
    },
    {
      "anonymous": false,
      "inputs": [
        {
          "indexed": true,
          "internalType": "address",
          "name": "from",
          "type": "address"
        },
        {
          "indexed": true,
          "internalType": "address",
          "name": "to",
          "type": "address"
        },
        {
          "indexed": false,
          "internalType": "uint256",
          "name": "value",
          "type": "uint256"
        }
      ],
      "name": "Transfer",
      "type": "event"
    },
    {
      "inputs": [
        {
          "internalType": "address",
          "name": "owner",
          "type": "address"
        },
        {
          "internalType": "address",
          "name": "spender",
          "type": "address"
        }
      ],
      "name": "allowance",
      "outputs": [
        {
          "internalType": "uint256",
          "name": "",
          "type": "uint256"
        }
      ],
      "stateMutability": "view",
      "type": "function"
    },
    {
      "inputs": [
        {
          "internalType": "address",
          "name": "spender",
          "type": "address"
        },
        {
          "internalType": "uint256",
          "name": "amount",
          "type": "uint256"
        }
      ],
      "name": "approve",
      "outputs": [
        {
          "internalType": "bool",
          "name": "",
          "type": "bool"
        }
      ],
      "stateMutability": "nonpayable",
      "type": "function"
    },
    {
      "inputs": [
        {
          "internalType": "address",
          "name": "account",
          "type": "address"
        }
      ],
      "name": "balanceOf",
      "outputs": [
        {
          "internalType": "uint256",
          "name": "",
          "type": "uint256"
        }
      ],
      "stateMutability": "view",
      "type": "function"
    },
    {
      "inputs": [],
      "name": "decimals",
      "outputs": [
        {
          "internalType": "uint8",
          "name": "",
          "type": "uint8"
        }
      ],
      "stateMutability": "view",
      "type": "function"
    },
    {
      "inputs": [
        {
          "internalType": "address",
          "name": "spender",
          "type": "address"
        },
        {
          "internalType": "uint256",
          "name": "subtractedValue",
          "type": "uint256"
        }
      ],
      "name": "decreaseAllowance",
      "outputs": [
        {
          "internalType": "bool",
          "name": "",
          "type": "bool"
        }
      ],
      "stateMutability": "nonpayable",
      "type": "function"
    },
    {
      "inputs": [
        {
          "internalType": "address",
          "name": "spender",
          "type": "address"
        },
        {
          "internalType": "uint256",
          "name": "addedValue",
          "type": "uint256"
        }
      ],
      "name": "increaseAllowance",
      "outputs": [
        {
          "internalType": "bool",
          "name": "",
          "type": "bool"
        }
      ],
      "stateMutability": "nonpayable",
      "type": "function"
    },
    {
      "inputs": [
        {
          "internalType": "string",
          "name": "name_",
          "type": "string"
        },
        {
          "internalType": "string",
          "name": "symbol_",
          "type": "string"
        }
      ],
      "name": "initialize",
      "outputs": [],
      "stateMutability": "nonpayable",
      "type": "function"
    },
    {
      "inputs": [
        {
          "internalType": "address",
          "name": "admin",
          "type": "address"
        }
      ],
      "name": "isAdmin",
      "outputs": [
        {
          "internalType": "bool",
          "name": "",
          "type": "bool"
        }
      ],
      "stateMutability": "view",
      "type": "function"
    },
    {
      "inputs": [
        {
          "internalType": "address",
          "name": "forwarder",
          "type": "address"
        }
      ],
      "name": "isTrustedForwarder",
      "outputs": [
        {
          "internalType": "bool",
          "name": "",
          "type": "bool"
        }
      ],
      "stateMutability": "view",
      "type": "function"
    },
    {
      "inputs": [],
      "name": "name",
      "outputs": [
        {
          "internalType": "string",
          "name": "",
          "type": "string"
        }
      ],
      "stateMutability": "view",
      "type": "function"
    },
    {
      "inputs": [],
      "name": "owner",
      "outputs": [
        {
          "internalType": "address",
          "name": "",
          "type": "address"
        }
      ],
      "stateMutability": "view",
      "type": "function"
    },
    {
      "inputs": [],
      "name": "renounceOwnership",
      "outputs": [],
      "stateMutability": "nonpayable",
      "type": "function"
    },
    {
      "inputs": [
        {
          "internalType": "address",
          "name": "admin",
          "type": "address"
        },
        {
          "internalType": "bool",
          "name": "enabled",
          "type": "bool"
        }
      ],
      "name": "setAdminAccess",
      "outputs": [],
      "stateMutability": "nonpayable",
      "type": "function"
    },
    {
      "inputs": [],
      "name": "symbol",
      "outputs": [
        {
          "internalType": "string",
          "name": "",
          "type": "string"
        }
      ],
      "stateMutability": "view",
      "type": "function"
    },
    {
      "inputs": [],
      "name": "totalSupply",
      "outputs": [
        {
          "internalType": "uint256",
          "name": "",
          "type": "uint256"
        }
      ],
      "stateMutability": "view",
      "type": "function"
    },
    {
      "inputs": [
        {
          "internalType": "address",
          "name": "to",
          "type": "address"
        },
        {
          "internalType": "uint256",
          "name": "amount",
          "type": "uint256"
        }
      ],
      "name": "transfer",
      "outputs": [
        {
          "internalType": "bool",
          "name": "",
          "type": "bool"
        }
      ],
      "stateMutability": "nonpayable",
      "type": "function"
    },
    {
      "inputs": [
        {
          "internalType": "address",
          "name": "from",
          "type": "address"
        },
        {
          "internalType": "address",
          "name": "to",
          "type": "address"
        },
        {
          "internalType": "uint256",
          "name": "amount",
          "type": "uint256"
        }
      ],
      "name": "transferFrom",
      "outputs": [
        {
          "internalType": "bool",
          "name": "",
          "type": "bool"
        }
      ],
      "stateMutability": "nonpayable",
      "type": "function"
    },
    {
      "inputs": [
        {
          "internalType": "address",
          "name": "newOwner",
          "type": "address"
        }
      ],
      "name": "transferOwnership",
      "outputs": [],
      "stateMutability": "nonpayable",
      "type": "function"
    },
    {
      "inputs": [],
      "name": "trustedForwarder",
      "outputs": [
        {
          "internalType": "address",
          "name": "",
          "type": "address"
        }
      ],
      "stateMutability": "view",
      "type": "function"
    }
  ],
  "transactionHash": "0x8a97f35d2b19a570370bcf3f60eb374c53873fac5d3fbb3ce3a1fd079068c067",
  "args": [],
  "numDeployments": 1,
  "solcInputHash": "8451e98f3ae3b0fa8b44555c3961fee6",
  "bytecode": "0x608060405234801561001057600080fd5b50612386806100206000396000f3fe608060405234801561001057600080fd5b50600436106101215760003560e01c806370a08231116100ad578063a457c2d711610071578063a457c2d714610320578063a9059cbb14610350578063dd62ed3e14610380578063f2fde38b146103b0578063f65a0b3e146103cc57610121565b806370a082311461028c578063715018a6146102bc5780637da0a877146102c65780638da5cb5b146102e457806395d89b411461030257610121565b806324d7806c116100f457806324d7806c146101c2578063313ce567146101f257806339509351146102105780634cd88b7614610240578063572b6c051461025c57610121565b806306fdde0314610126578063095ea7b31461014457806318160ddd1461017457806323b872dd14610192575b600080fd5b61012e6103e8565b60405161013b9190611b7d565b60405180910390f35b61015e6004803603810190610159919061184d565b61047a565b60405161016b9190611b62565b60405180910390f35b61017c61049d565b6040516101899190611d1f565b60405180910390f35b6101ac60048036038101906101a791906117ba565b6104a7565b6040516101b99190611b62565b60405180910390f35b6101dc60048036038101906101d7919061174d565b6104d6565b6040516101e99190611b62565b60405180910390f35b6101fa610569565b6040516102079190611d3a565b60405180910390f35b61022a6004803603810190610225919061184d565b610572565b6040516102379190611b62565b60405180910390f35b61025a6004803603810190610255919061188d565b61061c565b005b6102766004803603810190610271919061174d565b61072f565b6040516102839190611b62565b60405180910390f35b6102a660048036038101906102a1919061174d565b610789565b6040516102b39190611d1f565b60405180910390f35b6102c46107d2565b005b6102ce61085a565b6040516102db9190611b1e565b60405180910390f35b6102ec610880565b6040516102f99190611b1e565b60405180910390f35b61030a6108aa565b6040516103179190611b7d565b60405180910390f35b61033a6004803603810190610335919061184d565b61093c565b6040516103479190611b62565b60405180910390f35b61036a6004803603810190610365919061184d565b610a26565b6040516103779190611b62565b60405180910390f35b61039a6004803603810190610395919061177a565b610a49565b6040516103a79190611d1f565b60405180910390f35b6103ca60048036038101906103c5919061174d565b610ad0565b005b6103e660048036038101906103e1919061180d565b610bc8565b005b6060603680546103f790611eb4565b80601f016020809104026020016040519081016040528092919081815260200182805461042390611eb4565b80156104705780601f1061044557610100808354040283529160200191610470565b820191906000526020600020905b81548152906001019060200180831161045357829003601f168201915b5050505050905090565b600080610485610cd8565b9050610492818585610ce7565b600191505092915050565b6000603554905090565b6000806104b2610cd8565b90506104bf858285610eb2565b6104ca858585610f3e565b60019150509392505050565b6000609860008373ffffffffffffffffffffffffffffffffffffffff1673ffffffffffffffffffffffffffffffffffffffff16815260200190815260200160002060009054906101000a900460ff16806105625750610533610880565b73ffffffffffffffffffffffffffffffffffffffff168273ffffffffffffffffffffffffffffffffffffffff16145b9050919050565b60006012905090565b60008061057d610cd8565b9050610611818585603460008673ffffffffffffffffffffffffffffffffffffffff1673ffffffffffffffffffffffffffffffffffffffff16815260200190815260200160002060008973ffffffffffffffffffffffffffffffffffffffff1673ffffffffffffffffffffffffffffffffffffffff1681526020019081526020016000205461060c9190611dc7565b610ce7565b600191505092915050565b600060019054906101000a900460ff166106445760008054906101000a900460ff161561064d565b61064c6111c2565b5b61068c576040517f08c379a000000000000000000000000000000000000000000000000000000000815260040161068390611c3f565b60405180910390fd5b60008060019054906101000a900460ff1615905080156106dc576001600060016101000a81548160ff02191690831515021790555060016000806101000a81548160ff0219169083151502179055505b6106e683836111d3565b6106ee611230565b6107096106f9610880565b69152d02c7e14af6800000611289565b801561072a5760008060016101000a81548160ff0219169083151502179055505b505050565b6000609760009054906101000a900473ffffffffffffffffffffffffffffffffffffffff1673ffffffffffffffffffffffffffffffffffffffff168273ffffffffffffffffffffffffffffffffffffffff16149050919050565b6000603360008373ffffffffffffffffffffffffffffffffffffffff1673ffffffffffffffffffffffffffffffffffffffff168152602001908152602001600020549050919050565b6107da610cd8565b73ffffffffffffffffffffffffffffffffffffffff166107f8610880565b73ffffffffffffffffffffffffffffffffffffffff161461084e576040517f08c379a000000000000000000000000000000000000000000000000000000000815260040161084590611c5f565b60405180910390fd5b61085860006113ea565b565b609760009054906101000a900473ffffffffffffffffffffffffffffffffffffffff1681565b6000606560009054906101000a900473ffffffffffffffffffffffffffffffffffffffff16905090565b6060603780546108b990611eb4565b80601f01602080910402602001604051908101604052809291908181526020018280546108e590611eb4565b80156109325780601f1061090757610100808354040283529160200191610932565b820191906000526020600020905b81548152906001019060200180831161091557829003601f168201915b5050505050905090565b600080610947610cd8565b90506000603460008373ffffffffffffffffffffffffffffffffffffffff1673ffffffffffffffffffffffffffffffffffffffff16815260200190815260200160002060008673ffffffffffffffffffffffffffffffffffffffff1673ffffffffffffffffffffffffffffffffffffffff16815260200190815260200160002054905083811015610a0d576040517f08c379a0000000000000000000000000000000000000000000000000000000008152600401610a0490611cdf565b60405180910390fd5b610a1a8286868403610ce7565b60019250505092915050565b600080610a31610cd8565b9050610a3e818585610f3e565b600191505092915050565b6000603460008473ffffffffffffffffffffffffffffffffffffffff1673ffffffffffffffffffffffffffffffffffffffff16815260200190815260200160002060008373ffffffffffffffffffffffffffffffffffffffff1673ffffffffffffffffffffffffffffffffffffffff16815260200190815260200160002054905092915050565b610ad8610cd8565b73ffffffffffffffffffffffffffffffffffffffff16610af6610880565b73ffffffffffffffffffffffffffffffffffffffff1614610b4c576040517f08c379a0000000000000000000000000000000000000000000000000000000008152600401610b4390611c5f565b60405180910390fd5b600073ffffffffffffffffffffffffffffffffffffffff168173ffffffffffffffffffffffffffffffffffffffff161415610bbc576040517f08c379a0000000000000000000000000000000000000000000000000000000008152600401610bb390611bbf565b60405180910390fd5b610bc5816113ea565b50565b610bd0610cd8565b73ffffffffffffffffffffffffffffffffffffffff16610bee610880565b73ffffffffffffffffffffffffffffffffffffffff1614610c44576040517f08c379a0000000000000000000000000000000000000000000000000000000008152600401610c3b90611c5f565b60405180910390fd5b80609860008473ffffffffffffffffffffffffffffffffffffffff1673ffffffffffffffffffffffffffffffffffffffff16815260200190815260200160002060006101000a81548160ff0219169083151502179055507fe529461c8529abc0e0fe7c5ee361f74fe22e0b7574df1fc0b7558a282091fb788282604051610ccc929190611b39565b60405180910390a15050565b6000610ce26114b0565b905090565b600073ffffffffffffffffffffffffffffffffffffffff168373ffffffffffffffffffffffffffffffffffffffff161415610d57576040517f08c379a0000000000000000000000000000000000000000000000000000000008152600401610d4e90611c9f565b60405180910390fd5b600073ffffffffffffffffffffffffffffffffffffffff168273ffffffffffffffffffffffffffffffffffffffff161415610dc7576040517f08c379a0000000000000000000000000000000000000000000000000000000008152600401610dbe90611bdf565b60405180910390fd5b80603460008573ffffffffffffffffffffffffffffffffffffffff1673ffffffffffffffffffffffffffffffffffffffff16815260200190815260200160002060008473ffffffffffffffffffffffffffffffffffffffff1673ffffffffffffffffffffffffffffffffffffffff168152602001908152602001600020819055508173ffffffffffffffffffffffffffffffffffffffff168373ffffffffffffffffffffffffffffffffffffffff167f8c5be1e5ebec7d5bd14f71427d1e84f3dd0314c0f7b2291e5b200ac8c7c3b92583604051610ea59190611d1f565b60405180910390a3505050565b6000610ebe8484610a49565b90507fffffffffffffffffffffffffffffffffffffffffffffffffffffffffffffffff8114610f385781811015610f2a576040517f08c379a0000000000000000000000000000000000000000000000000000000008152600401610f2190611bff565b60405180910390fd5b610f378484848403610ce7565b5b50505050565b600073ffffffffffffffffffffffffffffffffffffffff168373ffffffffffffffffffffffffffffffffffffffff161415610fae576040517f08c379a0000000000000000000000000000000000000000000000000000000008152600401610fa590611c7f565b60405180910390fd5b600073ffffffffffffffffffffffffffffffffffffffff168273ffffffffffffffffffffffffffffffffffffffff16141561101e576040517f08c379a000000000000000000000000000000000000000000000000000000000815260040161101590611b9f565b60405180910390fd5b6110298383836114ec565b6000603360008573ffffffffffffffffffffffffffffffffffffffff1673ffffffffffffffffffffffffffffffffffffffff168152602001908152602001600020549050818110156110b0576040517f08c379a00000000000000000000000000000000000000000000000000000000081526004016110a790611c1f565b60405180910390fd5b818103603360008673ffffffffffffffffffffffffffffffffffffffff1673ffffffffffffffffffffffffffffffffffffffff1681526020019081526020016000208190555081603360008573ffffffffffffffffffffffffffffffffffffffff1673ffffffffffffffffffffffffffffffffffffffff16815260200190815260200160002060008282546111459190611dc7565b925050819055508273ffffffffffffffffffffffffffffffffffffffff168473ffffffffffffffffffffffffffffffffffffffff167fddf252ad1be2c89b69c2b068fc378daa952ba7f163c4a11628f55a4df523b3ef846040516111a99190611d1f565b60405180910390a36111bc8484846114f1565b50505050565b60006111cd306114f6565b15905090565b600060019054906101000a900460ff16611222576040517f08c379a000000000000000000000000000000000000000000000000000000000815260040161121990611cbf565b60405180910390fd5b61122c8282611519565b5050565b600060019054906101000a900460ff1661127f576040517f08c379a000000000000000000000000000000000000000000000000000000000815260040161127690611cbf565b60405180910390fd5b61128761159a565b565b600073ffffffffffffffffffffffffffffffffffffffff168273ffffffffffffffffffffffffffffffffffffffff1614156112f9576040517f08c379a00000000000000000000000000000000000000000000000000000000081526004016112f090611cff565b60405180910390fd5b611305600083836114ec565b80603560008282546113179190611dc7565b9250508190555080603360008473ffffffffffffffffffffffffffffffffffffffff1673ffffffffffffffffffffffffffffffffffffffff168152602001908152602001600020600082825461136d9190611dc7565b925050819055508173ffffffffffffffffffffffffffffffffffffffff16600073ffffffffffffffffffffffffffffffffffffffff167fddf252ad1be2c89b69c2b068fc378daa952ba7f163c4a11628f55a4df523b3ef836040516113d29190611d1f565b60405180910390a36113e6600083836114f1565b5050565b6000606560009054906101000a900473ffffffffffffffffffffffffffffffffffffffff16905081606560006101000a81548173ffffffffffffffffffffffffffffffffffffffff021916908373ffffffffffffffffffffffffffffffffffffffff1602179055508173ffffffffffffffffffffffffffffffffffffffff168173ffffffffffffffffffffffffffffffffffffffff167f8be0079c531659141344cd1fd0a4f28419497f9722a3daafe3b4186f6b6457e060405160405180910390a35050565b600060186000369050101580156114cc57506114cb3361072f565b5b156114e057601436033560601c90506114e8565b3390506114e9565b5b90565b505050565b505050565b6000808273ffffffffffffffffffffffffffffffffffffffff163b119050919050565b600060019054906101000a900460ff16611568576040517f08c379a000000000000000000000000000000000000000000000000000000000815260040161155f90611cbf565b60405180910390fd5b816036908051906020019061157e9291906115fb565b5080603790805190602001906115959291906115fb565b505050565b600060019054906101000a900460ff166115e9576040517f08c379a00000000000000000000000000000000000000000000000000000000081526004016115e090611cbf565b60405180910390fd5b6115f96115f4610cd8565b6113ea565b565b82805461160790611eb4565b90600052602060002090601f0160209004810192826116295760008555611670565b82601f1061164257805160ff1916838001178555611670565b82800160010185558215611670579182015b8281111561166f578251825591602001919060010190611654565b5b50905061167d9190611681565b5090565b5b8082111561169a576000816000905550600101611682565b5090565b60006116b16116ac84611d7a565b611d55565b9050828152602081018484840111156116cd576116cc611fa9565b5b6116d8848285611e72565b509392505050565b6000813590506116ef8161230b565b92915050565b60008135905061170481612322565b92915050565b600082601f83011261171f5761171e611fa4565b5b813561172f84826020860161169e565b91505092915050565b60008135905061174781612339565b92915050565b60006020828403121561176357611762611fb3565b5b6000611771848285016116e0565b91505092915050565b6000806040838503121561179157611790611fb3565b5b600061179f858286016116e0565b92505060206117b0858286016116e0565b9150509250929050565b6000806000606084860312156117d3576117d2611fb3565b5b60006117e1868287016116e0565b93505060206117f2868287016116e0565b925050604061180386828701611738565b9150509250925092565b6000806040838503121561182457611823611fb3565b5b6000611832858286016116e0565b9250506020611843858286016116f5565b9150509250929050565b6000806040838503121561186457611863611fb3565b5b6000611872858286016116e0565b925050602061188385828601611738565b9150509250929050565b600080604083850312156118a4576118a3611fb3565b5b600083013567ffffffffffffffff8111156118c2576118c1611fae565b5b6118ce8582860161170a565b925050602083013567ffffffffffffffff8111156118ef576118ee611fae565b5b6118fb8582860161170a565b9150509250929050565b61190e81611e1d565b82525050565b61191d81611e2f565b82525050565b600061192e82611dab565b6119388185611db6565b9350611948818560208601611e81565b61195181611fb8565b840191505092915050565b6000611969602383611db6565b915061197482611fc9565b604082019050919050565b600061198c602683611db6565b915061199782612018565b604082019050919050565b60006119af602283611db6565b91506119ba82612067565b604082019050919050565b60006119d2601d83611db6565b91506119dd826120b6565b602082019050919050565b60006119f5602683611db6565b9150611a00826120df565b604082019050919050565b6000611a18602e83611db6565b9150611a238261212e565b604082019050919050565b6000611a3b602083611db6565b9150611a468261217d565b602082019050919050565b6000611a5e602583611db6565b9150611a69826121a6565b604082019050919050565b6000611a81602483611db6565b9150611a8c826121f5565b604082019050919050565b6000611aa4602b83611db6565b9150611aaf82612244565b604082019050919050565b6000611ac7602583611db6565b9150611ad282612293565b604082019050919050565b6000611aea601f83611db6565b9150611af5826122e2565b602082019050919050565b611b0981611e5b565b82525050565b611b1881611e65565b82525050565b6000602082019050611b336000830184611905565b92915050565b6000604082019050611b4e6000830185611905565b611b5b6020830184611914565b9392505050565b6000602082019050611b776000830184611914565b92915050565b60006020820190508181036000830152611b978184611923565b905092915050565b60006020820190508181036000830152611bb88161195c565b9050919050565b60006020820190508181036000830152611bd88161197f565b9050919050565b60006020820190508181036000830152611bf8816119a2565b9050919050565b60006020820190508181036000830152611c18816119c5565b9050919050565b60006020820190508181036000830152611c38816119e8565b9050919050565b60006020820190508181036000830152611c5881611a0b565b9050919050565b60006020820190508181036000830152611c7881611a2e565b9050919050565b60006020820190508181036000830152611c9881611a51565b9050919050565b60006020820190508181036000830152611cb881611a74565b9050919050565b60006020820190508181036000830152611cd881611a97565b9050919050565b60006020820190508181036000830152611cf881611aba565b9050919050565b60006020820190508181036000830152611d1881611add565b9050919050565b6000602082019050611d346000830184611b00565b92915050565b6000602082019050611d4f6000830184611b0f565b92915050565b6000611d5f611d70565b9050611d6b8282611ee6565b919050565b6000604051905090565b600067ffffffffffffffff821115611d9557611d94611f75565b5b611d9e82611fb8565b9050602081019050919050565b600081519050919050565b600082825260208201905092915050565b6000611dd282611e5b565b9150611ddd83611e5b565b9250827fffffffffffffffffffffffffffffffffffffffffffffffffffffffffffffffff03821115611e1257611e11611f17565b5b828201905092915050565b6000611e2882611e3b565b9050919050565b60008115159050919050565b600073ffffffffffffffffffffffffffffffffffffffff82169050919050565b6000819050919050565b600060ff82169050919050565b82818337600083830152505050565b60005b83811015611e9f578082015181840152602081019050611e84565b83811115611eae576000848401525b50505050565b60006002820490506001821680611ecc57607f821691505b60208210811415611ee057611edf611f46565b5b50919050565b611eef82611fb8565b810181811067ffffffffffffffff82111715611f0e57611f0d611f75565b5b80604052505050565b7f4e487b7100000000000000000000000000000000000000000000000000000000600052601160045260246000fd5b7f4e487b7100000000000000000000000000000000000000000000000000000000600052602260045260246000fd5b7f4e487b7100000000000000000000000000000000000000000000000000000000600052604160045260246000fd5b600080fd5b600080fd5b600080fd5b600080fd5b6000601f19601f8301169050919050565b7f45524332303a207472616e7366657220746f20746865207a65726f206164647260008201527f6573730000000000000000000000000000000000000000000000000000000000602082015250565b7f4f776e61626c653a206e6577206f776e657220697320746865207a65726f206160008201527f6464726573730000000000000000000000000000000000000000000000000000602082015250565b7f45524332303a20617070726f766520746f20746865207a65726f20616464726560008201527f7373000000000000000000000000000000000000000000000000000000000000602082015250565b7f45524332303a20696e73756666696369656e7420616c6c6f77616e6365000000600082015250565b7f45524332303a207472616e7366657220616d6f756e742065786365656473206260008201527f616c616e63650000000000000000000000000000000000000000000000000000602082015250565b7f496e697469616c697a61626c653a20636f6e747261637420697320616c72656160008201527f647920696e697469616c697a6564000000000000000000000000000000000000602082015250565b7f4f776e61626c653a2063616c6c6572206973206e6f7420746865206f776e6572600082015250565b7f45524332303a207472616e736665722066726f6d20746865207a65726f20616460008201527f6472657373000000000000000000000000000000000000000000000000000000602082015250565b7f45524332303a20617070726f76652066726f6d20746865207a65726f2061646460008201527f7265737300000000000000000000000000000000000000000000000000000000602082015250565b7f496e697469616c697a61626c653a20636f6e7472616374206973206e6f74206960008201527f6e697469616c697a696e67000000000000000000000000000000000000000000602082015250565b7f45524332303a2064656372656173656420616c6c6f77616e63652062656c6f7760008201527f207a65726f000000000000000000000000000000000000000000000000000000602082015250565b7f45524332303a206d696e7420746f20746865207a65726f206164647265737300600082015250565b61231481611e1d565b811461231f57600080fd5b50565b61232b81611e2f565b811461233657600080fd5b50565b61234281611e5b565b811461234d57600080fd5b5056fea2646970667358221220607dce13a1d09ace5dde3b47a314bbd93e008605ae150696df8a7f621a217f3e64736f6c63430008060033",
  "devdoc": {
    "kind": "dev",
    "methods": {
      "allowance(address,address)": {
        "details": "See {IERC20-allowance}."
      },
      "approve(address,uint256)": {
        "details": "See {IERC20-approve}. NOTE: If `amount` is the maximum `uint256`, the allowance is not updated on `transferFrom`. This is semantically equivalent to an infinite approval. Requirements: - `spender` cannot be the zero address."
      },
      "balanceOf(address)": {
        "details": "See {IERC20-balanceOf}."
      },
      "decimals()": {
        "details": "Returns the number of decimals used to get its user representation. For example, if `decimals` equals `2`, a balance of `505` tokens should be displayed to a user as `5.05` (`505 / 10 ** 2`). Tokens usually opt for a value of 18, imitating the relationship between Ether and Wei. This is the value {ERC20} uses, unless this function is overridden; NOTE: This information is only used for _display_ purposes: it in no way affects any of the arithmetic of the contract, including {IERC20-balanceOf} and {IERC20-transfer}."
      },
      "decreaseAllowance(address,uint256)": {
        "details": "Atomically decreases the allowance granted to `spender` by the caller. This is an alternative to {approve} that can be used as a mitigation for problems described in {IERC20-approve}. Emits an {Approval} event indicating the updated allowance. Requirements: - `spender` cannot be the zero address. - `spender` must have allowance for the caller of at least `subtractedValue`."
      },
      "increaseAllowance(address,uint256)": {
        "details": "Atomically increases the allowance granted to `spender` by the caller. This is an alternative to {approve} that can be used as a mitigation for problems described in {IERC20-approve}. Emits an {Approval} event indicating the updated allowance. Requirements: - `spender` cannot be the zero address."
      },
      "name()": {
        "details": "Returns the name of the token."
      },
      "owner()": {
        "details": "Returns the address of the current owner."
      },
      "renounceOwnership()": {
        "details": "Leaves the contract without owner. It will not be possible to call `onlyOwner` functions anymore. Can only be called by the current owner. NOTE: Renouncing ownership will leave the contract without an owner, thereby removing any functionality that is only available to the owner."
      },
      "symbol()": {
        "details": "Returns the symbol of the token, usually a shorter version of the name."
      },
      "totalSupply()": {
        "details": "See {IERC20-totalSupply}."
      },
      "transfer(address,uint256)": {
        "details": "See {IERC20-transfer}. Requirements: - `to` cannot be the zero address. - the caller must have a balance of at least `amount`."
      },
      "transferFrom(address,address,uint256)": {
        "details": "See {IERC20-transferFrom}. Emits an {Approval} event indicating the updated allowance. This is not required by the EIP. See the note at the beginning of {ERC20}. NOTE: Does not update the allowance if the current allowance is the maximum `uint256`. Requirements: - `from` and `to` cannot be the zero address. - `from` must have a balance of at least `amount`. - the caller must have allowance for ``from``'s tokens of at least `amount`."
      },
      "transferOwnership(address)": {
        "details": "Transfers ownership of the contract to a new account (`newOwner`). Can only be called by the current owner."
      }
    },
    "version": 1
  },
  "userdoc": {
    "kind": "user",
    "methods": {},
    "version": 1
  },
  "storageLayout": {
    "storage": [
      {
        "astId": 130,
        "contract": "src/BeMetaToken.sol:BeMetaToken",
        "label": "_initialized",
        "offset": 0,
        "slot": "0",
        "type": "t_bool"
      },
      {
        "astId": 133,
        "contract": "src/BeMetaToken.sol:BeMetaToken",
        "label": "_initializing",
        "offset": 1,
        "slot": "0",
        "type": "t_bool"
      },
      {
        "astId": 1262,
        "contract": "src/BeMetaToken.sol:BeMetaToken",
        "label": "__gap",
        "offset": 0,
        "slot": "1",
        "type": "t_array(t_uint256)50_storage"
      },
      {
        "astId": 216,
        "contract": "src/BeMetaToken.sol:BeMetaToken",
        "label": "_balances",
        "offset": 0,
        "slot": "51",
        "type": "t_mapping(t_address,t_uint256)"
      },
      {
        "astId": 222,
        "contract": "src/BeMetaToken.sol:BeMetaToken",
        "label": "_allowances",
        "offset": 0,
        "slot": "52",
        "type": "t_mapping(t_address,t_mapping(t_address,t_uint256))"
      },
      {
        "astId": 224,
        "contract": "src/BeMetaToken.sol:BeMetaToken",
        "label": "_totalSupply",
        "offset": 0,
        "slot": "53",
        "type": "t_uint256"
      },
      {
        "astId": 226,
        "contract": "src/BeMetaToken.sol:BeMetaToken",
        "label": "_name",
        "offset": 0,
        "slot": "54",
        "type": "t_string_storage"
      },
      {
        "astId": 228,
        "contract": "src/BeMetaToken.sol:BeMetaToken",
        "label": "_symbol",
        "offset": 0,
        "slot": "55",
        "type": "t_string_storage"
      },
      {
        "astId": 809,
        "contract": "src/BeMetaToken.sol:BeMetaToken",
        "label": "__gap",
        "offset": 0,
        "slot": "56",
        "type": "t_array(t_uint256)45_storage"
      },
      {
        "astId": 10,
        "contract": "src/BeMetaToken.sol:BeMetaToken",
        "label": "_owner",
        "offset": 0,
        "slot": "101",
        "type": "t_address"
      },
      {
        "astId": 122,
        "contract": "src/BeMetaToken.sol:BeMetaToken",
        "label": "__gap",
        "offset": 0,
        "slot": "102",
        "type": "t_array(t_uint256)49_storage"
      },
      {
        "astId": 2076,
        "contract": "src/BeMetaToken.sol:BeMetaToken",
        "label": "trustedForwarder",
        "offset": 0,
        "slot": "151",
        "type": "t_address"
      },
      {
        "astId": 2000,
        "contract": "src/BeMetaToken.sol:BeMetaToken",
        "label": "_admins",
        "offset": 0,
        "slot": "152",
        "type": "t_mapping(t_address,t_bool)"
      }
    ],
    "types": {
      "t_address": {
        "encoding": "inplace",
        "label": "address",
        "numberOfBytes": "20"
      },
      "t_array(t_uint256)45_storage": {
        "base": "t_uint256",
        "encoding": "inplace",
        "label": "uint256[45]",
        "numberOfBytes": "1440"
      },
      "t_array(t_uint256)49_storage": {
        "base": "t_uint256",
        "encoding": "inplace",
        "label": "uint256[49]",
        "numberOfBytes": "1568"
      },
      "t_array(t_uint256)50_storage": {
        "base": "t_uint256",
        "encoding": "inplace",
        "label": "uint256[50]",
        "numberOfBytes": "1600"
      },
      "t_bool": {
        "encoding": "inplace",
        "label": "bool",
        "numberOfBytes": "1"
      },
      "t_mapping(t_address,t_bool)": {
        "encoding": "mapping",
        "key": "t_address",
        "label": "mapping(address => bool)",
        "numberOfBytes": "32",
        "value": "t_bool"
      },
      "t_mapping(t_address,t_mapping(t_address,t_uint256))": {
        "encoding": "mapping",
        "key": "t_address",
        "label": "mapping(address => mapping(address => uint256))",
        "numberOfBytes": "32",
        "value": "t_mapping(t_address,t_uint256)"
      },
      "t_mapping(t_address,t_uint256)": {
        "encoding": "mapping",
        "key": "t_address",
        "label": "mapping(address => uint256)",
        "numberOfBytes": "32",
        "value": "t_uint256"
      },
      "t_string_storage": {
        "encoding": "bytes",
        "label": "string",
        "numberOfBytes": "32"
      },
      "t_uint256": {
        "encoding": "inplace",
        "label": "uint256",
        "numberOfBytes": "32"
      }
    }
  }
}