{
  "address": "0xA30d5B90F708A8370828B283E1C2891801Fe82ec",
  "abi": [
    {
      "anonymous": false,
      "inputs": [
        {
          "indexed": false,
          "internalType": "address",
          "name": "admin",
          "type": "address"
        },
        {
          "indexed": false,
          "internalType": "bool",
          "name": "enabled",
          "type": "bool"
        }
      ],
      "name": "AdminAccessSet",
      "type": "event"
    },
    {
      "anonymous": false,
      "inputs": [
        {
          "indexed": true,
          "internalType": "address",
          "name": "owner",
          "type": "address"
        },
        {
          "indexed": true,
          "internalType": "address",
          "name": "approved",
          "type": "address"
        },
        {
          "indexed": true,
          "internalType": "uint256",
          "name": "tokenId",
          "type": "uint256"
        }
      ],
      "name": "Approval",
      "type": "event"
    },
    {
      "anonymous": false,
      "inputs": [
        {
          "indexed": true,
          "internalType": "address",
          "name": "owner",
          "type": "address"
        },
        {
          "indexed": true,
          "internalType": "address",
          "name": "operator",
          "type": "address"
        },
        {
          "indexed": false,
          "internalType": "bool",
          "name": "approved",
          "type": "bool"
        }
      ],
      "name": "ApprovalForAll",
      "type": "event"
    },
    {
      "anonymous": false,
      "inputs": [
        {
          "indexed": true,
          "internalType": "address",
          "name": "previousOwner",
          "type": "address"
        },
        {
          "indexed": true,
          "internalType": "address",
          "name": "newOwner",
          "type": "address"
        }
      ],
      "name": "OwnershipTransferred",
      "type": "event"
    },
    {
      "anonymous": false,
      "inputs": [
        {
          "indexed": true,
          "internalType": "address",
          "name": "from",
          "type": "address"
        },
        {
          "indexed": true,
          "internalType": "address",
          "name": "to",
          "type": "address"
        },
        {
          "indexed": true,
          "internalType": "uint256",
          "name": "tokenId",
          "type": "uint256"
        }
      ],
      "name": "Transfer",
      "type": "event"
    },
    {
      "inputs": [
        {
          "internalType": "address",
          "name": "to",
          "type": "address"
        },
        {
          "internalType": "uint256",
          "name": "tokenId",
          "type": "uint256"
        }
      ],
      "name": "approve",
      "outputs": [],
      "stateMutability": "nonpayable",
      "type": "function"
    },
    {
      "inputs": [
        {
          "internalType": "address",
          "name": "owner",
          "type": "address"
        }
      ],
      "name": "balanceOf",
      "outputs": [
        {
          "internalType": "uint256",
          "name": "",
          "type": "uint256"
        }
      ],
      "stateMutability": "view",
      "type": "function"
    },
    {
      "inputs": [
        {
          "internalType": "uint256",
          "name": "tokenId",
          "type": "uint256"
        }
      ],
      "name": "getApproved",
      "outputs": [
        {
          "internalType": "address",
          "name": "",
          "type": "address"
        }
      ],
      "stateMutability": "view",
      "type": "function"
    },
    {
      "inputs": [
        {
          "internalType": "string",
          "name": "name_",
          "type": "string"
        },
        {
          "internalType": "string",
          "name": "symbol_",
          "type": "string"
        }
      ],
      "name": "initialize",
      "outputs": [],
      "stateMutability": "nonpayable",
      "type": "function"
    },
    {
      "inputs": [
        {
          "internalType": "address",
          "name": "admin",
          "type": "address"
        }
      ],
      "name": "isAdmin",
      "outputs": [
        {
          "internalType": "bool",
          "name": "",
          "type": "bool"
        }
      ],
      "stateMutability": "view",
      "type": "function"
    },
    {
      "inputs": [
        {
          "internalType": "address",
          "name": "owner",
          "type": "address"
        },
        {
          "internalType": "address",
          "name": "operator",
          "type": "address"
        }
      ],
      "name": "isApprovedForAll",
      "outputs": [
        {
          "internalType": "bool",
          "name": "",
          "type": "bool"
        }
      ],
      "stateMutability": "view",
      "type": "function"
    },
    {
      "inputs": [
        {
          "internalType": "address",
          "name": "forwarder",
          "type": "address"
        }
      ],
      "name": "isTrustedForwarder",
      "outputs": [
        {
          "internalType": "bool",
          "name": "",
          "type": "bool"
        }
      ],
      "stateMutability": "view",
      "type": "function"
    },
    {
      "inputs": [
        {
          "internalType": "address",
          "name": "to_",
          "type": "address"
        },
        {
          "internalType": "string",
          "name": "tokenURI_",
          "type": "string"
        }
      ],
      "name": "mint",
      "outputs": [
        {
          "internalType": "uint256",
          "name": "_tokenId",
          "type": "uint256"
        }
      ],
      "stateMutability": "nonpayable",
      "type": "function"
    },
    {
      "inputs": [],
      "name": "name",
      "outputs": [
        {
          "internalType": "string",
          "name": "",
          "type": "string"
        }
      ],
      "stateMutability": "view",
      "type": "function"
    },
    {
      "inputs": [],
      "name": "owner",
      "outputs": [
        {
          "internalType": "address",
          "name": "",
          "type": "address"
        }
      ],
      "stateMutability": "view",
      "type": "function"
    },
    {
      "inputs": [
        {
          "internalType": "uint256",
          "name": "tokenId",
          "type": "uint256"
        }
      ],
      "name": "ownerOf",
      "outputs": [
        {
          "internalType": "address",
          "name": "",
          "type": "address"
        }
      ],
      "stateMutability": "view",
      "type": "function"
    },
    {
      "inputs": [],
      "name": "renounceOwnership",
      "outputs": [],
      "stateMutability": "nonpayable",
      "type": "function"
    },
    {
      "inputs": [
        {
          "internalType": "address",
          "name": "from",
          "type": "address"
        },
        {
          "internalType": "address",
          "name": "to",
          "type": "address"
        },
        {
          "internalType": "uint256",
          "name": "tokenId",
          "type": "uint256"
        }
      ],
      "name": "safeTransferFrom",
      "outputs": [],
      "stateMutability": "nonpayable",
      "type": "function"
    },
    {
      "inputs": [
        {
          "internalType": "address",
          "name": "from",
          "type": "address"
        },
        {
          "internalType": "address",
          "name": "to",
          "type": "address"
        },
        {
          "internalType": "uint256",
          "name": "tokenId",
          "type": "uint256"
        },
        {
          "internalType": "bytes",
          "name": "_data",
          "type": "bytes"
        }
      ],
      "name": "safeTransferFrom",
      "outputs": [],
      "stateMutability": "nonpayable",
      "type": "function"
    },
    {
      "inputs": [
        {
          "internalType": "address",
          "name": "admin",
          "type": "address"
        },
        {
          "internalType": "bool",
          "name": "enabled",
          "type": "bool"
        }
      ],
      "name": "setAdminAccess",
      "outputs": [],
      "stateMutability": "nonpayable",
      "type": "function"
    },
    {
      "inputs": [
        {
          "internalType": "address",
          "name": "operator",
          "type": "address"
        },
        {
          "internalType": "bool",
          "name": "approved",
          "type": "bool"
        }
      ],
      "name": "setApprovalForAll",
      "outputs": [],
      "stateMutability": "nonpayable",
      "type": "function"
    },
    {
      "inputs": [
        {
          "internalType": "string",
          "name": "base_name",
          "type": "string"
        }
      ],
      "name": "setBase",
      "outputs": [],
      "stateMutability": "nonpayable",
      "type": "function"
    },
    {
      "inputs": [
        {
          "internalType": "uint256",
          "name": "tokenId",
          "type": "uint256"
        },
        {
          "internalType": "string",
          "name": "_tokenURI",
          "type": "string"
        }
      ],
      "name": "setTokenURI",
      "outputs": [],
      "stateMutability": "nonpayable",
      "type": "function"
    },
    {
      "inputs": [
        {
          "internalType": "bytes4",
          "name": "interfaceId",
          "type": "bytes4"
        }
      ],
      "name": "supportsInterface",
      "outputs": [
        {
          "internalType": "bool",
          "name": "",
          "type": "bool"
        }
      ],
      "stateMutability": "view",
      "type": "function"
    },
    {
      "inputs": [],
      "name": "symbol",
      "outputs": [
        {
          "internalType": "string",
          "name": "",
          "type": "string"
        }
      ],
      "stateMutability": "view",
      "type": "function"
    },
    {
      "inputs": [
        {
          "internalType": "uint256",
          "name": "index",
          "type": "uint256"
        }
      ],
      "name": "tokenByIndex",
      "outputs": [
        {
          "internalType": "uint256",
          "name": "",
          "type": "uint256"
        }
      ],
      "stateMutability": "view",
      "type": "function"
    },
    {
      "inputs": [
        {
          "internalType": "address",
          "name": "owner",
          "type": "address"
        },
        {
          "internalType": "uint256",
          "name": "index",
          "type": "uint256"
        }
      ],
      "name": "tokenOfOwnerByIndex",
      "outputs": [
        {
          "internalType": "uint256",
          "name": "",
          "type": "uint256"
        }
      ],
      "stateMutability": "view",
      "type": "function"
    },
    {
      "inputs": [
        {
          "internalType": "uint256",
          "name": "tokenId",
          "type": "uint256"
        }
      ],
      "name": "tokenURI",
      "outputs": [
        {
          "internalType": "string",
          "name": "_tokenURI",
          "type": "string"
        }
      ],
      "stateMutability": "view",
      "type": "function"
    },
    {
      "inputs": [],
      "name": "totalSupply",
      "outputs": [
        {
          "internalType": "uint256",
          "name": "",
          "type": "uint256"
        }
      ],
      "stateMutability": "view",
      "type": "function"
    },
    {
      "inputs": [
        {
          "internalType": "address",
          "name": "from",
          "type": "address"
        },
        {
          "internalType": "address",
          "name": "to",
          "type": "address"
        },
        {
          "internalType": "uint256",
          "name": "tokenId",
          "type": "uint256"
        }
      ],
      "name": "transferFrom",
      "outputs": [],
      "stateMutability": "nonpayable",
      "type": "function"
    },
    {
      "inputs": [
        {
          "internalType": "address",
          "name": "newOwner",
          "type": "address"
        }
      ],
      "name": "transferOwnership",
      "outputs": [],
      "stateMutability": "nonpayable",
      "type": "function"
    },
    {
      "inputs": [],
      "name": "trustedForwarder",
      "outputs": [
        {
          "internalType": "address",
          "name": "",
          "type": "address"
        }
      ],
      "stateMutability": "view",
      "type": "function"
    }
  ],
  "transactionHash": "0x349e701979c60a68e7a11dd41df5b98e0a1e4cc39d6c95d4ed74e13aa4b0f151",
  "args": [],
  "numDeployments": 2,
  "solcInputHash": "cece0687ff41368cdbc36019fa0bae43",
  "bytecode": "0x608060405234801561001057600080fd5b506142d4806100206000396000f3fe608060405234801561001057600080fd5b50600436106101a95760003560e01c80636352211e116100f9578063a22cb46511610097578063d0def52111610071578063d0def521146104de578063e985e9c51461050e578063f2fde38b1461053e578063f65a0b3e1461055a576101a9565b8063a22cb46514610476578063b88d4fde14610492578063c87b56dd146104ae576101a9565b8063715018a6116100d3578063715018a6146104125780637da0a8771461041c5780638da5cb5b1461043a57806395d89b4114610458576101a9565b80636352211e14610396578063664aa26b146103c657806370a08231146103e2576101a9565b806323b872dd1161016657806342842e0e1161014057806342842e0e146102fe5780634cd88b761461031a5780634f6ccce714610336578063572b6c0514610366576101a9565b806323b872dd1461028257806324d7806c1461029e5780632f745c59146102ce576101a9565b806301ffc9a7146101ae57806306fdde03146101de578063081812fc146101fc578063095ea7b31461022c578063162094c41461024857806318160ddd14610264575b600080fd5b6101c860048036038101906101c39190612e0b565b610576565b6040516101d59190613458565b60405180910390f35b6101e66105a8565b6040516101f39190613473565b60405180910390f35b61021660048036038101906102119190612f26565b61063a565b60405161022391906133c8565b60405180910390f35b61024660048036038101906102419190612dcb565b6106bf565b005b610262600480360381019061025d9190612f53565b6107d7565b005b61026c610834565b6040516102799190613775565b60405180910390f35b61029c60048036038101906102979190612c59565b610841565b005b6102b860048036038101906102b39190612bec565b6108a1565b6040516102c59190613458565b60405180910390f35b6102e860048036038101906102e39190612dcb565b610935565b6040516102f59190613775565b60405180910390f35b61031860048036038101906103139190612c59565b6109da565b005b610334600480360381019061032f9190612eae565b6109fa565b005b610350600480360381019061034b9190612f26565b610afa565b60405161035d9190613775565b60405180910390f35b610380600480360381019061037b9190612bec565b610b6b565b60405161038d9190613458565b60405180910390f35b6103b060048036038101906103ab9190612f26565b610bc6565b6040516103bd91906133c8565b60405180910390f35b6103e060048036038101906103db9190612e65565b610c78565b005b6103fc60048036038101906103f79190612bec565b610ce2565b6040516104099190613775565b60405180910390f35b61041a610d9a565b005b610424610e22565b60405161043191906133c8565b60405180910390f35b610442610e49565b60405161044f91906133c8565b60405180910390f35b610460610e73565b60405161046d9190613473565b60405180910390f35b610490600480360381019061048b9190612d2f565b610f05565b005b6104ac60048036038101906104a79190612cac565b610f1b565b005b6104c860048036038101906104c39190612f26565b610f7d565b6040516104d59190613473565b60405180910390f35b6104f860048036038101906104f39190612d6f565b610f8f565b6040516105059190613775565b60405180910390f35b61052860048036038101906105239190612c19565b611012565b6040516105359190613458565b60405180910390f35b61055860048036038101906105539190612bec565b6110a6565b005b610574600480360381019061056f9190612d2f565b61119e565b005b6000610581826112af565b80610591575061059082611329565b5b806105a157506105a0826112af565b5b9050919050565b6060606580546105b7906139cb565b80601f01602080910402602001604051908101604052809291908181526020018280546105e3906139cb565b80156106305780601f1061060557610100808354040283529160200191610630565b820191906000526020600020905b81548152906001019060200180831161061357829003601f168201915b5050505050905090565b60006106458261140b565b610684576040517f08c379a000000000000000000000000000000000000000000000000000000000815260040161067b90613675565b60405180910390fd5b6069600083815260200190815260200160002060009054906101000a900473ffffffffffffffffffffffffffffffffffffffff169050919050565b60006106ca82610bc6565b90508073ffffffffffffffffffffffffffffffffffffffff168373ffffffffffffffffffffffffffffffffffffffff16141561073b576040517f08c379a0000000000000000000000000000000000000000000000000000000008152600401610732906136d5565b60405180910390fd5b8073ffffffffffffffffffffffffffffffffffffffff1661075a611477565b73ffffffffffffffffffffffffffffffffffffffff161480610789575061078881610783611477565b611012565b5b6107c8576040517f08c379a00000000000000000000000000000000000000000000000000000000081526004016107bf90613595565b60405180910390fd5b6107d28383611486565b505050565b6107e76107e2611477565b6108a1565b610826576040517f08c379a000000000000000000000000000000000000000000000000000000000815260040161081d906136f5565b60405180910390fd5b610830828261153f565b5050565b600060cb80549050905090565b61085261084c611477565b826115b3565b610891576040517f08c379a000000000000000000000000000000000000000000000000000000000815260040161088890613715565b60405180910390fd5b61089c838383611691565b505050565b600061012e60008373ffffffffffffffffffffffffffffffffffffffff1673ffffffffffffffffffffffffffffffffffffffff16815260200190815260200160002060009054906101000a900460ff168061092e57506108ff610e49565b73ffffffffffffffffffffffffffffffffffffffff168273ffffffffffffffffffffffffffffffffffffffff16145b9050919050565b600061094083610ce2565b8210610981576040517f08c379a000000000000000000000000000000000000000000000000000000000815260040161097890613495565b60405180910390fd5b60c960008473ffffffffffffffffffffffffffffffffffffffff1673ffffffffffffffffffffffffffffffffffffffff168152602001908152602001600020600083815260200190815260200160002054905092915050565b6109f583838360405180602001604052806000815250610f1b565b505050565b600060019054906101000a900460ff16610a225760008054906101000a900460ff1615610a2b565b610a2a6118f8565b5b610a6a576040517f08c379a0000000000000000000000000000000000000000000000000000000008152600401610a6190613615565b60405180910390fd5b60008060019054906101000a900460ff161590508015610aba576001600060016101000a81548160ff02191690831515021790555060016000806101000a81548160ff0219169083151502179055505b610ac2611909565b610acc838361195a565b610ad46119b7565b8015610af55760008060016101000a81548160ff0219169083151502179055505b505050565b6000610b04610834565b8210610b45576040517f08c379a0000000000000000000000000000000000000000000000000000000008152600401610b3c90613735565b60405180910390fd5b60cb8281548110610b5957610b58613b64565b5b90600052602060002001549050919050565b600061012d60009054906101000a900473ffffffffffffffffffffffffffffffffffffffff1673ffffffffffffffffffffffffffffffffffffffff168273ffffffffffffffffffffffffffffffffffffffff16149050919050565b6000806067600084815260200190815260200160002060009054906101000a900473ffffffffffffffffffffffffffffffffffffffff169050600073ffffffffffffffffffffffffffffffffffffffff168173ffffffffffffffffffffffffffffffffffffffff161415610c6f576040517f08c379a0000000000000000000000000000000000000000000000000000000008152600401610c66906135d5565b60405180910390fd5b80915050919050565b610c88610c83611477565b6108a1565b610cc7576040517f08c379a0000000000000000000000000000000000000000000000000000000008152600401610cbe906136f5565b60405180910390fd5b806101309080519060200190610cde929190612a00565b5050565b60008073ffffffffffffffffffffffffffffffffffffffff168273ffffffffffffffffffffffffffffffffffffffff161415610d53576040517f08c379a0000000000000000000000000000000000000000000000000000000008152600401610d4a906135b5565b60405180910390fd5b606860008373ffffffffffffffffffffffffffffffffffffffff1673ffffffffffffffffffffffffffffffffffffffff168152602001908152602001600020549050919050565b610da2611477565b73ffffffffffffffffffffffffffffffffffffffff16610dc0610e49565b73ffffffffffffffffffffffffffffffffffffffff1614610e16576040517f08c379a0000000000000000000000000000000000000000000000000000000008152600401610e0d90613695565b60405180910390fd5b610e206000611a10565b565b61012d60009054906101000a900473ffffffffffffffffffffffffffffffffffffffff1681565b600060fb60009054906101000a900473ffffffffffffffffffffffffffffffffffffffff16905090565b606060668054610e82906139cb565b80601f0160208091040260200160405190810160405280929190818152602001828054610eae906139cb565b8015610efb5780601f10610ed057610100808354040283529160200191610efb565b820191906000526020600020905b815481529060010190602001808311610ede57829003601f168201915b5050505050905090565b610f17610f10611477565b8383611ad6565b5050565b610f2c610f26611477565b836115b3565b610f6b576040517f08c379a0000000000000000000000000000000000000000000000000000000008152600401610f6290613715565b60405180910390fd5b610f7784848484611c43565b50505050565b6060610f8882611c9f565b9050919050565b6000610fa1610f9c611477565b6108a1565b610fe0576040517f08c379a0000000000000000000000000000000000000000000000000000000008152600401610fd7906136f5565b60405180910390fd5b610feb61012f611df1565b610ff661012f611e07565b90506110028382611e15565b61100c818361153f565b92915050565b6000606a60008473ffffffffffffffffffffffffffffffffffffffff1673ffffffffffffffffffffffffffffffffffffffff16815260200190815260200160002060008373ffffffffffffffffffffffffffffffffffffffff1673ffffffffffffffffffffffffffffffffffffffff16815260200190815260200160002060009054906101000a900460ff16905092915050565b6110ae611477565b73ffffffffffffffffffffffffffffffffffffffff166110cc610e49565b73ffffffffffffffffffffffffffffffffffffffff1614611122576040517f08c379a000000000000000000000000000000000000000000000000000000000815260040161111990613695565b60405180910390fd5b600073ffffffffffffffffffffffffffffffffffffffff168173ffffffffffffffffffffffffffffffffffffffff161415611192576040517f08c379a0000000000000000000000000000000000000000000000000000000008152600401611189906134d5565b60405180910390fd5b61119b81611a10565b50565b6111a6611477565b73ffffffffffffffffffffffffffffffffffffffff166111c4610e49565b73ffffffffffffffffffffffffffffffffffffffff161461121a576040517f08c379a000000000000000000000000000000000000000000000000000000000815260040161121190613695565b60405180910390fd5b8061012e60008473ffffffffffffffffffffffffffffffffffffffff1673ffffffffffffffffffffffffffffffffffffffff16815260200190815260200160002060006101000a81548160ff0219169083151502179055507fe529461c8529abc0e0fe7c5ee361f74fe22e0b7574df1fc0b7558a282091fb7882826040516112a392919061342f565b60405180910390a15050565b60007f780e9d63000000000000000000000000000000000000000000000000000000007bffffffffffffffffffffffffffffffffffffffffffffffffffffffff1916827bffffffffffffffffffffffffffffffffffffffffffffffffffffffff19161480611322575061132182611329565b5b9050919050565b60007f80ac58cd000000000000000000000000000000000000000000000000000000007bffffffffffffffffffffffffffffffffffffffffffffffffffffffff1916827bffffffffffffffffffffffffffffffffffffffffffffffffffffffff191614806113f457507f5b5e139f000000000000000000000000000000000000000000000000000000007bffffffffffffffffffffffffffffffffffffffffffffffffffffffff1916827bffffffffffffffffffffffffffffffffffffffffffffffffffffffff1916145b80611404575061140382611fef565b5b9050919050565b60008073ffffffffffffffffffffffffffffffffffffffff166067600084815260200190815260200160002060009054906101000a900473ffffffffffffffffffffffffffffffffffffffff1673ffffffffffffffffffffffffffffffffffffffff1614159050919050565b6000611481612059565b905090565b816069600083815260200190815260200160002060006101000a81548173ffffffffffffffffffffffffffffffffffffffff021916908373ffffffffffffffffffffffffffffffffffffffff160217905550808273ffffffffffffffffffffffffffffffffffffffff166114f983610bc6565b73ffffffffffffffffffffffffffffffffffffffff167f8c5be1e5ebec7d5bd14f71427d1e84f3dd0314c0f7b2291e5b200ac8c7c3b92560405160405180910390a45050565b6115488261140b565b611587576040517f08c379a000000000000000000000000000000000000000000000000000000000815260040161157e906135f5565b60405180910390fd5b806097600084815260200190815260200160002090805190602001906115ae929190612a00565b505050565b60006115be8261140b565b6115fd576040517f08c379a00000000000000000000000000000000000000000000000000000000081526004016115f490613575565b60405180910390fd5b600061160883610bc6565b90508073ffffffffffffffffffffffffffffffffffffffff168473ffffffffffffffffffffffffffffffffffffffff16148061167757508373ffffffffffffffffffffffffffffffffffffffff1661165f8461063a565b73ffffffffffffffffffffffffffffffffffffffff16145b8061168857506116878185611012565b5b91505092915050565b8273ffffffffffffffffffffffffffffffffffffffff166116b182610bc6565b73ffffffffffffffffffffffffffffffffffffffff1614611707576040517f08c379a00000000000000000000000000000000000000000000000000000000081526004016116fe906134f5565b60405180910390fd5b600073ffffffffffffffffffffffffffffffffffffffff168273ffffffffffffffffffffffffffffffffffffffff161415611777576040517f08c379a000000000000000000000000000000000000000000000000000000000815260040161176e90613535565b60405180910390fd5b611782838383612095565b61178d600082611486565b6001606860008573ffffffffffffffffffffffffffffffffffffffff1673ffffffffffffffffffffffffffffffffffffffff16815260200190815260200160002060008282546117dd91906138e1565b925050819055506001606860008473ffffffffffffffffffffffffffffffffffffffff1673ffffffffffffffffffffffffffffffffffffffff1681526020019081526020016000206000828254611834919061385a565b92505081905550816067600083815260200190815260200160002060006101000a81548173ffffffffffffffffffffffffffffffffffffffff021916908373ffffffffffffffffffffffffffffffffffffffff160217905550808273ffffffffffffffffffffffffffffffffffffffff168473ffffffffffffffffffffffffffffffffffffffff167fddf252ad1be2c89b69c2b068fc378daa952ba7f163c4a11628f55a4df523b3ef60405160405180910390a46118f38383836120a5565b505050565b6000611903306120aa565b15905090565b600060019054906101000a900460ff16611958576040517f08c379a000000000000000000000000000000000000000000000000000000000815260040161194f90613755565b60405180910390fd5b565b600060019054906101000a900460ff166119a9576040517f08c379a00000000000000000000000000000000000000000000000000000000081526004016119a090613755565b60405180910390fd5b6119b382826120cd565b5050565b600060019054906101000a900460ff16611a06576040517f08c379a00000000000000000000000000000000000000000000000000000000081526004016119fd90613755565b60405180910390fd5b611a0e61214e565b565b600060fb60009054906101000a900473ffffffffffffffffffffffffffffffffffffffff1690508160fb60006101000a81548173ffffffffffffffffffffffffffffffffffffffff021916908373ffffffffffffffffffffffffffffffffffffffff1602179055508173ffffffffffffffffffffffffffffffffffffffff168173ffffffffffffffffffffffffffffffffffffffff167f8be0079c531659141344cd1fd0a4f28419497f9722a3daafe3b4186f6b6457e060405160405180910390a35050565b8173ffffffffffffffffffffffffffffffffffffffff168373ffffffffffffffffffffffffffffffffffffffff161415611b45576040517f08c379a0000000000000000000000000000000000000000000000000000000008152600401611b3c90613555565b60405180910390fd5b80606a60008573ffffffffffffffffffffffffffffffffffffffff1673ffffffffffffffffffffffffffffffffffffffff16815260200190815260200160002060008473ffffffffffffffffffffffffffffffffffffffff1673ffffffffffffffffffffffffffffffffffffffff16815260200190815260200160002060006101000a81548160ff0219169083151502179055508173ffffffffffffffffffffffffffffffffffffffff168373ffffffffffffffffffffffffffffffffffffffff167f17307eab39ab6107e8899845ad3d59bd9653f200f220920489ca2b5937696c3183604051611c369190613458565b60405180910390a3505050565b611c4e848484611691565b611c5a848484846121af565b611c99576040517f08c379a0000000000000000000000000000000000000000000000000000000008152600401611c90906134b5565b60405180910390fd5b50505050565b6060611caa8261140b565b611ce9576040517f08c379a0000000000000000000000000000000000000000000000000000000008152600401611ce090613655565b60405180910390fd5b6000609760008481526020019081526020016000208054611d09906139cb565b80601f0160208091040260200160405190810160405280929190818152602001828054611d35906139cb565b8015611d825780601f10611d5757610100808354040283529160200191611d82565b820191906000526020600020905b815481529060010190602001808311611d6557829003601f168201915b505050505090506000611d93612346565b9050600081511415611da9578192505050611dec565b600082511115611dde578082604051602001611dc69291906133a4565b60405160208183030381529060405292505050611dec565b611de7846123d9565b925050505b919050565b6001816000016000828254019250508190555050565b600081600001549050919050565b600073ffffffffffffffffffffffffffffffffffffffff168273ffffffffffffffffffffffffffffffffffffffff161415611e85576040517f08c379a0000000000000000000000000000000000000000000000000000000008152600401611e7c90613635565b60405180910390fd5b611e8e8161140b565b15611ece576040517f08c379a0000000000000000000000000000000000000000000000000000000008152600401611ec590613515565b60405180910390fd5b611eda60008383612095565b6001606860008473ffffffffffffffffffffffffffffffffffffffff1673ffffffffffffffffffffffffffffffffffffffff1681526020019081526020016000206000828254611f2a919061385a565b92505081905550816067600083815260200190815260200160002060006101000a81548173ffffffffffffffffffffffffffffffffffffffff021916908373ffffffffffffffffffffffffffffffffffffffff160217905550808273ffffffffffffffffffffffffffffffffffffffff16600073ffffffffffffffffffffffffffffffffffffffff167fddf252ad1be2c89b69c2b068fc378daa952ba7f163c4a11628f55a4df523b3ef60405160405180910390a4611feb600083836120a5565b5050565b60007f01ffc9a7000000000000000000000000000000000000000000000000000000007bffffffffffffffffffffffffffffffffffffffffffffffffffffffff1916827bffffffffffffffffffffffffffffffffffffffffffffffffffffffff1916149050919050565b60006018600036905010158015612075575061207433610b6b565b5b1561208957601436033560601c9050612091565b339050612092565b5b90565b6120a0838383612480565b505050565b505050565b6000808273ffffffffffffffffffffffffffffffffffffffff163b119050919050565b600060019054906101000a900460ff1661211c576040517f08c379a000000000000000000000000000000000000000000000000000000000815260040161211390613755565b60405180910390fd5b8160659080519060200190612132929190612a00565b508060669080519060200190612149929190612a00565b505050565b600060019054906101000a900460ff1661219d576040517f08c379a000000000000000000000000000000000000000000000000000000000815260040161219490613755565b60405180910390fd5b6121ad6121a8611477565b611a10565b565b60006121d08473ffffffffffffffffffffffffffffffffffffffff166120aa565b15612339578373ffffffffffffffffffffffffffffffffffffffff1663150b7a026121f9611477565b8786866040518563ffffffff1660e01b815260040161221b94939291906133e3565b602060405180830381600087803b15801561223557600080fd5b505af192505050801561226657506040513d601f19601f820116820180604052508101906122639190612e38565b60015b6122e9573d8060008114612296576040519150601f19603f3d011682016040523d82523d6000602084013e61229b565b606091505b506000815114156122e1576040517f08c379a00000000000000000000000000000000000000000000000000000000081526004016122d8906134b5565b60405180910390fd5b805181602001fd5b63150b7a0260e01b7bffffffffffffffffffffffffffffffffffffffffffffffffffffffff1916817bffffffffffffffffffffffffffffffffffffffffffffffffffffffff19161491505061233e565b600190505b949350505050565b60606101308054612356906139cb565b80601f0160208091040260200160405190810160405280929190818152602001828054612382906139cb565b80156123cf5780601f106123a4576101008083540402835291602001916123cf565b820191906000526020600020905b8154815290600101906020018083116123b257829003601f168201915b5050505050905090565b60606123e48261140b565b612423576040517f08c379a000000000000000000000000000000000000000000000000000000000815260040161241a906136b5565b60405180910390fd5b600061242d612346565b9050600081511161244d5760405180602001604052806000815250612478565b8061245784612594565b6040516020016124689291906133a4565b6040516020818303038152906040525b915050919050565b61248b8383836126f5565b600073ffffffffffffffffffffffffffffffffffffffff168373ffffffffffffffffffffffffffffffffffffffff1614156124ce576124c9816126fa565b61250d565b8173ffffffffffffffffffffffffffffffffffffffff168373ffffffffffffffffffffffffffffffffffffffff161461250c5761250b8382612743565b5b5b600073ffffffffffffffffffffffffffffffffffffffff168273ffffffffffffffffffffffffffffffffffffffff1614156125505761254b816128b0565b61258f565b8273ffffffffffffffffffffffffffffffffffffffff168273ffffffffffffffffffffffffffffffffffffffff161461258e5761258d8282612981565b5b5b505050565b606060008214156125dc576040518060400160405280600181526020017f300000000000000000000000000000000000000000000000000000000000000081525090506126f0565b600082905060005b6000821461260e5780806125f790613a2e565b915050600a8261260791906138b0565b91506125e4565b60008167ffffffffffffffff81111561262a57612629613b93565b5b6040519080825280601f01601f19166020018201604052801561265c5781602001600182028036833780820191505090505b5090505b600085146126e95760018261267591906138e1565b9150600a856126849190613a77565b6030612690919061385a565b60f81b8183815181106126a6576126a5613b64565b5b60200101907effffffffffffffffffffffffffffffffffffffffffffffffffffffffffffff1916908160001a905350600a856126e291906138b0565b9450612660565b8093505050505b919050565b505050565b60cb8054905060cc60008381526020019081526020016000208190555060cb81908060018154018082558091505060019003906000526020600020016000909190919091505550565b6000600161275084610ce2565b61275a91906138e1565b9050600060ca600084815260200190815260200160002054905081811461283f57600060c960008673ffffffffffffffffffffffffffffffffffffffff1673ffffffffffffffffffffffffffffffffffffffff16815260200190815260200160002060008481526020019081526020016000205490508060c960008773ffffffffffffffffffffffffffffffffffffffff1673ffffffffffffffffffffffffffffffffffffffff1681526020019081526020016000206000848152602001908152602001600020819055508160ca600083815260200190815260200160002081905550505b60ca60008481526020019081526020016000206000905560c960008573ffffffffffffffffffffffffffffffffffffffff1673ffffffffffffffffffffffffffffffffffffffff16815260200190815260200160002060008381526020019081526020016000206000905550505050565b6000600160cb805490506128c491906138e1565b9050600060cc6000848152602001908152602001600020549050600060cb83815481106128f4576128f3613b64565b5b906000526020600020015490508060cb838154811061291657612915613b64565b5b90600052602060002001819055508160cc60008381526020019081526020016000208190555060cc60008581526020019081526020016000206000905560cb80548061296557612964613b35565b5b6001900381819060005260206000200160009055905550505050565b600061298c83610ce2565b90508160c960008573ffffffffffffffffffffffffffffffffffffffff1673ffffffffffffffffffffffffffffffffffffffff1681526020019081526020016000206000838152602001908152602001600020819055508060ca600084815260200190815260200160002081905550505050565b828054612a0c906139cb565b90600052602060002090601f016020900481019282612a2e5760008555612a75565b82601f10612a4757805160ff1916838001178555612a75565b82800160010185558215612a75579182015b82811115612a74578251825591602001919060010190612a59565b5b509050612a829190612a86565b5090565b5b80821115612a9f576000816000905550600101612a87565b5090565b6000612ab6612ab1846137b5565b613790565b905082815260208101848484011115612ad257612ad1613bc7565b5b612add848285613989565b509392505050565b6000612af8612af3846137e6565b613790565b905082815260208101848484011115612b1457612b13613bc7565b5b612b1f848285613989565b509392505050565b600081359050612b3681614242565b92915050565b600081359050612b4b81614259565b92915050565b600081359050612b6081614270565b92915050565b600081519050612b7581614270565b92915050565b600082601f830112612b9057612b8f613bc2565b5b8135612ba0848260208601612aa3565b91505092915050565b600082601f830112612bbe57612bbd613bc2565b5b8135612bce848260208601612ae5565b91505092915050565b600081359050612be681614287565b92915050565b600060208284031215612c0257612c01613bd1565b5b6000612c1084828501612b27565b91505092915050565b60008060408385031215612c3057612c2f613bd1565b5b6000612c3e85828601612b27565b9250506020612c4f85828601612b27565b9150509250929050565b600080600060608486031215612c7257612c71613bd1565b5b6000612c8086828701612b27565b9350506020612c9186828701612b27565b9250506040612ca286828701612bd7565b9150509250925092565b60008060008060808587031215612cc657612cc5613bd1565b5b6000612cd487828801612b27565b9450506020612ce587828801612b27565b9350506040612cf687828801612bd7565b925050606085013567ffffffffffffffff811115612d1757612d16613bcc565b5b612d2387828801612b7b565b91505092959194509250565b60008060408385031215612d4657612d45613bd1565b5b6000612d5485828601612b27565b9250506020612d6585828601612b3c565b9150509250929050565b60008060408385031215612d8657612d85613bd1565b5b6000612d9485828601612b27565b925050602083013567ffffffffffffffff811115612db557612db4613bcc565b5b612dc185828601612ba9565b9150509250929050565b60008060408385031215612de257612de1613bd1565b5b6000612df085828601612b27565b9250506020612e0185828601612bd7565b9150509250929050565b600060208284031215612e2157612e20613bd1565b5b6000612e2f84828501612b51565b91505092915050565b600060208284031215612e4e57612e4d613bd1565b5b6000612e5c84828501612b66565b91505092915050565b600060208284031215612e7b57612e7a613bd1565b5b600082013567ffffffffffffffff811115612e9957612e98613bcc565b5b612ea584828501612ba9565b91505092915050565b60008060408385031215612ec557612ec4613bd1565b5b600083013567ffffffffffffffff811115612ee357612ee2613bcc565b5b612eef85828601612ba9565b925050602083013567ffffffffffffffff811115612f1057612f0f613bcc565b5b612f1c85828601612ba9565b9150509250929050565b600060208284031215612f3c57612f3b613bd1565b5b6000612f4a84828501612bd7565b91505092915050565b60008060408385031215612f6a57612f69613bd1565b5b6000612f7885828601612bd7565b925050602083013567ffffffffffffffff811115612f9957612f98613bcc565b5b612fa585828601612ba9565b9150509250929050565b612fb881613915565b82525050565b612fc781613927565b82525050565b6000612fd882613817565b612fe2818561382d565b9350612ff2818560208601613998565b612ffb81613bd6565b840191505092915050565b600061301182613822565b61301b818561383e565b935061302b818560208601613998565b61303481613bd6565b840191505092915050565b600061304a82613822565b613054818561384f565b9350613064818560208601613998565b80840191505092915050565b600061307d602b8361383e565b915061308882613be7565b604082019050919050565b60006130a060328361383e565b91506130ab82613c36565b604082019050919050565b60006130c360268361383e565b91506130ce82613c85565b604082019050919050565b60006130e660258361383e565b91506130f182613cd4565b604082019050919050565b6000613109601c8361383e565b915061311482613d23565b602082019050919050565b600061312c60248361383e565b915061313782613d4c565b604082019050919050565b600061314f60198361383e565b915061315a82613d9b565b602082019050919050565b6000613172602c8361383e565b915061317d82613dc4565b604082019050919050565b600061319560388361383e565b91506131a082613e13565b604082019050919050565b60006131b8602a8361383e565b91506131c382613e62565b604082019050919050565b60006131db60298361383e565b91506131e682613eb1565b604082019050919050565b60006131fe602e8361383e565b915061320982613f00565b604082019050919050565b6000613221602e8361383e565b915061322c82613f4f565b604082019050919050565b600061324460208361383e565b915061324f82613f9e565b602082019050919050565b600061326760318361383e565b915061327282613fc7565b604082019050919050565b600061328a602c8361383e565b915061329582614016565b604082019050919050565b60006132ad60208361383e565b91506132b882614065565b602082019050919050565b60006132d0602f8361383e565b91506132db8261408e565b604082019050919050565b60006132f360218361383e565b91506132fe826140dd565b604082019050919050565b600061331660138361383e565b91506133218261412c565b602082019050919050565b600061333960318361383e565b915061334482614155565b604082019050919050565b600061335c602c8361383e565b9150613367826141a4565b604082019050919050565b600061337f602b8361383e565b915061338a826141f3565b604082019050919050565b61339e8161397f565b82525050565b60006133b0828561303f565b91506133bc828461303f565b91508190509392505050565b60006020820190506133dd6000830184612faf565b92915050565b60006080820190506133f86000830187612faf565b6134056020830186612faf565b6134126040830185613395565b81810360608301526134248184612fcd565b905095945050505050565b60006040820190506134446000830185612faf565b6134516020830184612fbe565b9392505050565b600060208201905061346d6000830184612fbe565b92915050565b6000602082019050818103600083015261348d8184613006565b905092915050565b600060208201905081810360008301526134ae81613070565b9050919050565b600060208201905081810360008301526134ce81613093565b9050919050565b600060208201905081810360008301526134ee816130b6565b9050919050565b6000602082019050818103600083015261350e816130d9565b9050919050565b6000602082019050818103600083015261352e816130fc565b9050919050565b6000602082019050818103600083015261354e8161311f565b9050919050565b6000602082019050818103600083015261356e81613142565b9050919050565b6000602082019050818103600083015261358e81613165565b9050919050565b600060208201905081810360008301526135ae81613188565b9050919050565b600060208201905081810360008301526135ce816131ab565b9050919050565b600060208201905081810360008301526135ee816131ce565b9050919050565b6000602082019050818103600083015261360e816131f1565b9050919050565b6000602082019050818103600083015261362e81613214565b9050919050565b6000602082019050818103600083015261364e81613237565b9050919050565b6000602082019050818103600083015261366e8161325a565b9050919050565b6000602082019050818103600083015261368e8161327d565b9050919050565b600060208201905081810360008301526136ae816132a0565b9050919050565b600060208201905081810360008301526136ce816132c3565b9050919050565b600060208201905081810360008301526136ee816132e6565b9050919050565b6000602082019050818103600083015261370e81613309565b9050919050565b6000602082019050818103600083015261372e8161332c565b9050919050565b6000602082019050818103600083015261374e8161334f565b9050919050565b6000602082019050818103600083015261376e81613372565b9050919050565b600060208201905061378a6000830184613395565b92915050565b600061379a6137ab565b90506137a682826139fd565b919050565b6000604051905090565b600067ffffffffffffffff8211156137d0576137cf613b93565b5b6137d982613bd6565b9050602081019050919050565b600067ffffffffffffffff82111561380157613800613b93565b5b61380a82613bd6565b9050602081019050919050565b600081519050919050565b600081519050919050565b600082825260208201905092915050565b600082825260208201905092915050565b600081905092915050565b60006138658261397f565b91506138708361397f565b9250827fffffffffffffffffffffffffffffffffffffffffffffffffffffffffffffffff038211156138a5576138a4613aa8565b5b828201905092915050565b60006138bb8261397f565b91506138c68361397f565b9250826138d6576138d5613ad7565b5b828204905092915050565b60006138ec8261397f565b91506138f78361397f565b92508282101561390a57613909613aa8565b5b828203905092915050565b60006139208261395f565b9050919050565b60008115159050919050565b60007fffffffff0000000000000000000000000000000000000000000000000000000082169050919050565b600073ffffffffffffffffffffffffffffffffffffffff82169050919050565b6000819050919050565b82818337600083830152505050565b60005b838110156139b657808201518184015260208101905061399b565b838111156139c5576000848401525b50505050565b600060028204905060018216806139e357607f821691505b602082108114156139f7576139f6613b06565b5b50919050565b613a0682613bd6565b810181811067ffffffffffffffff82111715613a2557613a24613b93565b5b80604052505050565b6000613a398261397f565b91507fffffffffffffffffffffffffffffffffffffffffffffffffffffffffffffffff821415613a6c57613a6b613aa8565b5b600182019050919050565b6000613a828261397f565b9150613a8d8361397f565b925082613a9d57613a9c613ad7565b5b828206905092915050565b7f4e487b7100000000000000000000000000000000000000000000000000000000600052601160045260246000fd5b7f4e487b7100000000000000000000000000000000000000000000000000000000600052601260045260246000fd5b7f4e487b7100000000000000000000000000000000000000000000000000000000600052602260045260246000fd5b7f4e487b7100000000000000000000000000000000000000000000000000000000600052603160045260246000fd5b7f4e487b7100000000000000000000000000000000000000000000000000000000600052603260045260246000fd5b7f4e487b7100000000000000000000000000000000000000000000000000000000600052604160045260246000fd5b600080fd5b600080fd5b600080fd5b600080fd5b6000601f19601f8301169050919050565b7f455243373231456e756d657261626c653a206f776e657220696e646578206f7560008201527f74206f6620626f756e6473000000000000000000000000000000000000000000602082015250565b7f4552433732313a207472616e7366657220746f206e6f6e20455243373231526560008201527f63656976657220696d706c656d656e7465720000000000000000000000000000602082015250565b7f4f776e61626c653a206e6577206f776e657220697320746865207a65726f206160008201527f6464726573730000000000000000000000000000000000000000000000000000602082015250565b7f4552433732313a207472616e736665722066726f6d20696e636f72726563742060008201527f6f776e6572000000000000000000000000000000000000000000000000000000602082015250565b7f4552433732313a20746f6b656e20616c7265616479206d696e74656400000000600082015250565b7f4552433732313a207472616e7366657220746f20746865207a65726f2061646460008201527f7265737300000000000000000000000000000000000000000000000000000000602082015250565b7f4552433732313a20617070726f766520746f2063616c6c657200000000000000600082015250565b7f4552433732313a206f70657261746f7220717565727920666f72206e6f6e657860008201527f697374656e7420746f6b656e0000000000000000000000000000000000000000602082015250565b7f4552433732313a20617070726f76652063616c6c6572206973206e6f74206f7760008201527f6e6572206e6f7220617070726f76656420666f7220616c6c0000000000000000602082015250565b7f4552433732313a2062616c616e636520717565727920666f7220746865207a6560008201527f726f206164647265737300000000000000000000000000000000000000000000602082015250565b7f4552433732313a206f776e657220717565727920666f72206e6f6e657869737460008201527f656e7420746f6b656e0000000000000000000000000000000000000000000000602082015250565b7f45524337323155524953746f726167653a2055524920736574206f66206e6f6e60008201527f6578697374656e7420746f6b656e000000000000000000000000000000000000602082015250565b7f496e697469616c697a61626c653a20636f6e747261637420697320616c72656160008201527f647920696e697469616c697a6564000000000000000000000000000000000000602082015250565b7f4552433732313a206d696e7420746f20746865207a65726f2061646472657373600082015250565b7f45524337323155524953746f726167653a2055524920717565727920666f722060008201527f6e6f6e6578697374656e7420746f6b656e000000000000000000000000000000602082015250565b7f4552433732313a20617070726f76656420717565727920666f72206e6f6e657860008201527f697374656e7420746f6b656e0000000000000000000000000000000000000000602082015250565b7f4f776e61626c653a2063616c6c6572206973206e6f7420746865206f776e6572600082015250565b7f4552433732314d657461646174613a2055524920717565727920666f72206e6f60008201527f6e6578697374656e7420746f6b656e0000000000000000000000000000000000602082015250565b7f4552433732313a20617070726f76616c20746f2063757272656e74206f776e6560008201527f7200000000000000000000000000000000000000000000000000000000000000602082015250565b7f43616c6c6572206973206e6f742061646d696e00000000000000000000000000600082015250565b7f4552433732313a207472616e736665722063616c6c6572206973206e6f74206f60008201527f776e6572206e6f7220617070726f766564000000000000000000000000000000602082015250565b7f455243373231456e756d657261626c653a20676c6f62616c20696e646578206f60008201527f7574206f6620626f756e64730000000000000000000000000000000000000000602082015250565b7f496e697469616c697a61626c653a20636f6e7472616374206973206e6f74206960008201527f6e697469616c697a696e67000000000000000000000000000000000000000000602082015250565b61424b81613915565b811461425657600080fd5b50565b61426281613927565b811461426d57600080fd5b50565b61427981613933565b811461428457600080fd5b50565b6142908161397f565b811461429b57600080fd5b5056fea2646970667358221220e43661538fa959f02813687c136bcf3dd11a8a9e213a6c07b811a629d660a53b64736f6c63430008060033",
  "devdoc": {
    "kind": "dev",
    "methods": {
      "approve(address,uint256)": {
        "details": "See {IERC721-approve}."
      },
      "balanceOf(address)": {
        "details": "See {IERC721-balanceOf}."
      },
      "getApproved(uint256)": {
        "details": "See {IERC721-getApproved}."
      },
      "isApprovedForAll(address,address)": {
        "details": "See {IERC721-isApprovedForAll}."
      },
      "name()": {
        "details": "See {IERC721Metadata-name}."
      },
      "owner()": {
        "details": "Returns the address of the current owner."
      },
      "ownerOf(uint256)": {
        "details": "See {IERC721-ownerOf}."
      },
      "renounceOwnership()": {
        "details": "Leaves the contract without owner. It will not be possible to call `onlyOwner` functions anymore. Can only be called by the current owner. NOTE: Renouncing ownership will leave the contract without an owner, thereby removing any functionality that is only available to the owner."
      },
      "safeTransferFrom(address,address,uint256)": {
        "details": "See {IERC721-safeTransferFrom}."
      },
      "safeTransferFrom(address,address,uint256,bytes)": {
        "details": "See {IERC721-safeTransferFrom}."
      },
      "setApprovalForAll(address,bool)": {
        "details": "See {IERC721-setApprovalForAll}."
      },
      "symbol()": {
        "details": "See {IERC721Metadata-symbol}."
      },
      "tokenByIndex(uint256)": {
        "details": "See {IERC721Enumerable-tokenByIndex}."
      },
      "tokenOfOwnerByIndex(address,uint256)": {
        "details": "See {IERC721Enumerable-tokenOfOwnerByIndex}."
      },
      "totalSupply()": {
        "details": "See {IERC721Enumerable-totalSupply}."
      },
      "transferFrom(address,address,uint256)": {
        "details": "See {IERC721-transferFrom}."
      },
      "transferOwnership(address)": {
        "details": "Transfers ownership of the contract to a new account (`newOwner`). Can only be called by the current owner."
      }
    },
    "version": 1
  },
  "userdoc": {
    "kind": "user",
    "methods": {},
    "version": 1
  },
  "storageLayout": {
    "storage": [
      {
        "astId": 130,
        "contract": "src/BeMetaPlace.sol:BeMetaPlace",
        "label": "_initialized",
        "offset": 0,
        "slot": "0",
        "type": "t_bool"
      },
      {
        "astId": 133,
        "contract": "src/BeMetaPlace.sol:BeMetaPlace",
        "label": "_initializing",
        "offset": 1,
        "slot": "0",
        "type": "t_bool"
      },
      {
        "astId": 2117,
        "contract": "src/BeMetaPlace.sol:BeMetaPlace",
        "label": "__gap",
        "offset": 0,
        "slot": "1",
        "type": "t_array(t_uint256)50_storage"
      },
      {
        "astId": 2438,
        "contract": "src/BeMetaPlace.sol:BeMetaPlace",
        "label": "__gap",
        "offset": 0,
        "slot": "51",
        "type": "t_array(t_uint256)50_storage"
      },
      {
        "astId": 226,
        "contract": "src/BeMetaPlace.sol:BeMetaPlace",
        "label": "_name",
        "offset": 0,
        "slot": "101",
        "type": "t_string_storage"
      },
      {
        "astId": 228,
        "contract": "src/BeMetaPlace.sol:BeMetaPlace",
        "label": "_symbol",
        "offset": 0,
        "slot": "102",
        "type": "t_string_storage"
      },
      {
        "astId": 232,
        "contract": "src/BeMetaPlace.sol:BeMetaPlace",
        "label": "_owners",
        "offset": 0,
        "slot": "103",
        "type": "t_mapping(t_uint256,t_address)"
      },
      {
        "astId": 236,
        "contract": "src/BeMetaPlace.sol:BeMetaPlace",
        "label": "_balances",
        "offset": 0,
        "slot": "104",
        "type": "t_mapping(t_address,t_uint256)"
      },
      {
        "astId": 240,
        "contract": "src/BeMetaPlace.sol:BeMetaPlace",
        "label": "_tokenApprovals",
        "offset": 0,
        "slot": "105",
        "type": "t_mapping(t_uint256,t_address)"
      },
      {
        "astId": 246,
        "contract": "src/BeMetaPlace.sol:BeMetaPlace",
        "label": "_operatorApprovals",
        "offset": 0,
        "slot": "106",
        "type": "t_mapping(t_address,t_mapping(t_address,t_bool))"
      },
      {
        "astId": 1087,
        "contract": "src/BeMetaPlace.sol:BeMetaPlace",
        "label": "__gap",
        "offset": 0,
        "slot": "107",
        "type": "t_array(t_uint256)44_storage"
      },
      {
        "astId": 1608,
        "contract": "src/BeMetaPlace.sol:BeMetaPlace",
        "label": "_tokenURIs",
        "offset": 0,
        "slot": "151",
        "type": "t_mapping(t_uint256,t_string_storage)"
      },
      {
        "astId": 1727,
        "contract": "src/BeMetaPlace.sol:BeMetaPlace",
        "label": "__gap",
        "offset": 0,
        "slot": "152",
        "type": "t_array(t_uint256)49_storage"
      },
      {
        "astId": 1252,
        "contract": "src/BeMetaPlace.sol:BeMetaPlace",
        "label": "_ownedTokens",
        "offset": 0,
        "slot": "201",
        "type": "t_mapping(t_address,t_mapping(t_uint256,t_uint256))"
      },
      {
        "astId": 1256,
        "contract": "src/BeMetaPlace.sol:BeMetaPlace",
        "label": "_ownedTokensIndex",
        "offset": 0,
        "slot": "202",
        "type": "t_mapping(t_uint256,t_uint256)"
      },
      {
        "astId": 1259,
        "contract": "src/BeMetaPlace.sol:BeMetaPlace",
        "label": "_allTokens",
        "offset": 0,
        "slot": "203",
        "type": "t_array(t_uint256)dyn_storage"
      },
      {
        "astId": 1263,
        "contract": "src/BeMetaPlace.sol:BeMetaPlace",
        "label": "_allTokensIndex",
        "offset": 0,
        "slot": "204",
        "type": "t_mapping(t_uint256,t_uint256)"
      },
      {
        "astId": 1579,
        "contract": "src/BeMetaPlace.sol:BeMetaPlace",
        "label": "__gap",
        "offset": 0,
        "slot": "205",
        "type": "t_array(t_uint256)46_storage"
      },
      {
        "astId": 10,
        "contract": "src/BeMetaPlace.sol:BeMetaPlace",
        "label": "_owner",
        "offset": 0,
        "slot": "251",
        "type": "t_address"
      },
      {
        "astId": 122,
        "contract": "src/BeMetaPlace.sol:BeMetaPlace",
        "label": "__gap",
        "offset": 0,
        "slot": "252",
        "type": "t_array(t_uint256)49_storage"
      },
      {
        "astId": 4879,
        "contract": "src/BeMetaPlace.sol:BeMetaPlace",
        "label": "trustedForwarder",
        "offset": 0,
        "slot": "301",
        "type": "t_address"
      },
      {
        "astId": 4655,
        "contract": "src/BeMetaPlace.sol:BeMetaPlace",
        "label": "_admins",
        "offset": 0,
        "slot": "302",
        "type": "t_mapping(t_address,t_bool)"
      },
      {
        "astId": 5054,
        "contract": "src/BeMetaPlace.sol:BeMetaPlace",
        "label": "_tokenCounters",
        "offset": 0,
        "slot": "303",
        "type": "t_struct(Counter)2124_storage"
      },
      {
        "astId": 5056,
        "contract": "src/BeMetaPlace.sol:BeMetaPlace",
        "label": "__baseName",
        "offset": 0,
        "slot": "304",
        "type": "t_string_storage"
      },
      {
        "astId": 5243,
        "contract": "src/BeMetaPlace.sol:BeMetaPlace",
        "label": "__gap",
        "offset": 0,
        "slot": "305",
        "type": "t_array(t_uint256)50_storage"
      }
    ],
    "types": {
      "t_address": {
        "encoding": "inplace",
        "label": "address",
        "numberOfBytes": "20"
      },
      "t_array(t_uint256)44_storage": {
        "base": "t_uint256",
        "encoding": "inplace",
        "label": "uint256[44]",
        "numberOfBytes": "1408"
      },
      "t_array(t_uint256)46_storage": {
        "base": "t_uint256",
        "encoding": "inplace",
        "label": "uint256[46]",
        "numberOfBytes": "1472"
      },
      "t_array(t_uint256)49_storage": {
        "base": "t_uint256",
        "encoding": "inplace",
        "label": "uint256[49]",
        "numberOfBytes": "1568"
      },
      "t_array(t_uint256)50_storage": {
        "base": "t_uint256",
        "encoding": "inplace",
        "label": "uint256[50]",
        "numberOfBytes": "1600"
      },
      "t_array(t_uint256)dyn_storage": {
        "base": "t_uint256",
        "encoding": "dynamic_array",
        "label": "uint256[]",
        "numberOfBytes": "32"
      },
      "t_bool": {
        "encoding": "inplace",
        "label": "bool",
        "numberOfBytes": "1"
      },
      "t_mapping(t_address,t_bool)": {
        "encoding": "mapping",
        "key": "t_address",
        "label": "mapping(address => bool)",
        "numberOfBytes": "32",
        "value": "t_bool"
      },
      "t_mapping(t_address,t_mapping(t_address,t_bool))": {
        "encoding": "mapping",
        "key": "t_address",
        "label": "mapping(address => mapping(address => bool))",
        "numberOfBytes": "32",
        "value": "t_mapping(t_address,t_bool)"
      },
      "t_mapping(t_address,t_mapping(t_uint256,t_uint256))": {
        "encoding": "mapping",
        "key": "t_address",
        "label": "mapping(address => mapping(uint256 => uint256))",
        "numberOfBytes": "32",
        "value": "t_mapping(t_uint256,t_uint256)"
      },
      "t_mapping(t_address,t_uint256)": {
        "encoding": "mapping",
        "key": "t_address",
        "label": "mapping(address => uint256)",
        "numberOfBytes": "32",
        "value": "t_uint256"
      },
      "t_mapping(t_uint256,t_address)": {
        "encoding": "mapping",
        "key": "t_uint256",
        "label": "mapping(uint256 => address)",
        "numberOfBytes": "32",
        "value": "t_address"
      },
      "t_mapping(t_uint256,t_string_storage)": {
        "encoding": "mapping",
        "key": "t_uint256",
        "label": "mapping(uint256 => string)",
        "numberOfBytes": "32",
        "value": "t_string_storage"
      },
      "t_mapping(t_uint256,t_uint256)": {
        "encoding": "mapping",
        "key": "t_uint256",
        "label": "mapping(uint256 => uint256)",
        "numberOfBytes": "32",
        "value": "t_uint256"
      },
      "t_string_storage": {
        "encoding": "bytes",
        "label": "string",
        "numberOfBytes": "32"
      },
      "t_struct(Counter)2124_storage": {
        "encoding": "inplace",
        "label": "struct CountersUpgradeable.Counter",
        "members": [
          {
            "astId": 2123,
            "contract": "src/BeMetaPlace.sol:BeMetaPlace",
            "label": "_value",
            "offset": 0,
            "slot": "0",
            "type": "t_uint256"
          }
        ],
        "numberOfBytes": "32"
      },
      "t_uint256": {
        "encoding": "inplace",
        "label": "uint256",
        "numberOfBytes": "32"
      }
    }
  }
}