{
  "address": "0xDcD97a5f2C332758db96510941b4DBDBc72546E1",
  "abi": [
    {
      "anonymous": false,
      "inputs": [
        {
          "indexed": false,
          "internalType": "address",
          "name": "admin",
          "type": "address"
        },
        {
          "indexed": false,
          "internalType": "bool",
          "name": "enabled",
          "type": "bool"
        }
      ],
      "name": "AdminAccessSet",
      "type": "event"
    },
    {
      "anonymous": false,
      "inputs": [
        {
          "indexed": true,
          "internalType": "address",
          "name": "owner",
          "type": "address"
        },
        {
          "indexed": true,
          "internalType": "address",
          "name": "approved",
          "type": "address"
        },
        {
          "indexed": true,
          "internalType": "uint256",
          "name": "tokenId",
          "type": "uint256"
        }
      ],
      "name": "Approval",
      "type": "event"
    },
    {
      "anonymous": false,
      "inputs": [
        {
          "indexed": true,
          "internalType": "address",
          "name": "owner",
          "type": "address"
        },
        {
          "indexed": true,
          "internalType": "address",
          "name": "operator",
          "type": "address"
        },
        {
          "indexed": false,
          "internalType": "bool",
          "name": "approved",
          "type": "bool"
        }
      ],
      "name": "ApprovalForAll",
      "type": "event"
    },
    {
      "anonymous": false,
      "inputs": [
        {
          "indexed": true,
          "internalType": "address",
          "name": "previousOwner",
          "type": "address"
        },
        {
          "indexed": true,
          "internalType": "address",
          "name": "newOwner",
          "type": "address"
        }
      ],
      "name": "OwnershipTransferred",
      "type": "event"
    },
    {
      "anonymous": false,
      "inputs": [
        {
          "indexed": true,
          "internalType": "address",
          "name": "from",
          "type": "address"
        },
        {
          "indexed": true,
          "internalType": "address",
          "name": "to",
          "type": "address"
        },
        {
          "indexed": true,
          "internalType": "uint256",
          "name": "tokenId",
          "type": "uint256"
        }
      ],
      "name": "Transfer",
      "type": "event"
    },
    {
      "inputs": [
        {
          "internalType": "address",
          "name": "to",
          "type": "address"
        },
        {
          "internalType": "uint256",
          "name": "tokenId",
          "type": "uint256"
        }
      ],
      "name": "approve",
      "outputs": [],
      "stateMutability": "nonpayable",
      "type": "function"
    },
    {
      "inputs": [
        {
          "internalType": "address",
          "name": "owner",
          "type": "address"
        }
      ],
      "name": "balanceOf",
      "outputs": [
        {
          "internalType": "uint256",
          "name": "",
          "type": "uint256"
        }
      ],
      "stateMutability": "view",
      "type": "function"
    },
    {
      "inputs": [
        {
          "internalType": "uint256",
          "name": "tokenId",
          "type": "uint256"
        }
      ],
      "name": "getApproved",
      "outputs": [
        {
          "internalType": "address",
          "name": "",
          "type": "address"
        }
      ],
      "stateMutability": "view",
      "type": "function"
    },
    {
      "inputs": [
        {
          "internalType": "string",
          "name": "name_",
          "type": "string"
        },
        {
          "internalType": "string",
          "name": "symbol_",
          "type": "string"
        }
      ],
      "name": "initialize",
      "outputs": [],
      "stateMutability": "nonpayable",
      "type": "function"
    },
    {
      "inputs": [
        {
          "internalType": "address",
          "name": "admin",
          "type": "address"
        }
      ],
      "name": "isAdmin",
      "outputs": [
        {
          "internalType": "bool",
          "name": "",
          "type": "bool"
        }
      ],
      "stateMutability": "view",
      "type": "function"
    },
    {
      "inputs": [
        {
          "internalType": "address",
          "name": "owner",
          "type": "address"
        },
        {
          "internalType": "address",
          "name": "operator",
          "type": "address"
        }
      ],
      "name": "isApprovedForAll",
      "outputs": [
        {
          "internalType": "bool",
          "name": "",
          "type": "bool"
        }
      ],
      "stateMutability": "view",
      "type": "function"
    },
    {
      "inputs": [
        {
          "internalType": "address",
          "name": "forwarder",
          "type": "address"
        }
      ],
      "name": "isTrustedForwarder",
      "outputs": [
        {
          "internalType": "bool",
          "name": "",
          "type": "bool"
        }
      ],
      "stateMutability": "view",
      "type": "function"
    },
    {
      "inputs": [
        {
          "internalType": "address",
          "name": "to_",
          "type": "address"
        },
        {
          "internalType": "string",
          "name": "tokenURI_",
          "type": "string"
        }
      ],
      "name": "mint",
      "outputs": [
        {
          "internalType": "uint256",
          "name": "_tokenId",
          "type": "uint256"
        }
      ],
      "stateMutability": "nonpayable",
      "type": "function"
    },
    {
      "inputs": [],
      "name": "name",
      "outputs": [
        {
          "internalType": "string",
          "name": "",
          "type": "string"
        }
      ],
      "stateMutability": "view",
      "type": "function"
    },
    {
      "inputs": [],
      "name": "owner",
      "outputs": [
        {
          "internalType": "address",
          "name": "",
          "type": "address"
        }
      ],
      "stateMutability": "view",
      "type": "function"
    },
    {
      "inputs": [
        {
          "internalType": "uint256",
          "name": "tokenId",
          "type": "uint256"
        }
      ],
      "name": "ownerOf",
      "outputs": [
        {
          "internalType": "address",
          "name": "",
          "type": "address"
        }
      ],
      "stateMutability": "view",
      "type": "function"
    },
    {
      "inputs": [],
      "name": "renounceOwnership",
      "outputs": [],
      "stateMutability": "nonpayable",
      "type": "function"
    },
    {
      "inputs": [
        {
          "internalType": "address",
          "name": "from",
          "type": "address"
        },
        {
          "internalType": "address",
          "name": "to",
          "type": "address"
        },
        {
          "internalType": "uint256",
          "name": "tokenId",
          "type": "uint256"
        }
      ],
      "name": "safeTransferFrom",
      "outputs": [],
      "stateMutability": "nonpayable",
      "type": "function"
    },
    {
      "inputs": [
        {
          "internalType": "address",
          "name": "from",
          "type": "address"
        },
        {
          "internalType": "address",
          "name": "to",
          "type": "address"
        },
        {
          "internalType": "uint256",
          "name": "tokenId",
          "type": "uint256"
        },
        {
          "internalType": "bytes",
          "name": "_data",
          "type": "bytes"
        }
      ],
      "name": "safeTransferFrom",
      "outputs": [],
      "stateMutability": "nonpayable",
      "type": "function"
    },
    {
      "inputs": [
        {
          "internalType": "address",
          "name": "admin",
          "type": "address"
        },
        {
          "internalType": "bool",
          "name": "enabled",
          "type": "bool"
        }
      ],
      "name": "setAdminAccess",
      "outputs": [],
      "stateMutability": "nonpayable",
      "type": "function"
    },
    {
      "inputs": [
        {
          "internalType": "address",
          "name": "operator",
          "type": "address"
        },
        {
          "internalType": "bool",
          "name": "approved",
          "type": "bool"
        }
      ],
      "name": "setApprovalForAll",
      "outputs": [],
      "stateMutability": "nonpayable",
      "type": "function"
    },
    {
      "inputs": [
        {
          "internalType": "string",
          "name": "base_name",
          "type": "string"
        }
      ],
      "name": "setBase",
      "outputs": [],
      "stateMutability": "nonpayable",
      "type": "function"
    },
    {
      "inputs": [
        {
          "internalType": "uint256",
          "name": "tokenId",
          "type": "uint256"
        },
        {
          "internalType": "string",
          "name": "_tokenURI",
          "type": "string"
        }
      ],
      "name": "setTokenURI",
      "outputs": [],
      "stateMutability": "nonpayable",
      "type": "function"
    },
    {
      "inputs": [
        {
          "internalType": "bytes4",
          "name": "interfaceId",
          "type": "bytes4"
        }
      ],
      "name": "supportsInterface",
      "outputs": [
        {
          "internalType": "bool",
          "name": "",
          "type": "bool"
        }
      ],
      "stateMutability": "view",
      "type": "function"
    },
    {
      "inputs": [],
      "name": "symbol",
      "outputs": [
        {
          "internalType": "string",
          "name": "",
          "type": "string"
        }
      ],
      "stateMutability": "view",
      "type": "function"
    },
    {
      "inputs": [
        {
          "internalType": "uint256",
          "name": "index",
          "type": "uint256"
        }
      ],
      "name": "tokenByIndex",
      "outputs": [
        {
          "internalType": "uint256",
          "name": "",
          "type": "uint256"
        }
      ],
      "stateMutability": "view",
      "type": "function"
    },
    {
      "inputs": [
        {
          "internalType": "address",
          "name": "owner",
          "type": "address"
        },
        {
          "internalType": "uint256",
          "name": "index",
          "type": "uint256"
        }
      ],
      "name": "tokenOfOwnerByIndex",
      "outputs": [
        {
          "internalType": "uint256",
          "name": "",
          "type": "uint256"
        }
      ],
      "stateMutability": "view",
      "type": "function"
    },
    {
      "inputs": [
        {
          "internalType": "uint256",
          "name": "tokenId",
          "type": "uint256"
        }
      ],
      "name": "tokenURI",
      "outputs": [
        {
          "internalType": "string",
          "name": "_tokenURI",
          "type": "string"
        }
      ],
      "stateMutability": "view",
      "type": "function"
    },
    {
      "inputs": [],
      "name": "totalSupply",
      "outputs": [
        {
          "internalType": "uint256",
          "name": "",
          "type": "uint256"
        }
      ],
      "stateMutability": "view",
      "type": "function"
    },
    {
      "inputs": [
        {
          "internalType": "address",
          "name": "from",
          "type": "address"
        },
        {
          "internalType": "address",
          "name": "to",
          "type": "address"
        },
        {
          "internalType": "uint256",
          "name": "tokenId",
          "type": "uint256"
        }
      ],
      "name": "transferFrom",
      "outputs": [],
      "stateMutability": "nonpayable",
      "type": "function"
    },
    {
      "inputs": [
        {
          "internalType": "address",
          "name": "newOwner",
          "type": "address"
        }
      ],
      "name": "transferOwnership",
      "outputs": [],
      "stateMutability": "nonpayable",
      "type": "function"
    },
    {
      "inputs": [],
      "name": "trustedForwarder",
      "outputs": [
        {
          "internalType": "address",
          "name": "",
          "type": "address"
        }
      ],
      "stateMutability": "view",
      "type": "function"
    }
  ],
  "transactionHash": "0x166072cb49523fd75f5e0399183b05bfb60fbbb8dc751152c2d4e796f0c494c6",
  "args": [],
  "numDeployments": 1,
  "solcInputHash": "8e9a114e5a1d18dcebc2fcdeee0e8d54",
  "bytecode": "0x608060405234801561001057600080fd5b50612328806100206000396000f3fe608060405234801561001057600080fd5b50600436106101a95760003560e01c80636352211e116100f9578063a22cb46511610097578063d0def52111610071578063d0def5211461038c578063e985e9c51461039f578063f2fde38b146103db578063f65a0b3e146103ee57600080fd5b8063a22cb46514610353578063b88d4fde14610366578063c87b56dd1461037957600080fd5b8063715018a6116100d3578063715018a61461031e5780637da0a877146103265780638da5cb5b1461033a57806395d89b411461034b57600080fd5b80636352211e146102e5578063664aa26b146102f857806370a082311461030b57600080fd5b806323b872dd1161016657806342842e0e1161014057806342842e0e146102895780634cd88b761461029c5780634f6ccce7146102af578063572b6c05146102c257600080fd5b806323b872dd1461025057806324d7806c146102635780632f745c591461027657600080fd5b806301ffc9a7146101ae57806306fdde03146101d6578063081812fc146101eb578063095ea7b314610216578063162094c41461022b57806318160ddd1461023e575b600080fd5b6101c16101bc366004611e87565b610401565b60405190151581526020015b60405180910390f35b6101de610430565b6040516101cd9190612032565b6101fe6101f9366004611f50565b6104c2565b6040516001600160a01b0390911681526020016101cd565b610229610224366004611e5d565b61054f565b005b610229610239366004611f69565b610677565b60cb545b6040519081526020016101cd565b61022961025e366004611d1b565b6106ac565b6101c1610271366004611ccd565b6106e4565b610242610284366004611e5d565b61071c565b610229610297366004611d1b565b6107b2565b6102296102aa366004611ef6565b6107cd565b6102426102bd366004611f50565b6108a1565b6101c16102d0366004611ccd565b61012d546001600160a01b0391821691161490565b6101fe6102f3366004611f50565b610934565b610229610306366004611ec1565b6109ab565b610242610319366004611ccd565b6109e6565b610229610a6d565b61012d546101fe906001600160a01b031681565b60fb546001600160a01b03166101fe565b6101de610ac2565b610229610361366004611dd3565b610ad1565b610229610374366004611d57565b610ae3565b6101de610387366004611f50565b610b22565b61024261039a366004611e0f565b610b2d565b6101c16103ad366004611ce8565b6001600160a01b039182166000908152606a6020908152604080832093909416825291909152205460ff1690565b6102296103e9366004611ccd565b610b7e565b6102296103fc366004611dd3565b610c38565b600061040c82610ce5565b8061041b575061041b82610d06565b8061042a575061042a82610ce5565b92915050565b60606065805461043f90612204565b80601f016020809104026020016040519081016040528092919081815260200182805461046b90612204565b80156104b85780601f1061048d576101008083540402835291602001916104b8565b820191906000526020600020905b81548152906001019060200180831161049b57829003601f168201915b5050505050905090565b60006104cd82610d56565b6105335760405162461bcd60e51b815260206004820152602c60248201527f4552433732313a20617070726f76656420717565727920666f72206e6f6e657860448201526b34b9ba32b73a103a37b5b2b760a11b60648201526084015b60405180910390fd5b506000908152606960205260409020546001600160a01b031690565b600061055a82610934565b9050806001600160a01b0316836001600160a01b031614156105c85760405162461bcd60e51b815260206004820152602160248201527f4552433732313a20617070726f76616c20746f2063757272656e74206f776e656044820152603960f91b606482015260840161052a565b806001600160a01b03166105da610d73565b6001600160a01b031614806105f657506105f6816103ad610d73565b6106685760405162461bcd60e51b815260206004820152603860248201527f4552433732313a20617070726f76652063616c6c6572206973206e6f74206f7760448201527f6e6572206e6f7220617070726f76656420666f7220616c6c0000000000000000606482015260840161052a565b6106728383610d82565b505050565b610682610271610d73565b61069e5760405162461bcd60e51b815260040161052a906120cc565b6106a88282610df0565b5050565b6106bd6106b7610d73565b82610e7b565b6106d95760405162461bcd60e51b815260040161052a906120f9565b610672838383610f65565b6001600160a01b038116600090815261012e602052604081205460ff168061042a57505060fb546001600160a01b0391821691161490565b6000610727836109e6565b82106107895760405162461bcd60e51b815260206004820152602b60248201527f455243373231456e756d657261626c653a206f776e657220696e646578206f7560448201526a74206f6620626f756e647360a81b606482015260840161052a565b506001600160a01b0391909116600090815260c960209081526040808320938352929052205490565b61067283838360405180602001604052806000815250610ae3565b600054610100900460ff166107e85760005460ff16156107ec565b303b155b61084f5760405162461bcd60e51b815260206004820152602e60248201527f496e697469616c697a61626c653a20636f6e747261637420697320616c72656160448201526d191e481a5b9a5d1a585b1a5e995960921b606482015260840161052a565b600054610100900460ff16158015610871576000805461ffff19166101011790555b61087961110c565b6108838383611133565b61088b611164565b8015610672576000805461ff0019169055505050565b60006108ac60cb5490565b821061090f5760405162461bcd60e51b815260206004820152602c60248201527f455243373231456e756d657261626c653a20676c6f62616c20696e646578206f60448201526b7574206f6620626f756e647360a01b606482015260840161052a565b60cb8281548110610922576109226122b0565b90600052602060002001549050919050565b6000818152606760205260408120546001600160a01b03168061042a5760405162461bcd60e51b815260206004820152602960248201527f4552433732313a206f776e657220717565727920666f72206e6f6e657869737460448201526832b73a103a37b5b2b760b91b606482015260840161052a565b6109b6610271610d73565b6109d25760405162461bcd60e51b815260040161052a906120cc565b80516106a890610130906020840190611b82565b60006001600160a01b038216610a515760405162461bcd60e51b815260206004820152602a60248201527f4552433732313a2062616c616e636520717565727920666f7220746865207a65604482015269726f206164647265737360b01b606482015260840161052a565b506001600160a01b031660009081526068602052604090205490565b610a75610d73565b6001600160a01b0316610a9060fb546001600160a01b031690565b6001600160a01b031614610ab65760405162461bcd60e51b815260040161052a90612097565b610ac06000611193565b565b60606066805461043f90612204565b6106a8610adc610d73565b83836111e5565b610af4610aee610d73565b83610e7b565b610b105760405162461bcd60e51b815260040161052a906120f9565b610b1c848484846112b4565b50505050565b606061042a826112e7565b6000610b3a610271610d73565b610b565760405162461bcd60e51b815260040161052a906120cc565b610b6561012f80546001019055565b5061012f54610b748382611449565b61042a8183610df0565b610b86610d73565b6001600160a01b0316610ba160fb546001600160a01b031690565b6001600160a01b031614610bc75760405162461bcd60e51b815260040161052a90612097565b6001600160a01b038116610c2c5760405162461bcd60e51b815260206004820152602660248201527f4f776e61626c653a206e6577206f776e657220697320746865207a65726f206160448201526564647265737360d01b606482015260840161052a565b610c3581611193565b50565b610c40610d73565b6001600160a01b0316610c5b60fb546001600160a01b031690565b6001600160a01b031614610c815760405162461bcd60e51b815260040161052a90612097565b6001600160a01b038216600081815261012e6020908152604091829020805460ff19168515159081179091558251938452908301527fe529461c8529abc0e0fe7c5ee361f74fe22e0b7574df1fc0b7558a282091fb78910160405180910390a15050565b60006001600160e01b0319821663780e9d6360e01b148061042a575061042a825b60006001600160e01b031982166380ac58cd60e01b1480610d3757506001600160e01b03198216635b5e139f60e01b145b8061042a57506301ffc9a760e01b6001600160e01b031983161461042a565b6000908152606760205260409020546001600160a01b0316151590565b6000610d7d611588565b905090565b600081815260696020526040902080546001600160a01b0319166001600160a01b0384169081179091558190610db782610934565b6001600160a01b03167f8c5be1e5ebec7d5bd14f71427d1e84f3dd0314c0f7b2291e5b200ac8c7c3b92560405160405180910390a45050565b610df982610d56565b610e5c5760405162461bcd60e51b815260206004820152602e60248201527f45524337323155524953746f726167653a2055524920736574206f66206e6f6e60448201526d32bc34b9ba32b73a103a37b5b2b760911b606482015260840161052a565b6000828152609760209081526040909120825161067292840190611b82565b6000610e8682610d56565b610ee75760405162461bcd60e51b815260206004820152602c60248201527f4552433732313a206f70657261746f7220717565727920666f72206e6f6e657860448201526b34b9ba32b73a103a37b5b2b760a11b606482015260840161052a565b6000610ef283610934565b9050806001600160a01b0316846001600160a01b03161480610f2d5750836001600160a01b0316610f22846104c2565b6001600160a01b0316145b80610f5d57506001600160a01b038082166000908152606a602090815260408083209388168352929052205460ff165b949350505050565b826001600160a01b0316610f7882610934565b6001600160a01b031614610fdc5760405162461bcd60e51b815260206004820152602560248201527f4552433732313a207472616e736665722066726f6d20696e636f72726563742060448201526437bbb732b960d91b606482015260840161052a565b6001600160a01b03821661103e5760405162461bcd60e51b8152602060048201526024808201527f4552433732313a207472616e7366657220746f20746865207a65726f206164646044820152637265737360e01b606482015260840161052a565b6110498383836115bd565b611054600082610d82565b6001600160a01b038316600090815260686020526040812080546001929061107d9084906121c1565b90915550506001600160a01b03821660009081526068602052604081208054600192906110ab908490612195565b909155505060008181526067602052604080822080546001600160a01b0319166001600160a01b0386811691821790925591518493918716917fddf252ad1be2c89b69c2b068fc378daa952ba7f163c4a11628f55a4df523b3ef91a4505050565b600054610100900460ff16610ac05760405162461bcd60e51b815260040161052a9061214a565b600054610100900460ff1661115a5760405162461bcd60e51b815260040161052a9061214a565b6106a882826115c8565b600054610100900460ff1661118b5760405162461bcd60e51b815260040161052a9061214a565b610ac0611616565b60fb80546001600160a01b038381166001600160a01b0319831681179093556040519116919082907f8be0079c531659141344cd1fd0a4f28419497f9722a3daafe3b4186f6b6457e090600090a35050565b816001600160a01b0316836001600160a01b031614156112475760405162461bcd60e51b815260206004820152601960248201527f4552433732313a20617070726f766520746f2063616c6c657200000000000000604482015260640161052a565b6001600160a01b038381166000818152606a6020908152604080832094871680845294825291829020805460ff191686151590811790915591519182527f17307eab39ab6107e8899845ad3d59bd9653f200f220920489ca2b5937696c31910160405180910390a3505050565b6112bf848484610f65565b6112cb8484848461164d565b610b1c5760405162461bcd60e51b815260040161052a90612045565b60606112f282610d56565b6113585760405162461bcd60e51b815260206004820152603160248201527f45524337323155524953746f726167653a2055524920717565727920666f72206044820152703737b732bc34b9ba32b73a103a37b5b2b760791b606482015260840161052a565b6000828152609760205260408120805461137190612204565b80601f016020809104026020016040519081016040528092919081815260200182805461139d90612204565b80156113ea5780601f106113bf576101008083540402835291602001916113ea565b820191906000526020600020905b8154815290600101906020018083116113cd57829003601f168201915b5050505050905060006113fb611761565b905080516000141561140e575092915050565b815115611440578082604051602001611428929190611fc6565b60405160208183030381529060405292505050919050565b610f5d84611771565b6001600160a01b03821661149f5760405162461bcd60e51b815260206004820181905260248201527f4552433732313a206d696e7420746f20746865207a65726f2061646472657373604482015260640161052a565b6114a881610d56565b156114f55760405162461bcd60e51b815260206004820152601c60248201527f4552433732313a20746f6b656e20616c7265616479206d696e74656400000000604482015260640161052a565b611501600083836115bd565b6001600160a01b038216600090815260686020526040812080546001929061152a908490612195565b909155505060008181526067602052604080822080546001600160a01b0319166001600160a01b03861690811790915590518392907fddf252ad1be2c89b69c2b068fc378daa952ba7f163c4a11628f55a4df523b3ef908290a45050565b6000601836108015906115a6575061012d546001600160a01b031633145b156115b8575060131936013560601c90565b503390565b61067283838361183c565b600054610100900460ff166115ef5760405162461bcd60e51b815260040161052a9061214a565b8151611602906065906020850190611b82565b508051610672906066906020840190611b82565b600054610100900460ff1661163d5760405162461bcd60e51b815260040161052a9061214a565b610ac0611648610d73565b611193565b60006001600160a01b0384163b1561175657836001600160a01b031663150b7a02611676610d73565b8786866040518563ffffffff1660e01b81526004016116989493929190611ff5565b602060405180830381600087803b1580156116b257600080fd5b505af19250505080156116e2575060408051601f3d908101601f191682019092526116df91810190611ea4565b60015b61173c573d808015611710576040519150601f19603f3d011682016040523d82523d6000602084013e611715565b606091505b5080516117345760405162461bcd60e51b815260040161052a90612045565b805181602001fd5b6001600160e01b031916630a85bd0160e11b149050610f5d565b506001949350505050565b6060610130805461043f90612204565b606061177c82610d56565b6117e05760405162461bcd60e51b815260206004820152602f60248201527f4552433732314d657461646174613a2055524920717565727920666f72206e6f60448201526e3732bc34b9ba32b73a103a37b5b2b760891b606482015260840161052a565b60006117ea611761565b9050600081511161180a5760405180602001604052806000815250611835565b80611814846118f4565b604051602001611825929190611fc6565b6040516020818303038152906040525b9392505050565b6001600160a01b038316611897576118928160cb8054600083815260cc60205260408120829055600182018355919091527fa7ce836d032b2bf62b7e2097a8e0a6d8aeb35405ad15271e96d3b0188a1d06fb0155565b6118ba565b816001600160a01b0316836001600160a01b0316146118ba576118ba83826119f2565b6001600160a01b0382166118d15761067281611a8f565b826001600160a01b0316826001600160a01b031614610672576106728282611b3e565b6060816119185750506040805180820190915260018152600360fc1b602082015290565b8160005b8115611942578061192c8161223f565b915061193b9050600a836121ad565b915061191c565b60008167ffffffffffffffff81111561195d5761195d6122c6565b6040519080825280601f01601f191660200182016040528015611987576020820181803683370190505b5090505b8415610f5d5761199c6001836121c1565b91506119a9600a8661225a565b6119b4906030612195565b60f81b8183815181106119c9576119c96122b0565b60200101906001600160f81b031916908160001a9053506119eb600a866121ad565b945061198b565b600060016119ff846109e6565b611a0991906121c1565b600083815260ca6020526040902054909150808214611a5c576001600160a01b038416600090815260c960209081526040808320858452825280832054848452818420819055835260ca90915290208190555b50600091825260ca602090815260408084208490556001600160a01b03909416835260c981528383209183525290812055565b60cb54600090611aa1906001906121c1565b600083815260cc602052604081205460cb8054939450909284908110611ac957611ac96122b0565b906000526020600020015490508060cb8381548110611aea57611aea6122b0565b600091825260208083209091019290925582815260cc909152604080822084905585825281205560cb805480611b2257611b2261229a565b6001900381819060005260206000200160009055905550505050565b6000611b49836109e6565b6001600160a01b03909316600090815260c960209081526040808320868452825280832085905593825260ca9052919091209190915550565b828054611b8e90612204565b90600052602060002090601f016020900481019282611bb05760008555611bf6565b82601f10611bc957805160ff1916838001178555611bf6565b82800160010185558215611bf6579182015b82811115611bf6578251825591602001919060010190611bdb565b50611c02929150611c06565b5090565b5b80821115611c025760008155600101611c07565b600067ffffffffffffffff80841115611c3657611c366122c6565b604051601f8501601f19908116603f01168101908282118183101715611c5e57611c5e6122c6565b81604052809350858152868686011115611c7757600080fd5b858560208301376000602087830101525050509392505050565b80356001600160a01b0381168114611ca857600080fd5b919050565b600082601f830112611cbe57600080fd5b61183583833560208501611c1b565b600060208284031215611cdf57600080fd5b61183582611c91565b60008060408385031215611cfb57600080fd5b611d0483611c91565b9150611d1260208401611c91565b90509250929050565b600080600060608486031215611d3057600080fd5b611d3984611c91565b9250611d4760208501611c91565b9150604084013590509250925092565b60008060008060808587031215611d6d57600080fd5b611d7685611c91565b9350611d8460208601611c91565b925060408501359150606085013567ffffffffffffffff811115611da757600080fd5b8501601f81018713611db857600080fd5b611dc787823560208401611c1b565b91505092959194509250565b60008060408385031215611de657600080fd5b611def83611c91565b915060208301358015158114611e0457600080fd5b809150509250929050565b60008060408385031215611e2257600080fd5b611e2b83611c91565b9150602083013567ffffffffffffffff811115611e4757600080fd5b611e5385828601611cad565b9150509250929050565b60008060408385031215611e7057600080fd5b611e7983611c91565b946020939093013593505050565b600060208284031215611e9957600080fd5b8135611835816122dc565b600060208284031215611eb657600080fd5b8151611835816122dc565b600060208284031215611ed357600080fd5b813567ffffffffffffffff811115611eea57600080fd5b610f5d84828501611cad565b60008060408385031215611f0957600080fd5b823567ffffffffffffffff80821115611f2157600080fd5b611f2d86838701611cad565b93506020850135915080821115611f4357600080fd5b50611e5385828601611cad565b600060208284031215611f6257600080fd5b5035919050565b60008060408385031215611f7c57600080fd5b82359150602083013567ffffffffffffffff811115611e4757600080fd5b60008151808452611fb28160208601602086016121d8565b601f01601f19169290920160200192915050565b60008351611fd88184602088016121d8565b835190830190611fec8183602088016121d8565b01949350505050565b6001600160a01b038581168252841660208201526040810183905260806060820181905260009061202890830184611f9a565b9695505050505050565b6020815260006118356020830184611f9a565b60208082526032908201527f4552433732313a207472616e7366657220746f206e6f6e20455243373231526560408201527131b2b4bb32b91034b6b83632b6b2b73a32b960711b606082015260800190565b6020808252818101527f4f776e61626c653a2063616c6c6572206973206e6f7420746865206f776e6572604082015260600190565b60208082526013908201527221b0b63632b91034b9903737ba1030b236b4b760691b604082015260600190565b60208082526031908201527f4552433732313a207472616e736665722063616c6c6572206973206e6f74206f6040820152701ddb995c881b9bdc88185c1c1c9bdd9959607a1b606082015260800190565b6020808252602b908201527f496e697469616c697a61626c653a20636f6e7472616374206973206e6f74206960408201526a6e697469616c697a696e6760a81b606082015260800190565b600082198211156121a8576121a861226e565b500190565b6000826121bc576121bc612284565b500490565b6000828210156121d3576121d361226e565b500390565b60005b838110156121f35781810151838201526020016121db565b83811115610b1c5750506000910152565b600181811c9082168061221857607f821691505b6020821081141561223957634e487b7160e01b600052602260045260246000fd5b50919050565b60006000198214156122535761225361226e565b5060010190565b60008261226957612269612284565b500690565b634e487b7160e01b600052601160045260246000fd5b634e487b7160e01b600052601260045260246000fd5b634e487b7160e01b600052603160045260246000fd5b634e487b7160e01b600052603260045260246000fd5b634e487b7160e01b600052604160045260246000fd5b6001600160e01b031981168114610c3557600080fdfea264697066735822122059685740c0f0d47acc7f5f3199094f81bd7cbc7c1884bc94ae030c564699f1a164736f6c63430008060033",
  "devdoc": {
    "kind": "dev",
    "methods": {
      "approve(address,uint256)": {
        "details": "See {IERC721-approve}."
      },
      "balanceOf(address)": {
        "details": "See {IERC721-balanceOf}."
      },
      "getApproved(uint256)": {
        "details": "See {IERC721-getApproved}."
      },
      "isApprovedForAll(address,address)": {
        "details": "See {IERC721-isApprovedForAll}."
      },
      "name()": {
        "details": "See {IERC721Metadata-name}."
      },
      "owner()": {
        "details": "Returns the address of the current owner."
      },
      "ownerOf(uint256)": {
        "details": "See {IERC721-ownerOf}."
      },
      "renounceOwnership()": {
        "details": "Leaves the contract without owner. It will not be possible to call `onlyOwner` functions anymore. Can only be called by the current owner. NOTE: Renouncing ownership will leave the contract without an owner, thereby removing any functionality that is only available to the owner."
      },
      "safeTransferFrom(address,address,uint256)": {
        "details": "See {IERC721-safeTransferFrom}."
      },
      "safeTransferFrom(address,address,uint256,bytes)": {
        "details": "See {IERC721-safeTransferFrom}."
      },
      "setApprovalForAll(address,bool)": {
        "details": "See {IERC721-setApprovalForAll}."
      },
      "symbol()": {
        "details": "See {IERC721Metadata-symbol}."
      },
      "tokenByIndex(uint256)": {
        "details": "See {IERC721Enumerable-tokenByIndex}."
      },
      "tokenOfOwnerByIndex(address,uint256)": {
        "details": "See {IERC721Enumerable-tokenOfOwnerByIndex}."
      },
      "totalSupply()": {
        "details": "See {IERC721Enumerable-totalSupply}."
      },
      "transferFrom(address,address,uint256)": {
        "details": "See {IERC721-transferFrom}."
      },
      "transferOwnership(address)": {
        "details": "Transfers ownership of the contract to a new account (`newOwner`). Can only be called by the current owner."
      }
    },
    "version": 1
  },
  "userdoc": {
    "kind": "user",
    "methods": {},
    "version": 1
  },
  "storageLayout": {
    "storage": [
      {
        "astId": 130,
        "contract": "src/BeMetaPlace.sol:BeMetaPlace",
        "label": "_initialized",
        "offset": 0,
        "slot": "0",
        "type": "t_bool"
      },
      {
        "astId": 133,
        "contract": "src/BeMetaPlace.sol:BeMetaPlace",
        "label": "_initializing",
        "offset": 1,
        "slot": "0",
        "type": "t_bool"
      },
      {
        "astId": 2892,
        "contract": "src/BeMetaPlace.sol:BeMetaPlace",
        "label": "__gap",
        "offset": 0,
        "slot": "1",
        "type": "t_array(t_uint256)50_storage"
      },
      {
        "astId": 3213,
        "contract": "src/BeMetaPlace.sol:BeMetaPlace",
        "label": "__gap",
        "offset": 0,
        "slot": "51",
        "type": "t_array(t_uint256)50_storage"
      },
      {
        "astId": 1001,
        "contract": "src/BeMetaPlace.sol:BeMetaPlace",
        "label": "_name",
        "offset": 0,
        "slot": "101",
        "type": "t_string_storage"
      },
      {
        "astId": 1003,
        "contract": "src/BeMetaPlace.sol:BeMetaPlace",
        "label": "_symbol",
        "offset": 0,
        "slot": "102",
        "type": "t_string_storage"
      },
      {
        "astId": 1007,
        "contract": "src/BeMetaPlace.sol:BeMetaPlace",
        "label": "_owners",
        "offset": 0,
        "slot": "103",
        "type": "t_mapping(t_uint256,t_address)"
      },
      {
        "astId": 1011,
        "contract": "src/BeMetaPlace.sol:BeMetaPlace",
        "label": "_balances",
        "offset": 0,
        "slot": "104",
        "type": "t_mapping(t_address,t_uint256)"
      },
      {
        "astId": 1015,
        "contract": "src/BeMetaPlace.sol:BeMetaPlace",
        "label": "_tokenApprovals",
        "offset": 0,
        "slot": "105",
        "type": "t_mapping(t_uint256,t_address)"
      },
      {
        "astId": 1021,
        "contract": "src/BeMetaPlace.sol:BeMetaPlace",
        "label": "_operatorApprovals",
        "offset": 0,
        "slot": "106",
        "type": "t_mapping(t_address,t_mapping(t_address,t_bool))"
      },
      {
        "astId": 1862,
        "contract": "src/BeMetaPlace.sol:BeMetaPlace",
        "label": "__gap",
        "offset": 0,
        "slot": "107",
        "type": "t_array(t_uint256)44_storage"
      },
      {
        "astId": 2383,
        "contract": "src/BeMetaPlace.sol:BeMetaPlace",
        "label": "_tokenURIs",
        "offset": 0,
        "slot": "151",
        "type": "t_mapping(t_uint256,t_string_storage)"
      },
      {
        "astId": 2502,
        "contract": "src/BeMetaPlace.sol:BeMetaPlace",
        "label": "__gap",
        "offset": 0,
        "slot": "152",
        "type": "t_array(t_uint256)49_storage"
      },
      {
        "astId": 2027,
        "contract": "src/BeMetaPlace.sol:BeMetaPlace",
        "label": "_ownedTokens",
        "offset": 0,
        "slot": "201",
        "type": "t_mapping(t_address,t_mapping(t_uint256,t_uint256))"
      },
      {
        "astId": 2031,
        "contract": "src/BeMetaPlace.sol:BeMetaPlace",
        "label": "_ownedTokensIndex",
        "offset": 0,
        "slot": "202",
        "type": "t_mapping(t_uint256,t_uint256)"
      },
      {
        "astId": 2034,
        "contract": "src/BeMetaPlace.sol:BeMetaPlace",
        "label": "_allTokens",
        "offset": 0,
        "slot": "203",
        "type": "t_array(t_uint256)dyn_storage"
      },
      {
        "astId": 2038,
        "contract": "src/BeMetaPlace.sol:BeMetaPlace",
        "label": "_allTokensIndex",
        "offset": 0,
        "slot": "204",
        "type": "t_mapping(t_uint256,t_uint256)"
      },
      {
        "astId": 2354,
        "contract": "src/BeMetaPlace.sol:BeMetaPlace",
        "label": "__gap",
        "offset": 0,
        "slot": "205",
        "type": "t_array(t_uint256)46_storage"
      },
      {
        "astId": 10,
        "contract": "src/BeMetaPlace.sol:BeMetaPlace",
        "label": "_owner",
        "offset": 0,
        "slot": "251",
        "type": "t_address"
      },
      {
        "astId": 122,
        "contract": "src/BeMetaPlace.sol:BeMetaPlace",
        "label": "__gap",
        "offset": 0,
        "slot": "252",
        "type": "t_array(t_uint256)49_storage"
      },
      {
        "astId": 13718,
        "contract": "src/BeMetaPlace.sol:BeMetaPlace",
        "label": "trustedForwarder",
        "offset": 0,
        "slot": "301",
        "type": "t_address"
      },
      {
        "astId": 13494,
        "contract": "src/BeMetaPlace.sol:BeMetaPlace",
        "label": "_admins",
        "offset": 0,
        "slot": "302",
        "type": "t_mapping(t_address,t_bool)"
      },
      {
        "astId": 13893,
        "contract": "src/BeMetaPlace.sol:BeMetaPlace",
        "label": "_tokenCounters",
        "offset": 0,
        "slot": "303",
        "type": "t_struct(Counter)2899_storage"
      },
      {
        "astId": 13895,
        "contract": "src/BeMetaPlace.sol:BeMetaPlace",
        "label": "__baseName",
        "offset": 0,
        "slot": "304",
        "type": "t_string_storage"
      },
      {
        "astId": 14082,
        "contract": "src/BeMetaPlace.sol:BeMetaPlace",
        "label": "__gap",
        "offset": 0,
        "slot": "305",
        "type": "t_array(t_uint256)50_storage"
      }
    ],
    "types": {
      "t_address": {
        "encoding": "inplace",
        "label": "address",
        "numberOfBytes": "20"
      },
      "t_array(t_uint256)44_storage": {
        "base": "t_uint256",
        "encoding": "inplace",
        "label": "uint256[44]",
        "numberOfBytes": "1408"
      },
      "t_array(t_uint256)46_storage": {
        "base": "t_uint256",
        "encoding": "inplace",
        "label": "uint256[46]",
        "numberOfBytes": "1472"
      },
      "t_array(t_uint256)49_storage": {
        "base": "t_uint256",
        "encoding": "inplace",
        "label": "uint256[49]",
        "numberOfBytes": "1568"
      },
      "t_array(t_uint256)50_storage": {
        "base": "t_uint256",
        "encoding": "inplace",
        "label": "uint256[50]",
        "numberOfBytes": "1600"
      },
      "t_array(t_uint256)dyn_storage": {
        "base": "t_uint256",
        "encoding": "dynamic_array",
        "label": "uint256[]",
        "numberOfBytes": "32"
      },
      "t_bool": {
        "encoding": "inplace",
        "label": "bool",
        "numberOfBytes": "1"
      },
      "t_mapping(t_address,t_bool)": {
        "encoding": "mapping",
        "key": "t_address",
        "label": "mapping(address => bool)",
        "numberOfBytes": "32",
        "value": "t_bool"
      },
      "t_mapping(t_address,t_mapping(t_address,t_bool))": {
        "encoding": "mapping",
        "key": "t_address",
        "label": "mapping(address => mapping(address => bool))",
        "numberOfBytes": "32",
        "value": "t_mapping(t_address,t_bool)"
      },
      "t_mapping(t_address,t_mapping(t_uint256,t_uint256))": {
        "encoding": "mapping",
        "key": "t_address",
        "label": "mapping(address => mapping(uint256 => uint256))",
        "numberOfBytes": "32",
        "value": "t_mapping(t_uint256,t_uint256)"
      },
      "t_mapping(t_address,t_uint256)": {
        "encoding": "mapping",
        "key": "t_address",
        "label": "mapping(address => uint256)",
        "numberOfBytes": "32",
        "value": "t_uint256"
      },
      "t_mapping(t_uint256,t_address)": {
        "encoding": "mapping",
        "key": "t_uint256",
        "label": "mapping(uint256 => address)",
        "numberOfBytes": "32",
        "value": "t_address"
      },
      "t_mapping(t_uint256,t_string_storage)": {
        "encoding": "mapping",
        "key": "t_uint256",
        "label": "mapping(uint256 => string)",
        "numberOfBytes": "32",
        "value": "t_string_storage"
      },
      "t_mapping(t_uint256,t_uint256)": {
        "encoding": "mapping",
        "key": "t_uint256",
        "label": "mapping(uint256 => uint256)",
        "numberOfBytes": "32",
        "value": "t_uint256"
      },
      "t_string_storage": {
        "encoding": "bytes",
        "label": "string",
        "numberOfBytes": "32"
      },
      "t_struct(Counter)2899_storage": {
        "encoding": "inplace",
        "label": "struct CountersUpgradeable.Counter",
        "members": [
          {
            "astId": 2898,
            "contract": "src/BeMetaPlace.sol:BeMetaPlace",
            "label": "_value",
            "offset": 0,
            "slot": "0",
            "type": "t_uint256"
          }
        ],
        "numberOfBytes": "32"
      },
      "t_uint256": {
        "encoding": "inplace",
        "label": "uint256",
        "numberOfBytes": "32"
      }
    }
  }
}