{
  "address": "0xb189BBE55a88f306e3Fd90089eb6236BF40d2463",
  "abi": [
    {
      "anonymous": false,
      "inputs": [
        {
          "indexed": false,
          "internalType": "address",
          "name": "admin",
          "type": "address"
        },
        {
          "indexed": false,
          "internalType": "bool",
          "name": "enabled",
          "type": "bool"
        }
      ],
      "name": "AdminAccessSet",
      "type": "event"
    },
    {
      "anonymous": false,
      "inputs": [
        {
          "indexed": true,
          "internalType": "address",
          "name": "previousOwner",
          "type": "address"
        },
        {
          "indexed": true,
          "internalType": "address",
          "name": "newOwner",
          "type": "address"
        }
      ],
      "name": "OwnershipTransferred",
      "type": "event"
    },
    {
      "inputs": [
        {
          "internalType": "address",
          "name": "",
          "type": "address"
        }
      ],
      "name": "allowedERC20Tokens",
      "outputs": [
        {
          "internalType": "bool",
          "name": "",
          "type": "bool"
        }
      ],
      "stateMutability": "view",
      "type": "function"
    },
    {
      "inputs": [
        {
          "internalType": "uint256",
          "name": "_tokenId",
          "type": "uint256"
        }
      ],
      "name": "buy",
      "outputs": [],
      "stateMutability": "nonpayable",
      "type": "function"
    },
    {
      "inputs": [
        {
          "internalType": "string",
          "name": "_uri",
          "type": "string"
        },
        {
          "internalType": "address",
          "name": "tokenAddress",
          "type": "address"
        },
        {
          "internalType": "uint256",
          "name": "duration",
          "type": "uint256"
        },
        {
          "internalType": "uint256",
          "name": "price",
          "type": "uint256"
        }
      ],
      "name": "create",
      "outputs": [],
      "stateMutability": "nonpayable",
      "type": "function"
    },
    {
      "inputs": [
        {
          "internalType": "address",
          "name": "_nft721_address",
          "type": "address"
        }
      ],
      "name": "initialize",
      "outputs": [],
      "stateMutability": "nonpayable",
      "type": "function"
    },
    {
      "inputs": [
        {
          "internalType": "address",
          "name": "admin",
          "type": "address"
        }
      ],
      "name": "isAdmin",
      "outputs": [
        {
          "internalType": "bool",
          "name": "",
          "type": "bool"
        }
      ],
      "stateMutability": "view",
      "type": "function"
    },
    {
      "inputs": [
        {
          "internalType": "address",
          "name": "forwarder",
          "type": "address"
        }
      ],
      "name": "isTrustedForwarder",
      "outputs": [
        {
          "internalType": "bool",
          "name": "",
          "type": "bool"
        }
      ],
      "stateMutability": "view",
      "type": "function"
    },
    {
      "inputs": [
        {
          "internalType": "address",
          "name": "",
          "type": "address"
        },
        {
          "internalType": "uint256",
          "name": "",
          "type": "uint256"
        }
      ],
      "name": "listings",
      "outputs": [
        {
          "internalType": "uint256",
          "name": "",
          "type": "uint256"
        }
      ],
      "stateMutability": "view",
      "type": "function"
    },
    {
      "inputs": [
        {
          "internalType": "address",
          "name": "",
          "type": "address"
        },
        {
          "internalType": "address",
          "name": "",
          "type": "address"
        },
        {
          "internalType": "uint256",
          "name": "",
          "type": "uint256"
        },
        {
          "internalType": "bytes",
          "name": "",
          "type": "bytes"
        }
      ],
      "name": "onERC721Received",
      "outputs": [
        {
          "internalType": "bytes4",
          "name": "",
          "type": "bytes4"
        }
      ],
      "stateMutability": "nonpayable",
      "type": "function"
    },
    {
      "inputs": [],
      "name": "owner",
      "outputs": [
        {
          "internalType": "address",
          "name": "",
          "type": "address"
        }
      ],
      "stateMutability": "view",
      "type": "function"
    },
    {
      "inputs": [],
      "name": "renounceOwnership",
      "outputs": [],
      "stateMutability": "nonpayable",
      "type": "function"
    },
    {
      "inputs": [
        {
          "internalType": "uint256",
          "name": "",
          "type": "uint256"
        }
      ],
      "name": "sales",
      "outputs": [
        {
          "internalType": "uint256",
          "name": "price",
          "type": "uint256"
        },
        {
          "internalType": "uint256",
          "name": "startAt",
          "type": "uint256"
        },
        {
          "internalType": "uint256",
          "name": "endAt",
          "type": "uint256"
        },
        {
          "internalType": "address",
          "name": "tokenAddress",
          "type": "address"
        },
        {
          "internalType": "address",
          "name": "seller",
          "type": "address"
        },
        {
          "internalType": "uint256",
          "name": "listingIndex",
          "type": "uint256"
        }
      ],
      "stateMutability": "view",
      "type": "function"
    },
    {
      "inputs": [
        {
          "internalType": "address",
          "name": "admin",
          "type": "address"
        },
        {
          "internalType": "bool",
          "name": "enabled",
          "type": "bool"
        }
      ],
      "name": "setAdminAccess",
      "outputs": [],
      "stateMutability": "nonpayable",
      "type": "function"
    },
    {
      "inputs": [
        {
          "internalType": "address",
          "name": "newOwner",
          "type": "address"
        }
      ],
      "name": "transferOwnership",
      "outputs": [],
      "stateMutability": "nonpayable",
      "type": "function"
    },
    {
      "inputs": [],
      "name": "trustedForwarder",
      "outputs": [
        {
          "internalType": "address",
          "name": "",
          "type": "address"
        }
      ],
      "stateMutability": "view",
      "type": "function"
    }
  ],
  "transactionHash": "0x8acda3016773bc38e32a82c6422b742065cce63aa3817b2504a3c4539e2776fb",
  "args": [],
  "numDeployments": 1,
  "solcInputHash": "224e6372b8e14a856454548575543032",
  "bytecode": "0x608060405234801561001057600080fd5b506124cb806100206000396000f3fe608060405234801561001057600080fd5b50600436106100e95760003560e01c8063acb4ad8d1161008c578063d83408e211610066578063d83408e214610261578063d96a094a14610291578063f2fde38b146102ad578063f65a0b3e146102c9576100e9565b8063acb4ad8d146101f4578063b5f522f714610210578063c4d66de814610245576100e9565b8063572b6c05116100c8578063572b6c051461017e578063715018a6146101ae5780637da0a877146101b85780638da5cb5b146101d6576100e9565b806207df30146100ee578063150b7a021461011e57806324d7806c1461014e575b600080fd5b6101086004803603810190610103919061185d565b6102e5565b6040516101159190611e48565b60405180910390f35b6101386004803603810190610133919061179a565b610316565b6040516101459190611cab565b60405180910390f35b6101686004803603810190610163919061176d565b61032a565b6040516101759190611c90565b60405180910390f35b6101986004803603810190610193919061176d565b6103bd565b6040516101a59190611c90565b60405180910390f35b6101b6610417565b005b6101c061049f565b6040516101cd9190611be5565b60405180910390f35b6101de6104c5565b6040516101eb9190611be5565b60405180910390f35b61020e600480360381019061020991906118ca565b6104ef565b005b61022a6004803603810190610225919061194d565b610884565b60405161023c96959493929190611e63565b60405180910390f35b61025f600480360381019061025a919061176d565b610900565b005b61027b6004803603810190610276919061176d565b610a36565b6040516102889190611c90565b60405180910390f35b6102ab60048036038101906102a6919061194d565b610a56565b005b6102c760048036038101906102c2919061176d565b610ec6565b005b6102e360048036038101906102de919061181d565b610fbe565b005b609c602052816000526040600020818154811061030157600080fd5b90600052602060002001600091509150505481565b600063150b7a0260e01b9050949350505050565b6000606660008373ffffffffffffffffffffffffffffffffffffffff1673ffffffffffffffffffffffffffffffffffffffff16815260200190815260200160002060009054906101000a900460ff16806103b657506103876104c5565b73ffffffffffffffffffffffffffffffffffffffff168273ffffffffffffffffffffffffffffffffffffffff16145b9050919050565b6000606560009054906101000a900473ffffffffffffffffffffffffffffffffffffffff1673ffffffffffffffffffffffffffffffffffffffff168273ffffffffffffffffffffffffffffffffffffffff16149050919050565b61041f6110ce565b73ffffffffffffffffffffffffffffffffffffffff1661043d6104c5565b73ffffffffffffffffffffffffffffffffffffffff1614610493576040517f08c379a000000000000000000000000000000000000000000000000000000000815260040161048a90611d68565b60405180910390fd5b61049d60006110dd565b565b606560009054906101000a900473ffffffffffffffffffffffffffffffffffffffff1681565b6000603360009054906101000a900473ffffffffffffffffffffffffffffffffffffffff16905090565b6104ff6104fa6110ce565b61032a565b61053e576040517f08c379a000000000000000000000000000000000000000000000000000000000815260040161053590611da8565b60405180910390fd5b609a60008473ffffffffffffffffffffffffffffffffffffffff1673ffffffffffffffffffffffffffffffffffffffff16815260200190815260200160002060009054906101000a900460ff166105ca576040517f08c379a00000000000000000000000000000000000000000000000000000000081526004016105c190611d08565b60405180910390fd5b6000609960009054906101000a900473ffffffffffffffffffffffffffffffffffffffff1673ffffffffffffffffffffffffffffffffffffffff1663d0def5216106126110ce565b876040518363ffffffff1660e01b8152600401610630929190611c60565b602060405180830381600087803b15801561064a57600080fd5b505af115801561065e573d6000803e3d6000fd5b505050506040513d601f19601f82011682018060405250810190610682919061197a565b9050609c60006106906110ce565b73ffffffffffffffffffffffffffffffffffffffff1673ffffffffffffffffffffffffffffffffffffffff1681526020019081526020016000208190806001815401808255809150506001900390600052602060002001600090919091909150556040518060c0016040528083815260200142815260200184426107149190611f7d565b81526020018573ffffffffffffffffffffffffffffffffffffffff16815260200161073d6110ce565b73ffffffffffffffffffffffffffffffffffffffff1681526020016001609c60006107666110ce565b73ffffffffffffffffffffffffffffffffffffffff1673ffffffffffffffffffffffffffffffffffffffff168152602001908152602001600020805490506107ae9190611fd3565b815250609b600083815260200190815260200160002060008201518160000155602082015181600101556040820151816002015560608201518160030160006101000a81548173ffffffffffffffffffffffffffffffffffffffff021916908373ffffffffffffffffffffffffffffffffffffffff16021790555060808201518160040160006101000a81548173ffffffffffffffffffffffffffffffffffffffff021916908373ffffffffffffffffffffffffffffffffffffffff16021790555060a082015181600501559050505050505050565b609b6020528060005260406000206000915090508060000154908060010154908060020154908060030160009054906101000a900473ffffffffffffffffffffffffffffffffffffffff16908060040160009054906101000a900473ffffffffffffffffffffffffffffffffffffffff16908060050154905086565b600060019054906101000a900460ff166109285760008054906101000a900460ff1615610931565b6109306111a3565b5b610970576040517f08c379a000000000000000000000000000000000000000000000000000000000815260040161096790611d48565b60405180910390fd5b60008060019054906101000a900460ff1615905080156109c0576001600060016101000a81548160ff02191690831515021790555060016000806101000a81548160ff0219169083151502179055505b6109c86111b4565b6109d0611205565b81609960006101000a81548173ffffffffffffffffffffffffffffffffffffffff021916908373ffffffffffffffffffffffffffffffffffffffff1602179055508015610a325760008060016101000a81548160ff0219169083151502179055505b5050565b609a6020528060005260406000206000915054906101000a900460ff1681565b6000609b60008381526020019081526020016000206040518060c00160405290816000820154815260200160018201548152602001600282015481526020016003820160009054906101000a900473ffffffffffffffffffffffffffffffffffffffff1673ffffffffffffffffffffffffffffffffffffffff1673ffffffffffffffffffffffffffffffffffffffff1681526020016004820160009054906101000a900473ffffffffffffffffffffffffffffffffffffffff1673ffffffffffffffffffffffffffffffffffffffff1673ffffffffffffffffffffffffffffffffffffffff16815260200160058201548152505090504281602001511115610b93576040517f08c379a0000000000000000000000000000000000000000000000000000000008152600401610b8a90611d88565b60405180910390fd5b4281604001511015610bda576040517f08c379a0000000000000000000000000000000000000000000000000000000008152600401610bd190611dc8565b60405180910390fd5b609b6000838152602001908152602001600020600080820160009055600182016000905560028201600090556003820160006101000a81549073ffffffffffffffffffffffffffffffffffffffff02191690556004820160006101000a81549073ffffffffffffffffffffffffffffffffffffffff021916905560058201600090555050610c9e610c696110ce565b82608001518360000151846060015173ffffffffffffffffffffffffffffffffffffffff1661125e909392919063ffffffff16565b609960009054906101000a900473ffffffffffffffffffffffffffffffffffffffff1673ffffffffffffffffffffffffffffffffffffffff166342842e0e8260800151610ce96110ce565b856040518463ffffffff1660e01b8152600401610d0893929190611c00565b600060405180830381600087803b158015610d2257600080fd5b505af1158015610d36573d6000803e3d6000fd5b505050506000609c6000836080015173ffffffffffffffffffffffffffffffffffffffff1673ffffffffffffffffffffffffffffffffffffffff1681526020019081526020016000206001609c6000856080015173ffffffffffffffffffffffffffffffffffffffff1673ffffffffffffffffffffffffffffffffffffffff16815260200190815260200160002080549050610dd29190611fd3565b81548110610de357610de261214c565b5b9060005260206000200154905080609c6000846080015173ffffffffffffffffffffffffffffffffffffffff1673ffffffffffffffffffffffffffffffffffffffff1681526020019081526020016000208360a0015181548110610e4a57610e4961214c565b5b9060005260206000200181905550609c6000836080015173ffffffffffffffffffffffffffffffffffffffff1673ffffffffffffffffffffffffffffffffffffffff168152602001908152602001600020805480610eab57610eaa61211d565b5b60019003818190600052602060002001600090559055505050565b610ece6110ce565b73ffffffffffffffffffffffffffffffffffffffff16610eec6104c5565b73ffffffffffffffffffffffffffffffffffffffff1614610f42576040517f08c379a0000000000000000000000000000000000000000000000000000000008152600401610f3990611d68565b60405180910390fd5b600073ffffffffffffffffffffffffffffffffffffffff168173ffffffffffffffffffffffffffffffffffffffff161415610fb2576040517f08c379a0000000000000000000000000000000000000000000000000000000008152600401610fa990611ce8565b60405180910390fd5b610fbb816110dd565b50565b610fc66110ce565b73ffffffffffffffffffffffffffffffffffffffff16610fe46104c5565b73ffffffffffffffffffffffffffffffffffffffff161461103a576040517f08c379a000000000000000000000000000000000000000000000000000000000815260040161103190611d68565b60405180910390fd5b80606660008473ffffffffffffffffffffffffffffffffffffffff1673ffffffffffffffffffffffffffffffffffffffff16815260200190815260200160002060006101000a81548160ff0219169083151502179055507fe529461c8529abc0e0fe7c5ee361f74fe22e0b7574df1fc0b7558a282091fb7882826040516110c2929190611c37565b60405180910390a15050565b60006110d86112e7565b905090565b6000603360009054906101000a900473ffffffffffffffffffffffffffffffffffffffff16905081603360006101000a81548173ffffffffffffffffffffffffffffffffffffffff021916908373ffffffffffffffffffffffffffffffffffffffff1602179055508173ffffffffffffffffffffffffffffffffffffffff168173ffffffffffffffffffffffffffffffffffffffff167f8be0079c531659141344cd1fd0a4f28419497f9722a3daafe3b4186f6b6457e060405160405180910390a35050565b60006111ae30611323565b15905090565b600060019054906101000a900460ff16611203576040517f08c379a00000000000000000000000000000000000000000000000000000000081526004016111fa90611e08565b60405180910390fd5b565b600060019054906101000a900460ff16611254576040517f08c379a000000000000000000000000000000000000000000000000000000000815260040161124b90611e08565b60405180910390fd5b61125c611346565b565b6112e1846323b872dd60e01b85858560405160240161127f93929190611c00565b604051602081830303815290604052907bffffffffffffffffffffffffffffffffffffffffffffffffffffffff19166020820180517bffffffffffffffffffffffffffffffffffffffffffffffffffffffff83818316178352505050506113a7565b50505050565b600060186000369050101580156113035750611302336103bd565b5b1561131757601436033560601c905061131f565b339050611320565b5b90565b6000808273ffffffffffffffffffffffffffffffffffffffff163b119050919050565b600060019054906101000a900460ff16611395576040517f08c379a000000000000000000000000000000000000000000000000000000000815260040161138c90611e08565b60405180910390fd5b6113a56113a06110ce565b6110dd565b565b6000611409826040518060400160405280602081526020017f5361666545524332303a206c6f772d6c6576656c2063616c6c206661696c65648152508573ffffffffffffffffffffffffffffffffffffffff1661146e9092919063ffffffff16565b90506000815111156114695780806020019051810190611429919061189d565b611468576040517f08c379a000000000000000000000000000000000000000000000000000000000815260040161145f90611e28565b60405180910390fd5b5b505050565b606061147d8484600085611486565b90509392505050565b6060824710156114cb576040517f08c379a00000000000000000000000000000000000000000000000000000000081526004016114c290611d28565b60405180910390fd5b6114d48561159a565b611513576040517f08c379a000000000000000000000000000000000000000000000000000000000815260040161150a90611de8565b60405180910390fd5b6000808673ffffffffffffffffffffffffffffffffffffffff16858760405161153c9190611bce565b60006040518083038185875af1925050503d8060008114611579576040519150601f19603f3d011682016040523d82523d6000602084013e61157e565b606091505b509150915061158e8282866115bd565b92505050949350505050565b6000808273ffffffffffffffffffffffffffffffffffffffff163b119050919050565b606083156115cd5782905061161d565b6000835111156115e05782518084602001fd5b816040517f08c379a00000000000000000000000000000000000000000000000000000000081526004016116149190611cc6565b60405180910390fd5b9392505050565b600061163761163284611ee9565b611ec4565b905082815260208101848484011115611653576116526121af565b5b61165e84828561207b565b509392505050565b600061167961167484611f1a565b611ec4565b905082815260208101848484011115611695576116946121af565b5b6116a084828561207b565b509392505050565b6000813590506116b781612450565b92915050565b6000813590506116cc81612467565b92915050565b6000815190506116e181612467565b92915050565b600082601f8301126116fc576116fb6121aa565b5b813561170c848260208601611624565b91505092915050565b600082601f83011261172a576117296121aa565b5b813561173a848260208601611666565b91505092915050565b6000813590506117528161247e565b92915050565b6000815190506117678161247e565b92915050565b600060208284031215611783576117826121b9565b5b6000611791848285016116a8565b91505092915050565b600080600080608085870312156117b4576117b36121b9565b5b60006117c2878288016116a8565b94505060206117d3878288016116a8565b93505060406117e487828801611743565b925050606085013567ffffffffffffffff811115611805576118046121b4565b5b611811878288016116e7565b91505092959194509250565b60008060408385031215611834576118336121b9565b5b6000611842858286016116a8565b9250506020611853858286016116bd565b9150509250929050565b60008060408385031215611874576118736121b9565b5b6000611882858286016116a8565b925050602061189385828601611743565b9150509250929050565b6000602082840312156118b3576118b26121b9565b5b60006118c1848285016116d2565b91505092915050565b600080600080608085870312156118e4576118e36121b9565b5b600085013567ffffffffffffffff811115611902576119016121b4565b5b61190e87828801611715565b945050602061191f878288016116a8565b935050604061193087828801611743565b925050606061194187828801611743565b91505092959194509250565b600060208284031215611963576119626121b9565b5b600061197184828501611743565b91505092915050565b6000602082840312156119905761198f6121b9565b5b600061199e84828501611758565b91505092915050565b6119b081612007565b82525050565b6119bf81612019565b82525050565b6119ce81612025565b82525050565b60006119df82611f4b565b6119e98185611f61565b93506119f981856020860161208a565b80840191505092915050565b6000611a1082611f56565b611a1a8185611f6c565b9350611a2a81856020860161208a565b611a33816121be565b840191505092915050565b6000611a4b602683611f6c565b9150611a56826121cf565b604082019050919050565b6000611a6e601183611f6c565b9150611a798261221e565b602082019050919050565b6000611a91602683611f6c565b9150611a9c82612247565b604082019050919050565b6000611ab4602e83611f6c565b9150611abf82612296565b604082019050919050565b6000611ad7602083611f6c565b9150611ae2826122e5565b602082019050919050565b6000611afa601983611f6c565b9150611b058261230e565b602082019050919050565b6000611b1d601383611f6c565b9150611b2882612337565b602082019050919050565b6000611b40601783611f6c565b9150611b4b82612360565b602082019050919050565b6000611b63601d83611f6c565b9150611b6e82612389565b602082019050919050565b6000611b86602b83611f6c565b9150611b91826123b2565b604082019050919050565b6000611ba9602a83611f6c565b9150611bb482612401565b604082019050919050565b611bc881612071565b82525050565b6000611bda82846119d4565b915081905092915050565b6000602082019050611bfa60008301846119a7565b92915050565b6000606082019050611c1560008301866119a7565b611c2260208301856119a7565b611c2f6040830184611bbf565b949350505050565b6000604082019050611c4c60008301856119a7565b611c5960208301846119b6565b9392505050565b6000604082019050611c7560008301856119a7565b8181036020830152611c878184611a05565b90509392505050565b6000602082019050611ca560008301846119b6565b92915050565b6000602082019050611cc060008301846119c5565b92915050565b60006020820190508181036000830152611ce08184611a05565b905092915050565b60006020820190508181036000830152611d0181611a3e565b9050919050565b60006020820190508181036000830152611d2181611a61565b9050919050565b60006020820190508181036000830152611d4181611a84565b9050919050565b60006020820190508181036000830152611d6181611aa7565b9050919050565b60006020820190508181036000830152611d8181611aca565b9050919050565b60006020820190508181036000830152611da181611aed565b9050919050565b60006020820190508181036000830152611dc181611b10565b9050919050565b60006020820190508181036000830152611de181611b33565b9050919050565b60006020820190508181036000830152611e0181611b56565b9050919050565b60006020820190508181036000830152611e2181611b79565b9050919050565b60006020820190508181036000830152611e4181611b9c565b9050919050565b6000602082019050611e5d6000830184611bbf565b92915050565b600060c082019050611e786000830189611bbf565b611e856020830188611bbf565b611e926040830187611bbf565b611e9f60608301866119a7565b611eac60808301856119a7565b611eb960a0830184611bbf565b979650505050505050565b6000611ece611edf565b9050611eda82826120bd565b919050565b6000604051905090565b600067ffffffffffffffff821115611f0457611f0361217b565b5b611f0d826121be565b9050602081019050919050565b600067ffffffffffffffff821115611f3557611f3461217b565b5b611f3e826121be565b9050602081019050919050565b600081519050919050565b600081519050919050565b600081905092915050565b600082825260208201905092915050565b6000611f8882612071565b9150611f9383612071565b9250827fffffffffffffffffffffffffffffffffffffffffffffffffffffffffffffffff03821115611fc857611fc76120ee565b5b828201905092915050565b6000611fde82612071565b9150611fe983612071565b925082821015611ffc57611ffb6120ee565b5b828203905092915050565b600061201282612051565b9050919050565b60008115159050919050565b60007fffffffff0000000000000000000000000000000000000000000000000000000082169050919050565b600073ffffffffffffffffffffffffffffffffffffffff82169050919050565b6000819050919050565b82818337600083830152505050565b60005b838110156120a857808201518184015260208101905061208d565b838111156120b7576000848401525b50505050565b6120c6826121be565b810181811067ffffffffffffffff821117156120e5576120e461217b565b5b80604052505050565b7f4e487b7100000000000000000000000000000000000000000000000000000000600052601160045260246000fd5b7f4e487b7100000000000000000000000000000000000000000000000000000000600052603160045260246000fd5b7f4e487b7100000000000000000000000000000000000000000000000000000000600052603260045260246000fd5b7f4e487b7100000000000000000000000000000000000000000000000000000000600052604160045260246000fd5b600080fd5b600080fd5b600080fd5b600080fd5b6000601f19601f8301169050919050565b7f4f776e61626c653a206e6577206f776e657220697320746865207a65726f206160008201527f6464726573730000000000000000000000000000000000000000000000000000602082015250565b7f4e6f7420616c6c6f77656420746f6b656e000000000000000000000000000000600082015250565b7f416464726573733a20696e73756666696369656e742062616c616e636520666f60008201527f722063616c6c0000000000000000000000000000000000000000000000000000602082015250565b7f496e697469616c697a61626c653a20636f6e747261637420697320616c72656160008201527f647920696e697469616c697a6564000000000000000000000000000000000000602082015250565b7f4f776e61626c653a2063616c6c6572206973206e6f7420746865206f776e6572600082015250565b7f53616c6520686173206e6f742073746172746564207965742e00000000000000600082015250565b7f43616c6c6572206973206e6f742061646d696e00000000000000000000000000600082015250565b7f53616c652068617320616c726561647920656e6465642e000000000000000000600082015250565b7f416464726573733a2063616c6c20746f206e6f6e2d636f6e7472616374000000600082015250565b7f496e697469616c697a61626c653a20636f6e7472616374206973206e6f74206960008201527f6e697469616c697a696e67000000000000000000000000000000000000000000602082015250565b7f5361666545524332303a204552433230206f7065726174696f6e20646964206e60008201527f6f74207375636365656400000000000000000000000000000000000000000000602082015250565b61245981612007565b811461246457600080fd5b50565b61247081612019565b811461247b57600080fd5b50565b61248781612071565b811461249257600080fd5b5056fea2646970667358221220870f493152a3fc93d8b2739b6ab2b42acd9f8c112f21c278dd5059f2b9303c6b64736f6c63430008060033",
  "devdoc": {
    "kind": "dev",
    "methods": {
      "onERC721Received(address,address,uint256,bytes)": {
        "details": "See {IERC721Receiver-onERC721Received}. Always returns `IERC721Receiver.onERC721Received.selector`."
      },
      "owner()": {
        "details": "Returns the address of the current owner."
      },
      "renounceOwnership()": {
        "details": "Leaves the contract without owner. It will not be possible to call `onlyOwner` functions anymore. Can only be called by the current owner. NOTE: Renouncing ownership will leave the contract without an owner, thereby removing any functionality that is only available to the owner."
      },
      "transferOwnership(address)": {
        "details": "Transfers ownership of the contract to a new account (`newOwner`). Can only be called by the current owner."
      }
    },
    "version": 1
  },
  "userdoc": {
    "kind": "user",
    "methods": {},
    "version": 1
  },
  "storageLayout": {
    "storage": [
      {
        "astId": 130,
        "contract": "src/Sale.sol:PrimarySale",
        "label": "_initialized",
        "offset": 0,
        "slot": "0",
        "type": "t_bool"
      },
      {
        "astId": 133,
        "contract": "src/Sale.sol:PrimarySale",
        "label": "_initializing",
        "offset": 1,
        "slot": "0",
        "type": "t_bool"
      },
      {
        "astId": 1728,
        "contract": "src/Sale.sol:PrimarySale",
        "label": "__gap",
        "offset": 0,
        "slot": "1",
        "type": "t_array(t_uint256)50_storage"
      },
      {
        "astId": 10,
        "contract": "src/Sale.sol:PrimarySale",
        "label": "_owner",
        "offset": 0,
        "slot": "51",
        "type": "t_address"
      },
      {
        "astId": 122,
        "contract": "src/Sale.sol:PrimarySale",
        "label": "__gap",
        "offset": 0,
        "slot": "52",
        "type": "t_array(t_uint256)49_storage"
      },
      {
        "astId": 2875,
        "contract": "src/Sale.sol:PrimarySale",
        "label": "trustedForwarder",
        "offset": 0,
        "slot": "101",
        "type": "t_address"
      },
      {
        "astId": 2799,
        "contract": "src/Sale.sol:PrimarySale",
        "label": "_admins",
        "offset": 0,
        "slot": "102",
        "type": "t_mapping(t_address,t_bool)"
      },
      {
        "astId": 1443,
        "contract": "src/Sale.sol:PrimarySale",
        "label": "__gap",
        "offset": 0,
        "slot": "103",
        "type": "t_array(t_uint256)50_storage"
      },
      {
        "astId": 3076,
        "contract": "src/Sale.sol:PrimarySale",
        "label": "nft721",
        "offset": 0,
        "slot": "153",
        "type": "t_contract(IBeMetaPlace)3304"
      },
      {
        "astId": 3080,
        "contract": "src/Sale.sol:PrimarySale",
        "label": "allowedERC20Tokens",
        "offset": 0,
        "slot": "154",
        "type": "t_mapping(t_address,t_bool)"
      },
      {
        "astId": 3098,
        "contract": "src/Sale.sol:PrimarySale",
        "label": "sales",
        "offset": 0,
        "slot": "155",
        "type": "t_mapping(t_uint256,t_struct(Sale)3093_storage)"
      },
      {
        "astId": 3103,
        "contract": "src/Sale.sol:PrimarySale",
        "label": "listings",
        "offset": 0,
        "slot": "156",
        "type": "t_mapping(t_address,t_array(t_uint256)dyn_storage)"
      },
      {
        "astId": 3284,
        "contract": "src/Sale.sol:PrimarySale",
        "label": "__gap",
        "offset": 0,
        "slot": "157",
        "type": "t_array(t_uint256)50_storage"
      }
    ],
    "types": {
      "t_address": {
        "encoding": "inplace",
        "label": "address",
        "numberOfBytes": "20"
      },
      "t_array(t_uint256)49_storage": {
        "base": "t_uint256",
        "encoding": "inplace",
        "label": "uint256[49]",
        "numberOfBytes": "1568"
      },
      "t_array(t_uint256)50_storage": {
        "base": "t_uint256",
        "encoding": "inplace",
        "label": "uint256[50]",
        "numberOfBytes": "1600"
      },
      "t_array(t_uint256)dyn_storage": {
        "base": "t_uint256",
        "encoding": "dynamic_array",
        "label": "uint256[]",
        "numberOfBytes": "32"
      },
      "t_bool": {
        "encoding": "inplace",
        "label": "bool",
        "numberOfBytes": "1"
      },
      "t_contract(IBeMetaPlace)3304": {
        "encoding": "inplace",
        "label": "contract IBeMetaPlace",
        "numberOfBytes": "20"
      },
      "t_mapping(t_address,t_array(t_uint256)dyn_storage)": {
        "encoding": "mapping",
        "key": "t_address",
        "label": "mapping(address => uint256[])",
        "numberOfBytes": "32",
        "value": "t_array(t_uint256)dyn_storage"
      },
      "t_mapping(t_address,t_bool)": {
        "encoding": "mapping",
        "key": "t_address",
        "label": "mapping(address => bool)",
        "numberOfBytes": "32",
        "value": "t_bool"
      },
      "t_mapping(t_uint256,t_struct(Sale)3093_storage)": {
        "encoding": "mapping",
        "key": "t_uint256",
        "label": "mapping(uint256 => struct PrimarySale.Sale)",
        "numberOfBytes": "32",
        "value": "t_struct(Sale)3093_storage"
      },
      "t_struct(Sale)3093_storage": {
        "encoding": "inplace",
        "label": "struct PrimarySale.Sale",
        "members": [
          {
            "astId": 3082,
            "contract": "src/Sale.sol:PrimarySale",
            "label": "price",
            "offset": 0,
            "slot": "0",
            "type": "t_uint256"
          },
          {
            "astId": 3084,
            "contract": "src/Sale.sol:PrimarySale",
            "label": "startAt",
            "offset": 0,
            "slot": "1",
            "type": "t_uint256"
          },
          {
            "astId": 3086,
            "contract": "src/Sale.sol:PrimarySale",
            "label": "endAt",
            "offset": 0,
            "slot": "2",
            "type": "t_uint256"
          },
          {
            "astId": 3088,
            "contract": "src/Sale.sol:PrimarySale",
            "label": "tokenAddress",
            "offset": 0,
            "slot": "3",
            "type": "t_address"
          },
          {
            "astId": 3090,
            "contract": "src/Sale.sol:PrimarySale",
            "label": "seller",
            "offset": 0,
            "slot": "4",
            "type": "t_address"
          },
          {
            "astId": 3092,
            "contract": "src/Sale.sol:PrimarySale",
            "label": "listingIndex",
            "offset": 0,
            "slot": "5",
            "type": "t_uint256"
          }
        ],
        "numberOfBytes": "192"
      },
      "t_uint256": {
        "encoding": "inplace",
        "label": "uint256",
        "numberOfBytes": "32"
      }
    }
  }
}