{
  "address": "0x9d2f981F69dc69c6F1CF8fFf91f2D384e7191b91",
  "abi": [
    {
      "anonymous": false,
      "inputs": [
        {
          "indexed": false,
          "internalType": "address",
          "name": "admin",
          "type": "address"
        },
        {
          "indexed": false,
          "internalType": "bool",
          "name": "enabled",
          "type": "bool"
        }
      ],
      "name": "AdminAccessSet",
      "type": "event"
    },
    {
      "anonymous": false,
      "inputs": [
        {
          "indexed": true,
          "internalType": "address",
          "name": "previousOwner",
          "type": "address"
        },
        {
          "indexed": true,
          "internalType": "address",
          "name": "newOwner",
          "type": "address"
        }
      ],
      "name": "OwnershipTransferred",
      "type": "event"
    },
    {
      "inputs": [
        {
          "internalType": "address",
          "name": "",
          "type": "address"
        }
      ],
      "name": "allowedERC20Tokens",
      "outputs": [
        {
          "internalType": "bool",
          "name": "",
          "type": "bool"
        }
      ],
      "stateMutability": "view",
      "type": "function"
    },
    {
      "inputs": [
        {
          "internalType": "uint256",
          "name": "_tokenId",
          "type": "uint256"
        }
      ],
      "name": "buy",
      "outputs": [],
      "stateMutability": "nonpayable",
      "type": "function"
    },
    {
      "inputs": [
        {
          "internalType": "uint256",
          "name": "_tokenId",
          "type": "uint256"
        }
      ],
      "name": "cancel",
      "outputs": [],
      "stateMutability": "nonpayable",
      "type": "function"
    },
    {
      "inputs": [
        {
          "internalType": "string",
          "name": "_uri",
          "type": "string"
        },
        {
          "internalType": "address",
          "name": "tokenAddress",
          "type": "address"
        },
        {
          "internalType": "uint256",
          "name": "duration",
          "type": "uint256"
        },
        {
          "internalType": "uint256",
          "name": "price",
          "type": "uint256"
        }
      ],
      "name": "create",
      "outputs": [],
      "stateMutability": "nonpayable",
      "type": "function"
    },
    {
      "inputs": [
        {
          "internalType": "address",
          "name": "seller",
          "type": "address"
        }
      ],
      "name": "getListings",
      "outputs": [
        {
          "internalType": "uint256[]",
          "name": "listing",
          "type": "uint256[]"
        }
      ],
      "stateMutability": "view",
      "type": "function"
    },
    {
      "inputs": [
        {
          "internalType": "address",
          "name": "seller",
          "type": "address"
        }
      ],
      "name": "getSales",
      "outputs": [
        {
          "components": [
            {
              "internalType": "uint256",
              "name": "price",
              "type": "uint256"
            },
            {
              "internalType": "uint256",
              "name": "startAt",
              "type": "uint256"
            },
            {
              "internalType": "uint256",
              "name": "endAt",
              "type": "uint256"
            },
            {
              "internalType": "address",
              "name": "tokenAddress",
              "type": "address"
            },
            {
              "internalType": "address",
              "name": "seller",
              "type": "address"
            },
            {
              "internalType": "uint256",
              "name": "listingIndex",
              "type": "uint256"
            }
          ],
          "internalType": "struct PrimarySale.Sale[]",
          "name": "saleArr",
          "type": "tuple[]"
        }
      ],
      "stateMutability": "view",
      "type": "function"
    },
    {
      "inputs": [
        {
          "internalType": "address",
          "name": "_nft721_address",
          "type": "address"
        }
      ],
      "name": "initialize",
      "outputs": [],
      "stateMutability": "nonpayable",
      "type": "function"
    },
    {
      "inputs": [
        {
          "internalType": "address",
          "name": "admin",
          "type": "address"
        }
      ],
      "name": "isAdmin",
      "outputs": [
        {
          "internalType": "bool",
          "name": "",
          "type": "bool"
        }
      ],
      "stateMutability": "view",
      "type": "function"
    },
    {
      "inputs": [
        {
          "internalType": "address",
          "name": "forwarder",
          "type": "address"
        }
      ],
      "name": "isTrustedForwarder",
      "outputs": [
        {
          "internalType": "bool",
          "name": "",
          "type": "bool"
        }
      ],
      "stateMutability": "view",
      "type": "function"
    },
    {
      "inputs": [
        {
          "internalType": "address",
          "name": "",
          "type": "address"
        },
        {
          "internalType": "uint256",
          "name": "",
          "type": "uint256"
        }
      ],
      "name": "listings",
      "outputs": [
        {
          "internalType": "uint256",
          "name": "",
          "type": "uint256"
        }
      ],
      "stateMutability": "view",
      "type": "function"
    },
    {
      "inputs": [
        {
          "internalType": "address",
          "name": "",
          "type": "address"
        },
        {
          "internalType": "address",
          "name": "",
          "type": "address"
        },
        {
          "internalType": "uint256",
          "name": "",
          "type": "uint256"
        },
        {
          "internalType": "bytes",
          "name": "",
          "type": "bytes"
        }
      ],
      "name": "onERC721Received",
      "outputs": [
        {
          "internalType": "bytes4",
          "name": "",
          "type": "bytes4"
        }
      ],
      "stateMutability": "nonpayable",
      "type": "function"
    },
    {
      "inputs": [],
      "name": "owner",
      "outputs": [
        {
          "internalType": "address",
          "name": "",
          "type": "address"
        }
      ],
      "stateMutability": "view",
      "type": "function"
    },
    {
      "inputs": [],
      "name": "renounceOwnership",
      "outputs": [],
      "stateMutability": "nonpayable",
      "type": "function"
    },
    {
      "inputs": [
        {
          "internalType": "uint256",
          "name": "",
          "type": "uint256"
        }
      ],
      "name": "sales",
      "outputs": [
        {
          "internalType": "uint256",
          "name": "price",
          "type": "uint256"
        },
        {
          "internalType": "uint256",
          "name": "startAt",
          "type": "uint256"
        },
        {
          "internalType": "uint256",
          "name": "endAt",
          "type": "uint256"
        },
        {
          "internalType": "address",
          "name": "tokenAddress",
          "type": "address"
        },
        {
          "internalType": "address",
          "name": "seller",
          "type": "address"
        },
        {
          "internalType": "uint256",
          "name": "listingIndex",
          "type": "uint256"
        }
      ],
      "stateMutability": "view",
      "type": "function"
    },
    {
      "inputs": [
        {
          "internalType": "address",
          "name": "admin",
          "type": "address"
        },
        {
          "internalType": "bool",
          "name": "enabled",
          "type": "bool"
        }
      ],
      "name": "setAdminAccess",
      "outputs": [],
      "stateMutability": "nonpayable",
      "type": "function"
    },
    {
      "inputs": [
        {
          "internalType": "address",
          "name": "token",
          "type": "address"
        },
        {
          "internalType": "bool",
          "name": "enabled",
          "type": "bool"
        }
      ],
      "name": "setAllowedERC20",
      "outputs": [],
      "stateMutability": "nonpayable",
      "type": "function"
    },
    {
      "inputs": [
        {
          "internalType": "address",
          "name": "newOwner",
          "type": "address"
        }
      ],
      "name": "transferOwnership",
      "outputs": [],
      "stateMutability": "nonpayable",
      "type": "function"
    },
    {
      "inputs": [],
      "name": "trustedForwarder",
      "outputs": [
        {
          "internalType": "address",
          "name": "",
          "type": "address"
        }
      ],
      "stateMutability": "view",
      "type": "function"
    },
    {
      "inputs": [
        {
          "internalType": "address",
          "name": "tokenAddress",
          "type": "address"
        },
        {
          "internalType": "uint256",
          "name": "amount",
          "type": "uint256"
        }
      ],
      "name": "withdraw",
      "outputs": [],
      "stateMutability": "nonpayable",
      "type": "function"
    },
    {
      "inputs": [
        {
          "internalType": "address",
          "name": "tokenAddress",
          "type": "address"
        },
        {
          "internalType": "uint256",
          "name": "amount",
          "type": "uint256"
        }
      ],
      "name": "withdrawNFT",
      "outputs": [],
      "stateMutability": "nonpayable",
      "type": "function"
    }
  ],
  "transactionHash": "0x7bccef95f04be964bc407ba46867332e7a35907608e62da6e3aceee9e60446d8",
  "args": [],
  "numDeployments": 2,
  "solcInputHash": "cece0687ff41368cdbc36019fa0bae43",
  "bytecode": "0x608060405234801561001057600080fd5b50613437806100206000396000f3fe608060405234801561001057600080fd5b506004361061012b5760003560e01c8063acb4ad8d116100ad578063d96a094a11610071578063d96a094a14610357578063e16bd3b714610373578063f2fde38b146103a3578063f3fef3a3146103bf578063f65a0b3e146103db5761012b565b8063acb4ad8d1461028a578063b5f522f7146102a6578063c4d66de8146102db578063cde8cd6e146102f7578063d83408e2146103275761012b565b80636088e93a116100f45780636088e93a1461020c578063715018a61461022857806378150b06146102325780637da0a8771461024e5780638da5cb5b1461026c5761012b565b806207df3014610130578063150b7a021461016057806324d7806c1461019057806340e58ee5146101c0578063572b6c05146101dc575b600080fd5b61014a600480360381019061014591906124b0565b6103f7565b6040516101579190612cd0565b60405180910390f35b61017a600480360381019061017591906123ed565b610428565b6040516101879190612b13565b60405180910390f35b6101aa60048036038101906101a591906123c0565b61043c565b6040516101b79190612af8565b60405180910390f35b6101da60048036038101906101d591906125a0565b6104cf565b005b6101f660048036038101906101f191906123c0565b6109b1565b6040516102039190612af8565b60405180910390f35b610226600480360381019061022191906124b0565b610a0b565b005b610230610b01565b005b61024c60048036038101906102479190612470565b610b89565b005b610256610be4565b60405161026391906129e0565b60405180910390f35b610274610c0a565b60405161028191906129e0565b60405180910390f35b6102a4600480360381019061029f919061251d565b610c34565b005b6102c060048036038101906102bb91906125a0565b610fc2565b6040516102d296959493929190612ceb565b60405180910390f35b6102f560048036038101906102f091906123c0565b61103e565b005b610311600480360381019061030c91906123c0565b611174565b60405161031e9190612ad6565b60405180910390f35b610341600480360381019061033c91906123c0565b61120b565b60405161034e9190612af8565b60405180910390f35b610371600480360381019061036c91906125a0565b61122b565b005b61038d600480360381019061038891906123c0565b611767565b60405161039a9190612ab4565b60405180910390f35b6103bd60048036038101906103b891906123c0565b6119a2565b005b6103d960048036038101906103d491906124b0565b611a9a565b005b6103f560048036038101906103f09190612470565b611baf565b005b609c602052816000526040600020818154811061041357600080fd5b90600052602060002001600091509150505481565b600063150b7a0260e01b9050949350505050565b6000606660008373ffffffffffffffffffffffffffffffffffffffff1673ffffffffffffffffffffffffffffffffffffffff16815260200190815260200160002060009054906101000a900460ff16806104c85750610499610c0a565b73ffffffffffffffffffffffffffffffffffffffff168273ffffffffffffffffffffffffffffffffffffffff16145b9050919050565b6104df6104da611cbf565b61043c565b61051e576040517f08c379a000000000000000000000000000000000000000000000000000000000815260040161051590612c30565b60405180910390fd5b6000609b60008381526020019081526020016000206040518060c00160405290816000820154815260200160018201548152602001600282015481526020016003820160009054906101000a900473ffffffffffffffffffffffffffffffffffffffff1673ffffffffffffffffffffffffffffffffffffffff1673ffffffffffffffffffffffffffffffffffffffff1681526020016004820160009054906101000a900473ffffffffffffffffffffffffffffffffffffffff1673ffffffffffffffffffffffffffffffffffffffff1673ffffffffffffffffffffffffffffffffffffffff168152602001600582015481525050905061061c611cbf565b73ffffffffffffffffffffffffffffffffffffffff16816080015173ffffffffffffffffffffffffffffffffffffffff161480610692575061065c610c0a565b73ffffffffffffffffffffffffffffffffffffffff1661067a611cbf565b73ffffffffffffffffffffffffffffffffffffffff16145b6106d1576040517f08c379a00000000000000000000000000000000000000000000000000000000081526004016106c890612c10565b60405180910390fd5b6000609c6000836080015173ffffffffffffffffffffffffffffffffffffffff1673ffffffffffffffffffffffffffffffffffffffff1681526020019081526020016000206001609c6000856080015173ffffffffffffffffffffffffffffffffffffffff1673ffffffffffffffffffffffffffffffffffffffff168152602001908152602001600020805490506107699190612ecd565b8154811061077a5761077961308f565b5b90600052602060002001549050609c6000836080015173ffffffffffffffffffffffffffffffffffffffff1673ffffffffffffffffffffffffffffffffffffffff1681526020019081526020016000206001609c6000856080015173ffffffffffffffffffffffffffffffffffffffff1673ffffffffffffffffffffffffffffffffffffffff1681526020019081526020016000208054905061081d9190612ecd565b8154811061082e5761082d61308f565b5b9060005260206000200154609c6000846080015173ffffffffffffffffffffffffffffffffffffffff1673ffffffffffffffffffffffffffffffffffffffff1681526020019081526020016000208360a00151815481106108925761089161308f565b5b90600052602060002001819055508160a00151609b600083815260200190815260200160002060050181905550609b6000848152602001908152602001600020600080820160009055600182016000905560028201600090556003820160006101000a81549073ffffffffffffffffffffffffffffffffffffffff02191690556004820160006101000a81549073ffffffffffffffffffffffffffffffffffffffff021916905560058201600090555050609c6000836080015173ffffffffffffffffffffffffffffffffffffffff1673ffffffffffffffffffffffffffffffffffffffff16815260200190815260200160002080548061099657610995613060565b5b60019003818190600052602060002001600090559055505050565b6000606560009054906101000a900473ffffffffffffffffffffffffffffffffffffffff1673ffffffffffffffffffffffffffffffffffffffff168273ffffffffffffffffffffffffffffffffffffffff16149050919050565b610a13611cbf565b73ffffffffffffffffffffffffffffffffffffffff16610a31610c0a565b73ffffffffffffffffffffffffffffffffffffffff1614610a87576040517f08c379a0000000000000000000000000000000000000000000000000000000008152600401610a7e90612bd0565b60405180910390fd5b8173ffffffffffffffffffffffffffffffffffffffff166323b872dd30610aac611cbf565b846040518463ffffffff1660e01b8152600401610acb939291906129fb565b600060405180830381600087803b158015610ae557600080fd5b505af1158015610af9573d6000803e3d6000fd5b505050505050565b610b09611cbf565b73ffffffffffffffffffffffffffffffffffffffff16610b27610c0a565b73ffffffffffffffffffffffffffffffffffffffff1614610b7d576040517f08c379a0000000000000000000000000000000000000000000000000000000008152600401610b7490612bd0565b60405180910390fd5b610b876000611cce565b565b80609a60008473ffffffffffffffffffffffffffffffffffffffff1673ffffffffffffffffffffffffffffffffffffffff16815260200190815260200160002060006101000a81548160ff0219169083151502179055505050565b606560009054906101000a900473ffffffffffffffffffffffffffffffffffffffff1681565b6000603360009054906101000a900473ffffffffffffffffffffffffffffffffffffffff16905090565b610c44610c3f611cbf565b61043c565b610c83576040517f08c379a0000000000000000000000000000000000000000000000000000000008152600401610c7a90612c30565b60405180910390fd5b609a60008473ffffffffffffffffffffffffffffffffffffffff1673ffffffffffffffffffffffffffffffffffffffff16815260200190815260200160002060009054906101000a900460ff16610d0f576040517f08c379a0000000000000000000000000000000000000000000000000000000008152600401610d0690612b70565b60405180910390fd5b6000609960009054906101000a900473ffffffffffffffffffffffffffffffffffffffff1673ffffffffffffffffffffffffffffffffffffffff1663d0def52130876040518363ffffffff1660e01b8152600401610d6e929190612a5b565b602060405180830381600087803b158015610d8857600080fd5b505af1158015610d9c573d6000803e3d6000fd5b505050506040513d601f19601f82011682018060405250810190610dc091906125cd565b9050609c6000610dce611cbf565b73ffffffffffffffffffffffffffffffffffffffff1673ffffffffffffffffffffffffffffffffffffffff1681526020019081526020016000208190806001815401808255809150506001900390600052602060002001600090919091909150556040518060c001604052808381526020014281526020018442610e529190612e77565b81526020018573ffffffffffffffffffffffffffffffffffffffff168152602001610e7b611cbf565b73ffffffffffffffffffffffffffffffffffffffff1681526020016001609c6000610ea4611cbf565b73ffffffffffffffffffffffffffffffffffffffff1673ffffffffffffffffffffffffffffffffffffffff16815260200190815260200160002080549050610eec9190612ecd565b815250609b600083815260200190815260200160002060008201518160000155602082015181600101556040820151816002015560608201518160030160006101000a81548173ffffffffffffffffffffffffffffffffffffffff021916908373ffffffffffffffffffffffffffffffffffffffff16021790555060808201518160040160006101000a81548173ffffffffffffffffffffffffffffffffffffffff021916908373ffffffffffffffffffffffffffffffffffffffff16021790555060a082015181600501559050505050505050565b609b6020528060005260406000206000915090508060000154908060010154908060020154908060030160009054906101000a900473ffffffffffffffffffffffffffffffffffffffff16908060040160009054906101000a900473ffffffffffffffffffffffffffffffffffffffff16908060050154905086565b600060019054906101000a900460ff166110665760008054906101000a900460ff161561106f565b61106e611d94565b5b6110ae576040517f08c379a00000000000000000000000000000000000000000000000000000000081526004016110a590612bb0565b60405180910390fd5b60008060019054906101000a900460ff1615905080156110fe576001600060016101000a81548160ff02191690831515021790555060016000806101000a81548160ff0219169083151502179055505b611106611da5565b61110e611df6565b81609960006101000a81548173ffffffffffffffffffffffffffffffffffffffff021916908373ffffffffffffffffffffffffffffffffffffffff16021790555080156111705760008060016101000a81548160ff0219169083151502179055505b5050565b6060609c60008373ffffffffffffffffffffffffffffffffffffffff1673ffffffffffffffffffffffffffffffffffffffff1681526020019081526020016000208054806020026020016040519081016040528092919081815260200182805480156111ff57602002820191906000526020600020905b8154815260200190600101908083116111eb575b50505050509050919050565b609a6020528060005260406000206000915054906101000a900460ff1681565b6000609b60008381526020019081526020016000206040518060c00160405290816000820154815260200160018201548152602001600282015481526020016003820160009054906101000a900473ffffffffffffffffffffffffffffffffffffffff1673ffffffffffffffffffffffffffffffffffffffff1673ffffffffffffffffffffffffffffffffffffffff1681526020016004820160009054906101000a900473ffffffffffffffffffffffffffffffffffffffff1673ffffffffffffffffffffffffffffffffffffffff1673ffffffffffffffffffffffffffffffffffffffff16815260200160058201548152505090504281602001511115611368576040517f08c379a000000000000000000000000000000000000000000000000000000000815260040161135f90612bf0565b60405180910390fd5b42816040015110156113af576040517f08c379a00000000000000000000000000000000000000000000000000000000081526004016113a690612c50565b60405180910390fd5b6113ef6113ba611cbf565b82608001518360000151846060015173ffffffffffffffffffffffffffffffffffffffff16611e4f909392919063ffffffff16565b609960009054906101000a900473ffffffffffffffffffffffffffffffffffffffff1673ffffffffffffffffffffffffffffffffffffffff166342842e0e30611436611cbf565b856040518463ffffffff1660e01b8152600401611455939291906129fb565b600060405180830381600087803b15801561146f57600080fd5b505af1158015611483573d6000803e3d6000fd5b505050506000609c6000836080015173ffffffffffffffffffffffffffffffffffffffff1673ffffffffffffffffffffffffffffffffffffffff1681526020019081526020016000206001609c6000856080015173ffffffffffffffffffffffffffffffffffffffff1673ffffffffffffffffffffffffffffffffffffffff1681526020019081526020016000208054905061151f9190612ecd565b815481106115305761152f61308f565b5b90600052602060002001549050609c6000836080015173ffffffffffffffffffffffffffffffffffffffff1673ffffffffffffffffffffffffffffffffffffffff1681526020019081526020016000206001609c6000856080015173ffffffffffffffffffffffffffffffffffffffff1673ffffffffffffffffffffffffffffffffffffffff168152602001908152602001600020805490506115d39190612ecd565b815481106115e4576115e361308f565b5b9060005260206000200154609c6000846080015173ffffffffffffffffffffffffffffffffffffffff1673ffffffffffffffffffffffffffffffffffffffff1681526020019081526020016000208360a00151815481106116485761164761308f565b5b90600052602060002001819055508160a00151609b600083815260200190815260200160002060050181905550609b6000848152602001908152602001600020600080820160009055600182016000905560028201600090556003820160006101000a81549073ffffffffffffffffffffffffffffffffffffffff02191690556004820160006101000a81549073ffffffffffffffffffffffffffffffffffffffff021916905560058201600090555050609c6000836080015173ffffffffffffffffffffffffffffffffffffffff1673ffffffffffffffffffffffffffffffffffffffff16815260200190815260200160002080548061174c5761174b613060565b5b60019003818190600052602060002001600090559055505050565b60606000609c60008473ffffffffffffffffffffffffffffffffffffffff1673ffffffffffffffffffffffffffffffffffffffff1681526020019081526020016000208054806020026020016040519081016040528092919081815260200182805480156117f457602002820191906000526020600020905b8154815260200190600101908083116117e0575b50505050509050805167ffffffffffffffff811115611816576118156130be565b5b60405190808252806020026020018201604052801561184f57816020015b61183c612215565b8152602001906001900390816118345790505b50915060005b815181101561199b57609b60008383815181106118755761187461308f565b5b602002602001015181526020019081526020016000206040518060c00160405290816000820154815260200160018201548152602001600282015481526020016003820160009054906101000a900473ffffffffffffffffffffffffffffffffffffffff1673ffffffffffffffffffffffffffffffffffffffff1673ffffffffffffffffffffffffffffffffffffffff1681526020016004820160009054906101000a900473ffffffffffffffffffffffffffffffffffffffff1673ffffffffffffffffffffffffffffffffffffffff1673ffffffffffffffffffffffffffffffffffffffff16815260200160058201548152505083828151811061197d5761197c61308f565b5b6020026020010181905250808061199390612fe8565b915050611855565b5050919050565b6119aa611cbf565b73ffffffffffffffffffffffffffffffffffffffff166119c8610c0a565b73ffffffffffffffffffffffffffffffffffffffff1614611a1e576040517f08c379a0000000000000000000000000000000000000000000000000000000008152600401611a1590612bd0565b60405180910390fd5b600073ffffffffffffffffffffffffffffffffffffffff168173ffffffffffffffffffffffffffffffffffffffff161415611a8e576040517f08c379a0000000000000000000000000000000000000000000000000000000008152600401611a8590612b50565b60405180910390fd5b611a9781611cce565b50565b611aa2611cbf565b73ffffffffffffffffffffffffffffffffffffffff16611ac0610c0a565b73ffffffffffffffffffffffffffffffffffffffff1614611b16576040517f08c379a0000000000000000000000000000000000000000000000000000000008152600401611b0d90612bd0565b60405180910390fd5b8173ffffffffffffffffffffffffffffffffffffffff1663a9059cbb611b3a611cbf565b836040518363ffffffff1660e01b8152600401611b58929190612a8b565b602060405180830381600087803b158015611b7257600080fd5b505af1158015611b86573d6000803e3d6000fd5b505050506040513d601f19601f82011682018060405250810190611baa91906124f0565b505050565b611bb7611cbf565b73ffffffffffffffffffffffffffffffffffffffff16611bd5610c0a565b73ffffffffffffffffffffffffffffffffffffffff1614611c2b576040517f08c379a0000000000000000000000000000000000000000000000000000000008152600401611c2290612bd0565b60405180910390fd5b80606660008473ffffffffffffffffffffffffffffffffffffffff1673ffffffffffffffffffffffffffffffffffffffff16815260200190815260200160002060006101000a81548160ff0219169083151502179055507fe529461c8529abc0e0fe7c5ee361f74fe22e0b7574df1fc0b7558a282091fb788282604051611cb3929190612a32565b60405180910390a15050565b6000611cc9611ed8565b905090565b6000603360009054906101000a900473ffffffffffffffffffffffffffffffffffffffff16905081603360006101000a81548173ffffffffffffffffffffffffffffffffffffffff021916908373ffffffffffffffffffffffffffffffffffffffff1602179055508173ffffffffffffffffffffffffffffffffffffffff168173ffffffffffffffffffffffffffffffffffffffff167f8be0079c531659141344cd1fd0a4f28419497f9722a3daafe3b4186f6b6457e060405160405180910390a35050565b6000611d9f30611f14565b15905090565b600060019054906101000a900460ff16611df4576040517f08c379a0000000000000000000000000000000000000000000000000000000008152600401611deb90612c90565b60405180910390fd5b565b600060019054906101000a900460ff16611e45576040517f08c379a0000000000000000000000000000000000000000000000000000000008152600401611e3c90612c90565b60405180910390fd5b611e4d611f37565b565b611ed2846323b872dd60e01b858585604051602401611e70939291906129fb565b604051602081830303815290604052907bffffffffffffffffffffffffffffffffffffffffffffffffffffffff19166020820180517bffffffffffffffffffffffffffffffffffffffffffffffffffffffff8381831617835250505050611f98565b50505050565b60006018600036905010158015611ef45750611ef3336109b1565b5b15611f0857601436033560601c9050611f10565b339050611f11565b5b90565b6000808273ffffffffffffffffffffffffffffffffffffffff163b119050919050565b600060019054906101000a900460ff16611f86576040517f08c379a0000000000000000000000000000000000000000000000000000000008152600401611f7d90612c90565b60405180910390fd5b611f96611f91611cbf565b611cce565b565b6000611ffa826040518060400160405280602081526020017f5361666545524332303a206c6f772d6c6576656c2063616c6c206661696c65648152508573ffffffffffffffffffffffffffffffffffffffff1661205f9092919063ffffffff16565b905060008151111561205a578080602001905181019061201a91906124f0565b612059576040517f08c379a000000000000000000000000000000000000000000000000000000000815260040161205090612cb0565b60405180910390fd5b5b505050565b606061206e8484600085612077565b90509392505050565b6060824710156120bc576040517f08c379a00000000000000000000000000000000000000000000000000000000081526004016120b390612b90565b60405180910390fd5b6120c58561218b565b612104576040517f08c379a00000000000000000000000000000000000000000000000000000000081526004016120fb90612c70565b60405180910390fd5b6000808673ffffffffffffffffffffffffffffffffffffffff16858760405161212d91906129c9565b60006040518083038185875af1925050503d806000811461216a576040519150601f19603f3d011682016040523d82523d6000602084013e61216f565b606091505b509150915061217f8282866121ae565b92505050949350505050565b6000808273ffffffffffffffffffffffffffffffffffffffff163b119050919050565b606083156121be5782905061220e565b6000835111156121d15782518084602001fd5b816040517f08c379a00000000000000000000000000000000000000000000000000000000081526004016122059190612b2e565b60405180910390fd5b9392505050565b6040518060c00160405280600081526020016000815260200160008152602001600073ffffffffffffffffffffffffffffffffffffffff168152602001600073ffffffffffffffffffffffffffffffffffffffff168152602001600081525090565b600061228a61228584612d71565b612d4c565b9050828152602081018484840111156122a6576122a56130f2565b5b6122b1848285612f75565b509392505050565b60006122cc6122c784612da2565b612d4c565b9050828152602081018484840111156122e8576122e76130f2565b5b6122f3848285612f75565b509392505050565b60008135905061230a816133bc565b92915050565b60008135905061231f816133d3565b92915050565b600081519050612334816133d3565b92915050565b600082601f83011261234f5761234e6130ed565b5b813561235f848260208601612277565b91505092915050565b600082601f83011261237d5761237c6130ed565b5b813561238d8482602086016122b9565b91505092915050565b6000813590506123a5816133ea565b92915050565b6000815190506123ba816133ea565b92915050565b6000602082840312156123d6576123d56130fc565b5b60006123e4848285016122fb565b91505092915050565b60008060008060808587031215612407576124066130fc565b5b6000612415878288016122fb565b9450506020612426878288016122fb565b935050604061243787828801612396565b925050606085013567ffffffffffffffff811115612458576124576130f7565b5b6124648782880161233a565b91505092959194509250565b60008060408385031215612487576124866130fc565b5b6000612495858286016122fb565b92505060206124a685828601612310565b9150509250929050565b600080604083850312156124c7576124c66130fc565b5b60006124d5858286016122fb565b92505060206124e685828601612396565b9150509250929050565b600060208284031215612506576125056130fc565b5b600061251484828501612325565b91505092915050565b60008060008060808587031215612537576125366130fc565b5b600085013567ffffffffffffffff811115612555576125546130f7565b5b61256187828801612368565b9450506020612572878288016122fb565b935050604061258387828801612396565b925050606061259487828801612396565b91505092959194509250565b6000602082840312156125b6576125b56130fc565b5b60006125c484828501612396565b91505092915050565b6000602082840312156125e3576125e26130fc565b5b60006125f1848285016123ab565b91505092915050565b60006126068383612930565b60c08301905092915050565b600061261e83836129ab565b60208301905092915050565b61263381612f01565b82525050565b61264281612f01565b82525050565b600061265382612df3565b61265d8185612e39565b935061266883612dd3565b8060005b8381101561269957815161268088826125fa565b975061268b83612e1f565b92505060018101905061266c565b5085935050505092915050565b60006126b182612dfe565b6126bb8185612e4a565b93506126c683612de3565b8060005b838110156126f75781516126de8882612612565b97506126e983612e2c565b9250506001810190506126ca565b5085935050505092915050565b61270d81612f13565b82525050565b61271c81612f1f565b82525050565b600061272d82612e09565b6127378185612e5b565b9350612747818560208601612f84565b80840191505092915050565b600061275e82612e14565b6127688185612e66565b9350612778818560208601612f84565b61278181613101565b840191505092915050565b6000612799602683612e66565b91506127a482613112565b604082019050919050565b60006127bc601183612e66565b91506127c782613161565b602082019050919050565b60006127df602683612e66565b91506127ea8261318a565b604082019050919050565b6000612802602e83612e66565b915061280d826131d9565b604082019050919050565b6000612825602083612e66565b915061283082613228565b602082019050919050565b6000612848601983612e66565b915061285382613251565b602082019050919050565b600061286b601483612e66565b91506128768261327a565b602082019050919050565b600061288e601383612e66565b9150612899826132a3565b602082019050919050565b60006128b1601783612e66565b91506128bc826132cc565b602082019050919050565b60006128d4601d83612e66565b91506128df826132f5565b602082019050919050565b60006128f7602b83612e66565b91506129028261331e565b604082019050919050565b600061291a602a83612e66565b91506129258261336d565b604082019050919050565b60c08201600082015161294660008501826129ab565b50602082015161295960208501826129ab565b50604082015161296c60408501826129ab565b50606082015161297f606085018261262a565b506080820151612992608085018261262a565b5060a08201516129a560a08501826129ab565b50505050565b6129b481612f6b565b82525050565b6129c381612f6b565b82525050565b60006129d58284612722565b915081905092915050565b60006020820190506129f56000830184612639565b92915050565b6000606082019050612a106000830186612639565b612a1d6020830185612639565b612a2a60408301846129ba565b949350505050565b6000604082019050612a476000830185612639565b612a546020830184612704565b9392505050565b6000604082019050612a706000830185612639565b8181036020830152612a828184612753565b90509392505050565b6000604082019050612aa06000830185612639565b612aad60208301846129ba565b9392505050565b60006020820190508181036000830152612ace8184612648565b905092915050565b60006020820190508181036000830152612af081846126a6565b905092915050565b6000602082019050612b0d6000830184612704565b92915050565b6000602082019050612b286000830184612713565b92915050565b60006020820190508181036000830152612b488184612753565b905092915050565b60006020820190508181036000830152612b698161278c565b9050919050565b60006020820190508181036000830152612b89816127af565b9050919050565b60006020820190508181036000830152612ba9816127d2565b9050919050565b60006020820190508181036000830152612bc9816127f5565b9050919050565b60006020820190508181036000830152612be981612818565b9050919050565b60006020820190508181036000830152612c098161283b565b9050919050565b60006020820190508181036000830152612c298161285e565b9050919050565b60006020820190508181036000830152612c4981612881565b9050919050565b60006020820190508181036000830152612c69816128a4565b9050919050565b60006020820190508181036000830152612c89816128c7565b9050919050565b60006020820190508181036000830152612ca9816128ea565b9050919050565b60006020820190508181036000830152612cc98161290d565b9050919050565b6000602082019050612ce560008301846129ba565b92915050565b600060c082019050612d0060008301896129ba565b612d0d60208301886129ba565b612d1a60408301876129ba565b612d276060830186612639565b612d346080830185612639565b612d4160a08301846129ba565b979650505050505050565b6000612d56612d67565b9050612d628282612fb7565b919050565b6000604051905090565b600067ffffffffffffffff821115612d8c57612d8b6130be565b5b612d9582613101565b9050602081019050919050565b600067ffffffffffffffff821115612dbd57612dbc6130be565b5b612dc682613101565b9050602081019050919050565b6000819050602082019050919050565b6000819050602082019050919050565b600081519050919050565b600081519050919050565b600081519050919050565b600081519050919050565b6000602082019050919050565b6000602082019050919050565b600082825260208201905092915050565b600082825260208201905092915050565b600081905092915050565b600082825260208201905092915050565b6000612e8282612f6b565b9150612e8d83612f6b565b9250827fffffffffffffffffffffffffffffffffffffffffffffffffffffffffffffffff03821115612ec257612ec1613031565b5b828201905092915050565b6000612ed882612f6b565b9150612ee383612f6b565b925082821015612ef657612ef5613031565b5b828203905092915050565b6000612f0c82612f4b565b9050919050565b60008115159050919050565b60007fffffffff0000000000000000000000000000000000000000000000000000000082169050919050565b600073ffffffffffffffffffffffffffffffffffffffff82169050919050565b6000819050919050565b82818337600083830152505050565b60005b83811015612fa2578082015181840152602081019050612f87565b83811115612fb1576000848401525b50505050565b612fc082613101565b810181811067ffffffffffffffff82111715612fdf57612fde6130be565b5b80604052505050565b6000612ff382612f6b565b91507fffffffffffffffffffffffffffffffffffffffffffffffffffffffffffffffff82141561302657613025613031565b5b600182019050919050565b7f4e487b7100000000000000000000000000000000000000000000000000000000600052601160045260246000fd5b7f4e487b7100000000000000000000000000000000000000000000000000000000600052603160045260246000fd5b7f4e487b7100000000000000000000000000000000000000000000000000000000600052603260045260246000fd5b7f4e487b7100000000000000000000000000000000000000000000000000000000600052604160045260246000fd5b600080fd5b600080fd5b600080fd5b600080fd5b6000601f19601f8301169050919050565b7f4f776e61626c653a206e6577206f776e657220697320746865207a65726f206160008201527f6464726573730000000000000000000000000000000000000000000000000000602082015250565b7f4e6f7420616c6c6f77656420746f6b656e000000000000000000000000000000600082015250565b7f416464726573733a20696e73756666696369656e742062616c616e636520666f60008201527f722063616c6c0000000000000000000000000000000000000000000000000000602082015250565b7f496e697469616c697a61626c653a20636f6e747261637420697320616c72656160008201527f647920696e697469616c697a6564000000000000000000000000000000000000602082015250565b7f4f776e61626c653a2063616c6c6572206973206e6f7420746865206f776e6572600082015250565b7f53616c6520686173206e6f742073746172746564207965742e00000000000000600082015250565b7f4e6f74206f776e6572206f722073656c6c65722e000000000000000000000000600082015250565b7f43616c6c6572206973206e6f742061646d696e00000000000000000000000000600082015250565b7f53616c652068617320616c726561647920656e6465642e000000000000000000600082015250565b7f416464726573733a2063616c6c20746f206e6f6e2d636f6e7472616374000000600082015250565b7f496e697469616c697a61626c653a20636f6e7472616374206973206e6f74206960008201527f6e697469616c697a696e67000000000000000000000000000000000000000000602082015250565b7f5361666545524332303a204552433230206f7065726174696f6e20646964206e60008201527f6f74207375636365656400000000000000000000000000000000000000000000602082015250565b6133c581612f01565b81146133d057600080fd5b50565b6133dc81612f13565b81146133e757600080fd5b50565b6133f381612f6b565b81146133fe57600080fd5b5056fea2646970667358221220dc7f017667edeb9c62c75e9cf4590695556e1593d9dca8306adf62375901d2ec64736f6c63430008060033",
  "devdoc": {
    "kind": "dev",
    "methods": {
      "onERC721Received(address,address,uint256,bytes)": {
        "details": "See {IERC721Receiver-onERC721Received}. Always returns `IERC721Receiver.onERC721Received.selector`."
      },
      "owner()": {
        "details": "Returns the address of the current owner."
      },
      "renounceOwnership()": {
        "details": "Leaves the contract without owner. It will not be possible to call `onlyOwner` functions anymore. Can only be called by the current owner. NOTE: Renouncing ownership will leave the contract without an owner, thereby removing any functionality that is only available to the owner."
      },
      "transferOwnership(address)": {
        "details": "Transfers ownership of the contract to a new account (`newOwner`). Can only be called by the current owner."
      }
    },
    "version": 1
  },
  "userdoc": {
    "kind": "user",
    "methods": {},
    "version": 1
  },
  "storageLayout": {
    "storage": [
      {
        "astId": 130,
        "contract": "src/PrimarySale.sol:PrimarySale",
        "label": "_initialized",
        "offset": 0,
        "slot": "0",
        "type": "t_bool"
      },
      {
        "astId": 133,
        "contract": "src/PrimarySale.sol:PrimarySale",
        "label": "_initializing",
        "offset": 1,
        "slot": "0",
        "type": "t_bool"
      },
      {
        "astId": 2117,
        "contract": "src/PrimarySale.sol:PrimarySale",
        "label": "__gap",
        "offset": 0,
        "slot": "1",
        "type": "t_array(t_uint256)50_storage"
      },
      {
        "astId": 10,
        "contract": "src/PrimarySale.sol:PrimarySale",
        "label": "_owner",
        "offset": 0,
        "slot": "51",
        "type": "t_address"
      },
      {
        "astId": 122,
        "contract": "src/PrimarySale.sol:PrimarySale",
        "label": "__gap",
        "offset": 0,
        "slot": "52",
        "type": "t_array(t_uint256)49_storage"
      },
      {
        "astId": 4879,
        "contract": "src/PrimarySale.sol:PrimarySale",
        "label": "trustedForwarder",
        "offset": 0,
        "slot": "101",
        "type": "t_address"
      },
      {
        "astId": 4655,
        "contract": "src/PrimarySale.sol:PrimarySale",
        "label": "_admins",
        "offset": 0,
        "slot": "102",
        "type": "t_mapping(t_address,t_bool)"
      },
      {
        "astId": 1832,
        "contract": "src/PrimarySale.sol:PrimarySale",
        "label": "__gap",
        "offset": 0,
        "slot": "103",
        "type": "t_array(t_uint256)50_storage"
      },
      {
        "astId": 5262,
        "contract": "src/PrimarySale.sol:PrimarySale",
        "label": "nft721",
        "offset": 0,
        "slot": "153",
        "type": "t_contract(IBeMetaPlace)5732"
      },
      {
        "astId": 5266,
        "contract": "src/PrimarySale.sol:PrimarySale",
        "label": "allowedERC20Tokens",
        "offset": 0,
        "slot": "154",
        "type": "t_mapping(t_address,t_bool)"
      },
      {
        "astId": 5284,
        "contract": "src/PrimarySale.sol:PrimarySale",
        "label": "sales",
        "offset": 0,
        "slot": "155",
        "type": "t_mapping(t_uint256,t_struct(Sale)5279_storage)"
      },
      {
        "astId": 5289,
        "contract": "src/PrimarySale.sol:PrimarySale",
        "label": "listings",
        "offset": 0,
        "slot": "156",
        "type": "t_mapping(t_address,t_array(t_uint256)dyn_storage)"
      },
      {
        "astId": 5702,
        "contract": "src/PrimarySale.sol:PrimarySale",
        "label": "__gap",
        "offset": 0,
        "slot": "157",
        "type": "t_array(t_uint256)50_storage"
      }
    ],
    "types": {
      "t_address": {
        "encoding": "inplace",
        "label": "address",
        "numberOfBytes": "20"
      },
      "t_array(t_uint256)49_storage": {
        "base": "t_uint256",
        "encoding": "inplace",
        "label": "uint256[49]",
        "numberOfBytes": "1568"
      },
      "t_array(t_uint256)50_storage": {
        "base": "t_uint256",
        "encoding": "inplace",
        "label": "uint256[50]",
        "numberOfBytes": "1600"
      },
      "t_array(t_uint256)dyn_storage": {
        "base": "t_uint256",
        "encoding": "dynamic_array",
        "label": "uint256[]",
        "numberOfBytes": "32"
      },
      "t_bool": {
        "encoding": "inplace",
        "label": "bool",
        "numberOfBytes": "1"
      },
      "t_contract(IBeMetaPlace)5732": {
        "encoding": "inplace",
        "label": "contract IBeMetaPlace",
        "numberOfBytes": "20"
      },
      "t_mapping(t_address,t_array(t_uint256)dyn_storage)": {
        "encoding": "mapping",
        "key": "t_address",
        "label": "mapping(address => uint256[])",
        "numberOfBytes": "32",
        "value": "t_array(t_uint256)dyn_storage"
      },
      "t_mapping(t_address,t_bool)": {
        "encoding": "mapping",
        "key": "t_address",
        "label": "mapping(address => bool)",
        "numberOfBytes": "32",
        "value": "t_bool"
      },
      "t_mapping(t_uint256,t_struct(Sale)5279_storage)": {
        "encoding": "mapping",
        "key": "t_uint256",
        "label": "mapping(uint256 => struct PrimarySale.Sale)",
        "numberOfBytes": "32",
        "value": "t_struct(Sale)5279_storage"
      },
      "t_struct(Sale)5279_storage": {
        "encoding": "inplace",
        "label": "struct PrimarySale.Sale",
        "members": [
          {
            "astId": 5268,
            "contract": "src/PrimarySale.sol:PrimarySale",
            "label": "price",
            "offset": 0,
            "slot": "0",
            "type": "t_uint256"
          },
          {
            "astId": 5270,
            "contract": "src/PrimarySale.sol:PrimarySale",
            "label": "startAt",
            "offset": 0,
            "slot": "1",
            "type": "t_uint256"
          },
          {
            "astId": 5272,
            "contract": "src/PrimarySale.sol:PrimarySale",
            "label": "endAt",
            "offset": 0,
            "slot": "2",
            "type": "t_uint256"
          },
          {
            "astId": 5274,
            "contract": "src/PrimarySale.sol:PrimarySale",
            "label": "tokenAddress",
            "offset": 0,
            "slot": "3",
            "type": "t_address"
          },
          {
            "astId": 5276,
            "contract": "src/PrimarySale.sol:PrimarySale",
            "label": "seller",
            "offset": 0,
            "slot": "4",
            "type": "t_address"
          },
          {
            "astId": 5278,
            "contract": "src/PrimarySale.sol:PrimarySale",
            "label": "listingIndex",
            "offset": 0,
            "slot": "5",
            "type": "t_uint256"
          }
        ],
        "numberOfBytes": "192"
      },
      "t_uint256": {
        "encoding": "inplace",
        "label": "uint256",
        "numberOfBytes": "32"
      }
    }
  }
}