{
  "address": "0xa3319F5c21709cf01f72a8ac7FC4C3FA656febC7",
  "abi": [
    {
      "anonymous": false,
      "inputs": [
        {
          "indexed": false,
          "internalType": "address",
          "name": "admin",
          "type": "address"
        },
        {
          "indexed": false,
          "internalType": "bool",
          "name": "enabled",
          "type": "bool"
        }
      ],
      "name": "AdminAccessSet",
      "type": "event"
    },
    {
      "anonymous": false,
      "inputs": [
        {
          "indexed": true,
          "internalType": "address",
          "name": "previousOwner",
          "type": "address"
        },
        {
          "indexed": true,
          "internalType": "address",
          "name": "newOwner",
          "type": "address"
        }
      ],
      "name": "OwnershipTransferred",
      "type": "event"
    },
    {
      "inputs": [
        {
          "internalType": "address",
          "name": "",
          "type": "address"
        }
      ],
      "name": "allowedERC20Tokens",
      "outputs": [
        {
          "internalType": "bool",
          "name": "",
          "type": "bool"
        }
      ],
      "stateMutability": "view",
      "type": "function"
    },
    {
      "inputs": [
        {
          "internalType": "uint256",
          "name": "_tokenId",
          "type": "uint256"
        }
      ],
      "name": "buy",
      "outputs": [],
      "stateMutability": "nonpayable",
      "type": "function"
    },
    {
      "inputs": [
        {
          "internalType": "uint256",
          "name": "_tokenId",
          "type": "uint256"
        }
      ],
      "name": "cancel",
      "outputs": [],
      "stateMutability": "nonpayable",
      "type": "function"
    },
    {
      "inputs": [
        {
          "internalType": "string",
          "name": "_uri",
          "type": "string"
        },
        {
          "internalType": "address",
          "name": "tokenAddress",
          "type": "address"
        },
        {
          "internalType": "uint256",
          "name": "duration",
          "type": "uint256"
        },
        {
          "internalType": "uint256",
          "name": "price",
          "type": "uint256"
        }
      ],
      "name": "create",
      "outputs": [],
      "stateMutability": "nonpayable",
      "type": "function"
    },
    {
      "inputs": [
        {
          "internalType": "address",
          "name": "seller",
          "type": "address"
        }
      ],
      "name": "getListings",
      "outputs": [
        {
          "internalType": "uint256[]",
          "name": "listing",
          "type": "uint256[]"
        }
      ],
      "stateMutability": "view",
      "type": "function"
    },
    {
      "inputs": [
        {
          "internalType": "address",
          "name": "seller",
          "type": "address"
        }
      ],
      "name": "getSales",
      "outputs": [
        {
          "components": [
            {
              "internalType": "uint256",
              "name": "price",
              "type": "uint256"
            },
            {
              "internalType": "uint256",
              "name": "startAt",
              "type": "uint256"
            },
            {
              "internalType": "uint256",
              "name": "endAt",
              "type": "uint256"
            },
            {
              "internalType": "address",
              "name": "tokenAddress",
              "type": "address"
            },
            {
              "internalType": "address",
              "name": "seller",
              "type": "address"
            },
            {
              "internalType": "uint256",
              "name": "listingIndex",
              "type": "uint256"
            }
          ],
          "internalType": "struct PrimarySale.Sale[]",
          "name": "saleArr",
          "type": "tuple[]"
        }
      ],
      "stateMutability": "view",
      "type": "function"
    },
    {
      "inputs": [
        {
          "internalType": "address",
          "name": "_nft721_address",
          "type": "address"
        }
      ],
      "name": "initialize",
      "outputs": [],
      "stateMutability": "nonpayable",
      "type": "function"
    },
    {
      "inputs": [
        {
          "internalType": "address",
          "name": "admin",
          "type": "address"
        }
      ],
      "name": "isAdmin",
      "outputs": [
        {
          "internalType": "bool",
          "name": "",
          "type": "bool"
        }
      ],
      "stateMutability": "view",
      "type": "function"
    },
    {
      "inputs": [
        {
          "internalType": "address",
          "name": "forwarder",
          "type": "address"
        }
      ],
      "name": "isTrustedForwarder",
      "outputs": [
        {
          "internalType": "bool",
          "name": "",
          "type": "bool"
        }
      ],
      "stateMutability": "view",
      "type": "function"
    },
    {
      "inputs": [
        {
          "internalType": "address",
          "name": "",
          "type": "address"
        },
        {
          "internalType": "uint256",
          "name": "",
          "type": "uint256"
        }
      ],
      "name": "listings",
      "outputs": [
        {
          "internalType": "uint256",
          "name": "",
          "type": "uint256"
        }
      ],
      "stateMutability": "view",
      "type": "function"
    },
    {
      "inputs": [
        {
          "internalType": "address",
          "name": "",
          "type": "address"
        },
        {
          "internalType": "address",
          "name": "",
          "type": "address"
        },
        {
          "internalType": "uint256",
          "name": "",
          "type": "uint256"
        },
        {
          "internalType": "bytes",
          "name": "",
          "type": "bytes"
        }
      ],
      "name": "onERC721Received",
      "outputs": [
        {
          "internalType": "bytes4",
          "name": "",
          "type": "bytes4"
        }
      ],
      "stateMutability": "nonpayable",
      "type": "function"
    },
    {
      "inputs": [],
      "name": "owner",
      "outputs": [
        {
          "internalType": "address",
          "name": "",
          "type": "address"
        }
      ],
      "stateMutability": "view",
      "type": "function"
    },
    {
      "inputs": [],
      "name": "renounceOwnership",
      "outputs": [],
      "stateMutability": "nonpayable",
      "type": "function"
    },
    {
      "inputs": [
        {
          "internalType": "uint256",
          "name": "",
          "type": "uint256"
        }
      ],
      "name": "sales",
      "outputs": [
        {
          "internalType": "uint256",
          "name": "price",
          "type": "uint256"
        },
        {
          "internalType": "uint256",
          "name": "startAt",
          "type": "uint256"
        },
        {
          "internalType": "uint256",
          "name": "endAt",
          "type": "uint256"
        },
        {
          "internalType": "address",
          "name": "tokenAddress",
          "type": "address"
        },
        {
          "internalType": "address",
          "name": "seller",
          "type": "address"
        },
        {
          "internalType": "uint256",
          "name": "listingIndex",
          "type": "uint256"
        }
      ],
      "stateMutability": "view",
      "type": "function"
    },
    {
      "inputs": [
        {
          "internalType": "address",
          "name": "admin",
          "type": "address"
        },
        {
          "internalType": "bool",
          "name": "enabled",
          "type": "bool"
        }
      ],
      "name": "setAdminAccess",
      "outputs": [],
      "stateMutability": "nonpayable",
      "type": "function"
    },
    {
      "inputs": [
        {
          "internalType": "address",
          "name": "token",
          "type": "address"
        },
        {
          "internalType": "bool",
          "name": "enabled",
          "type": "bool"
        }
      ],
      "name": "setAllowedERC20",
      "outputs": [],
      "stateMutability": "nonpayable",
      "type": "function"
    },
    {
      "inputs": [
        {
          "internalType": "address",
          "name": "newOwner",
          "type": "address"
        }
      ],
      "name": "transferOwnership",
      "outputs": [],
      "stateMutability": "nonpayable",
      "type": "function"
    },
    {
      "inputs": [],
      "name": "trustedForwarder",
      "outputs": [
        {
          "internalType": "address",
          "name": "",
          "type": "address"
        }
      ],
      "stateMutability": "view",
      "type": "function"
    },
    {
      "inputs": [
        {
          "internalType": "address",
          "name": "tokenAddress",
          "type": "address"
        },
        {
          "internalType": "uint256",
          "name": "amount",
          "type": "uint256"
        }
      ],
      "name": "withdraw",
      "outputs": [],
      "stateMutability": "nonpayable",
      "type": "function"
    },
    {
      "inputs": [
        {
          "internalType": "address",
          "name": "tokenAddress",
          "type": "address"
        },
        {
          "internalType": "uint256",
          "name": "amount",
          "type": "uint256"
        }
      ],
      "name": "withdrawNFT",
      "outputs": [],
      "stateMutability": "nonpayable",
      "type": "function"
    }
  ],
  "transactionHash": "0x4e7a621978e204b3f420dc96f6864adfc13d0f499db97b32228585572025534a",
  "args": [],
  "numDeployments": 1,
  "solcInputHash": "8e9a114e5a1d18dcebc2fcdeee0e8d54",
  "bytecode": "0x608060405234801561001057600080fd5b50611ac3806100206000396000f3fe608060405234801561001057600080fd5b506004361061012b5760003560e01c8063acb4ad8d116100ad578063d96a094a11610071578063d96a094a14610369578063e16bd3b71461037c578063f2fde38b1461039c578063f3fef3a3146103af578063f65a0b3e146103c257600080fd5b8063acb4ad8d14610277578063b5f522f71461028a578063c4d66de814610313578063cde8cd6e14610326578063d83408e21461034657600080fd5b80636088e93a116100f45780636088e93a146101e7578063715018a6146101fa57806378150b06146102025780637da0a8771461023b5780638da5cb5b1461026657600080fd5b806207df3014610130578063150b7a021461015657806324d7806c1461018d57806340e58ee5146101b0578063572b6c05146101c5575b600080fd5b61014361013e3660046116fb565b6103d5565b6040519081526020015b60405180910390f35b610174610164366004611648565b630a85bd0160e11b949350505050565b6040516001600160e01b0319909116815260200161014d565b6101a061019b36600461162d565b610406565b604051901515815260200161014d565b6101c36101be3660046117b3565b610440565b005b6101a06101d336600461162d565b6065546001600160a01b0391821691161490565b6101c36101f53660046116fb565b610701565b6101c36107cd565b6101c36102103660046116c4565b6001600160a01b03919091166000908152609a60205260409020805460ff1916911515919091179055565b60655461024e906001600160a01b031681565b6040516001600160a01b03909116815260200161014d565b6033546001600160a01b031661024e565b6101c3610285366004611742565b610822565b6102da6102983660046117b3565b609b602052600090815260409020805460018201546002830154600384015460048501546005909501549394929391926001600160a01b039182169291169086565b604080519687526020870195909552938501929092526001600160a01b03908116606085015216608083015260a082015260c00161014d565b6101c361032136600461162d565b610a81565b61033961033436600461162d565b610b66565b60405161014d91906118da565b6101a061035436600461162d565b609a6020526000908152604090205460ff1681565b6101c36103773660046117b3565b610bd2565b61038f61038a36600461162d565b610db5565b60405161014d9190611851565b6101c36103aa36600461162d565b610f79565b6101c36103bd3660046116fb565b611033565b6101c36103d03660046116c4565b611118565b609c60205281600052604060002081815481106103f157600080fd5b90600052602060002001600091509150505481565b6001600160a01b03811660009081526066602052604081205460ff168061043a57506033546001600160a01b038381169116145b92915050565b61044b61019b6111c4565b6104925760405162461bcd60e51b815260206004820152601360248201527221b0b63632b91034b9903737ba1030b236b4b760691b60448201526064015b60405180910390fd5b6000818152609b6020908152604091829020825160c0810184528154815260018201549281019290925260028101549282019290925260038201546001600160a01b039081166060830152600483015416608082015260059091015460a08201526104fb6111c4565b6001600160a01b031681608001516001600160a01b0316148061053857506033546001600160a01b031661052d6111c4565b6001600160a01b0316145b61057b5760405162461bcd60e51b81526020600482015260146024820152732737ba1037bbb732b91037b91039b2b63632b91760611b6044820152606401610489565b6080810180516001600160a01b039081166000908152609c602052604080822093519092168152908120549091906105b5906001906119c9565b815481106105c5576105c5611a53565b60009182526020808320909101546080850180516001600160a01b039081168552609c90935260408085209151909316845291909220549192509061060c906001906119c9565b8154811061061c5761061c611a53565b600091825260208083209091015460808501516001600160a01b03168352609c909152604090912060a08401518154811061065957610659611a53565b600091825260208083209091019290925560a0840151838252609b8352604080832060059081019290925586835280832083815560018101849055600281018490556003810180546001600160a01b0319908116909155600482018054909116905590910182905560808501516001600160a01b03168252609c909252208054806106e6576106e6611a3d565b60019003818190600052602060002001600090559055505050565b6107096111c4565b6001600160a01b03166107246033546001600160a01b031690565b6001600160a01b03161461074a5760405162461bcd60e51b815260040161048990611931565b816001600160a01b03166323b872dd306107626111c4565b6040516001600160e01b031960e085901b1681526001600160a01b0392831660048201529116602482015260448101849052606401600060405180830381600087803b1580156107b157600080fd5b505af11580156107c5573d6000803e3d6000fd5b505050505050565b6107d56111c4565b6001600160a01b03166107f06033546001600160a01b031690565b6001600160a01b0316146108165760405162461bcd60e51b815260040161048990611931565b61082060006111d3565b565b61082d61019b6111c4565b61086f5760405162461bcd60e51b815260206004820152601360248201527221b0b63632b91034b9903737ba1030b236b4b760691b6044820152606401610489565b6001600160a01b0383166000908152609a602052604090205460ff166108cb5760405162461bcd60e51b81526020600482015260116024820152702737ba1030b63637bbb2b2103a37b5b2b760791b6044820152606401610489565b60995460405163d0def52160e01b81526000916001600160a01b03169063d0def521906108fe903090899060040161182d565b602060405180830381600087803b15801561091857600080fd5b505af115801561092c573d6000803e3d6000fd5b505050506040513d601f19601f8201168201806040525081019061095091906117cc565b9050609c600061095e6111c4565b6001600160a01b031681526020808201929092526040908101600090812080546001810182559082529083902001839055805160c0810182528481524292810183905291908201906109b19086906119b1565b8152602001856001600160a01b031681526020016109cd6111c4565b6001600160a01b031681526020016001609c60006109e96111c4565b6001600160a01b03168152602081019190915260400160002054610a0d91906119c9565b90526000918252609b60209081526040928390208251815590820151600182015591810151600283015560608101516003830180546001600160a01b039283166001600160a01b031991821617909155608083015160048501805491909316911617905560a0015160059091015550505050565b600054610100900460ff16610a9c5760005460ff1615610aa0565b303b155b610b035760405162461bcd60e51b815260206004820152602e60248201527f496e697469616c697a61626c653a20636f6e747261637420697320616c72656160448201526d191e481a5b9a5d1a585b1a5e995960921b6064820152608401610489565b600054610100900460ff16158015610b25576000805461ffff19166101011790555b610b2d611225565b610b3561124c565b609980546001600160a01b0319166001600160a01b0384161790558015610b62576000805461ff00191690555b5050565b6001600160a01b0381166000908152609c6020908152604091829020805483518184028101840190945280845260609392830182828015610bc657602002820191906000526020600020905b815481526020019060010190808311610bb2575b50505050509050919050565b6000818152609b6020908152604091829020825160c08101845281548152600182015492810183905260028201549381019390935260038101546001600160a01b03908116606085015260048201541660808401526005015460a0830152421015610c7f5760405162461bcd60e51b815260206004820152601960248201527f53616c6520686173206e6f742073746172746564207965742e000000000000006044820152606401610489565b4281604001511015610cd35760405162461bcd60e51b815260206004820152601760248201527f53616c652068617320616c726561647920656e6465642e0000000000000000006044820152606401610489565b610cfb610cde6111c4565b6080830151835160608501516001600160a01b031692919061127b565b6099546001600160a01b03166342842e0e30610d156111c4565b6040516001600160e01b031960e085901b1681526001600160a01b0392831660048201529116602482015260448101859052606401600060405180830381600087803b158015610d6457600080fd5b505af1158015610d78573d6000803e3d6000fd5b5050506080820180516001600160a01b039081166000908152609c602052604080822093519092168152908120549092506105b5906001906119c9565b6001600160a01b0381166000908152609c60209081526040808320805482518185028101850190935280835260609493830182828015610e1457602002820191906000526020600020905b815481526020019060010190808311610e00575b50505050509050805167ffffffffffffffff811115610e3557610e35611a69565b604051908082528060200260200182016040528015610eb157816020015b610e9e6040518060c0016040528060008152602001600081526020016000815260200160006001600160a01b0316815260200160006001600160a01b03168152602001600081525090565b815260200190600190039081610e535790505b50915060005b8151811015610f7257609b6000838381518110610ed657610ed6611a53565b6020908102919091018101518252818101929092526040908101600020815160c0810183528154815260018201549381019390935260028101549183019190915260038101546001600160a01b03908116606084015260048201541660808301526005015460a08201528351849083908110610f5457610f54611a53565b60200260200101819052508080610f6a90611a0c565b915050610eb7565b5050919050565b610f816111c4565b6001600160a01b0316610f9c6033546001600160a01b031690565b6001600160a01b031614610fc25760405162461bcd60e51b815260040161048990611931565b6001600160a01b0381166110275760405162461bcd60e51b815260206004820152602660248201527f4f776e61626c653a206e6577206f776e657220697320746865207a65726f206160448201526564647265737360d01b6064820152608401610489565b611030816111d3565b50565b61103b6111c4565b6001600160a01b03166110566033546001600160a01b031690565b6001600160a01b03161461107c5760405162461bcd60e51b815260040161048990611931565b816001600160a01b031663a9059cbb6110936111c4565b6040516001600160e01b031960e084901b1681526001600160a01b03909116600482015260248101849052604401602060405180830381600087803b1580156110db57600080fd5b505af11580156110ef573d6000803e3d6000fd5b505050506040513d601f19601f820116820180604052508101906111139190611725565b505050565b6111206111c4565b6001600160a01b031661113b6033546001600160a01b031690565b6001600160a01b0316146111615760405162461bcd60e51b815260040161048990611931565b6001600160a01b038216600081815260666020908152604091829020805460ff19168515159081179091558251938452908301527fe529461c8529abc0e0fe7c5ee361f74fe22e0b7574df1fc0b7558a282091fb78910160405180910390a15050565b60006111ce6112db565b905090565b603380546001600160a01b038381166001600160a01b0319831681179093556040519116919082907f8be0079c531659141344cd1fd0a4f28419497f9722a3daafe3b4186f6b6457e090600090a35050565b600054610100900460ff166108205760405162461bcd60e51b815260040161048990611966565b600054610100900460ff166112735760405162461bcd60e51b815260040161048990611966565b61082061130f565b604080516001600160a01b0385811660248301528416604482015260648082018490528251808303909101815260849091019091526020810180516001600160e01b03166323b872dd60e01b1790526112d5908590611346565b50505050565b6000601836108015906112f857506065546001600160a01b031633145b1561130a575060131936013560601c90565b503390565b600054610100900460ff166113365760405162461bcd60e51b815260040161048990611966565b6108206113416111c4565b6111d3565b600061139b826040518060400160405280602081526020017f5361666545524332303a206c6f772d6c6576656c2063616c6c206661696c6564815250856001600160a01b03166114189092919063ffffffff16565b80519091501561111357808060200190518101906113b99190611725565b6111135760405162461bcd60e51b815260206004820152602a60248201527f5361666545524332303a204552433230206f7065726174696f6e20646964206e6044820152691bdd081cdd58d8d9595960b21b6064820152608401610489565b60606114278484600085611431565b90505b9392505050565b6060824710156114925760405162461bcd60e51b815260206004820152602660248201527f416464726573733a20696e73756666696369656e742062616c616e636520666f6044820152651c8818d85b1b60d21b6064820152608401610489565b6001600160a01b0385163b6114e95760405162461bcd60e51b815260206004820152601d60248201527f416464726573733a2063616c6c20746f206e6f6e2d636f6e74726163740000006044820152606401610489565b600080866001600160a01b031685876040516115059190611811565b60006040518083038185875af1925050503d8060008114611542576040519150601f19603f3d011682016040523d82523d6000602084013e611547565b606091505b5091509150611557828286611562565b979650505050505050565b6060831561157157508161142a565b8251156115815782518084602001fd5b8160405162461bcd60e51b8152600401610489919061191e565b600067ffffffffffffffff808411156115b6576115b6611a69565b604051601f8501601f19908116603f011681019082821181831017156115de576115de611a69565b816040528093508581528686860111156115f757600080fd5b858560208301376000602087830101525050509392505050565b80356001600160a01b038116811461162857600080fd5b919050565b60006020828403121561163f57600080fd5b61142a82611611565b6000806000806080858703121561165e57600080fd5b61166785611611565b935061167560208601611611565b925060408501359150606085013567ffffffffffffffff81111561169857600080fd5b8501601f810187136116a957600080fd5b6116b88782356020840161159b565b91505092959194509250565b600080604083850312156116d757600080fd5b6116e083611611565b915060208301356116f081611a7f565b809150509250929050565b6000806040838503121561170e57600080fd5b61171783611611565b946020939093013593505050565b60006020828403121561173757600080fd5b815161142a81611a7f565b6000806000806080858703121561175857600080fd5b843567ffffffffffffffff81111561176f57600080fd5b8501601f8101871361178057600080fd5b61178f8782356020840161159b565b94505061179e60208601611611565b93969395505050506040820135916060013590565b6000602082840312156117c557600080fd5b5035919050565b6000602082840312156117de57600080fd5b5051919050565b600081518084526117fd8160208601602086016119e0565b601f01601f19169290920160200192915050565b600082516118238184602087016119e0565b9190910192915050565b6001600160a01b0383168152604060208201819052600090611427908301846117e5565b602080825282518282018190526000919060409081850190868401855b828110156118cd57815180518552868101518786015285810151868601526060808201516001600160a01b03908116918701919091526080808301519091169086015260a0908101519085015260c0909301929085019060010161186e565b5091979650505050505050565b6020808252825182820181905260009190848201906040850190845b81811015611912578351835292840192918401916001016118f6565b50909695505050505050565b60208152600061142a60208301846117e5565b6020808252818101527f4f776e61626c653a2063616c6c6572206973206e6f7420746865206f776e6572604082015260600190565b6020808252602b908201527f496e697469616c697a61626c653a20636f6e7472616374206973206e6f74206960408201526a6e697469616c697a696e6760a81b606082015260800190565b600082198211156119c4576119c4611a27565b500190565b6000828210156119db576119db611a27565b500390565b60005b838110156119fb5781810151838201526020016119e3565b838111156112d55750506000910152565b6000600019821415611a2057611a20611a27565b5060010190565b634e487b7160e01b600052601160045260246000fd5b634e487b7160e01b600052603160045260246000fd5b634e487b7160e01b600052603260045260246000fd5b634e487b7160e01b600052604160045260246000fd5b801515811461103057600080fdfea2646970667358221220d8ed36f4d9545115bb1829d3ed76cc0aaf450e0419be49816a077fae94092f6b64736f6c63430008060033",
  "devdoc": {
    "kind": "dev",
    "methods": {
      "onERC721Received(address,address,uint256,bytes)": {
        "details": "See {IERC721Receiver-onERC721Received}. Always returns `IERC721Receiver.onERC721Received.selector`."
      },
      "owner()": {
        "details": "Returns the address of the current owner."
      },
      "renounceOwnership()": {
        "details": "Leaves the contract without owner. It will not be possible to call `onlyOwner` functions anymore. Can only be called by the current owner. NOTE: Renouncing ownership will leave the contract without an owner, thereby removing any functionality that is only available to the owner."
      },
      "transferOwnership(address)": {
        "details": "Transfers ownership of the contract to a new account (`newOwner`). Can only be called by the current owner."
      }
    },
    "version": 1
  },
  "userdoc": {
    "kind": "user",
    "methods": {},
    "version": 1
  },
  "storageLayout": {
    "storage": [
      {
        "astId": 130,
        "contract": "src/PrimarySale.sol:PrimarySale",
        "label": "_initialized",
        "offset": 0,
        "slot": "0",
        "type": "t_bool"
      },
      {
        "astId": 133,
        "contract": "src/PrimarySale.sol:PrimarySale",
        "label": "_initializing",
        "offset": 1,
        "slot": "0",
        "type": "t_bool"
      },
      {
        "astId": 2892,
        "contract": "src/PrimarySale.sol:PrimarySale",
        "label": "__gap",
        "offset": 0,
        "slot": "1",
        "type": "t_array(t_uint256)50_storage"
      },
      {
        "astId": 10,
        "contract": "src/PrimarySale.sol:PrimarySale",
        "label": "_owner",
        "offset": 0,
        "slot": "51",
        "type": "t_address"
      },
      {
        "astId": 122,
        "contract": "src/PrimarySale.sol:PrimarySale",
        "label": "__gap",
        "offset": 0,
        "slot": "52",
        "type": "t_array(t_uint256)49_storage"
      },
      {
        "astId": 13718,
        "contract": "src/PrimarySale.sol:PrimarySale",
        "label": "trustedForwarder",
        "offset": 0,
        "slot": "101",
        "type": "t_address"
      },
      {
        "astId": 13494,
        "contract": "src/PrimarySale.sol:PrimarySale",
        "label": "_admins",
        "offset": 0,
        "slot": "102",
        "type": "t_mapping(t_address,t_bool)"
      },
      {
        "astId": 2607,
        "contract": "src/PrimarySale.sol:PrimarySale",
        "label": "__gap",
        "offset": 0,
        "slot": "103",
        "type": "t_array(t_uint256)50_storage"
      },
      {
        "astId": 14147,
        "contract": "src/PrimarySale.sol:PrimarySale",
        "label": "nft721",
        "offset": 0,
        "slot": "153",
        "type": "t_contract(IBeMetaPlace)15411"
      },
      {
        "astId": 14151,
        "contract": "src/PrimarySale.sol:PrimarySale",
        "label": "allowedERC20Tokens",
        "offset": 0,
        "slot": "154",
        "type": "t_mapping(t_address,t_bool)"
      },
      {
        "astId": 14156,
        "contract": "src/PrimarySale.sol:PrimarySale",
        "label": "sales",
        "offset": 0,
        "slot": "155",
        "type": "t_mapping(t_uint256,t_struct(Sale)14174_storage)"
      },
      {
        "astId": 14161,
        "contract": "src/PrimarySale.sol:PrimarySale",
        "label": "listings",
        "offset": 0,
        "slot": "156",
        "type": "t_mapping(t_address,t_array(t_uint256)dyn_storage)"
      },
      {
        "astId": 14587,
        "contract": "src/PrimarySale.sol:PrimarySale",
        "label": "__gap",
        "offset": 0,
        "slot": "157",
        "type": "t_array(t_uint256)50_storage"
      }
    ],
    "types": {
      "t_address": {
        "encoding": "inplace",
        "label": "address",
        "numberOfBytes": "20"
      },
      "t_array(t_uint256)49_storage": {
        "base": "t_uint256",
        "encoding": "inplace",
        "label": "uint256[49]",
        "numberOfBytes": "1568"
      },
      "t_array(t_uint256)50_storage": {
        "base": "t_uint256",
        "encoding": "inplace",
        "label": "uint256[50]",
        "numberOfBytes": "1600"
      },
      "t_array(t_uint256)dyn_storage": {
        "base": "t_uint256",
        "encoding": "dynamic_array",
        "label": "uint256[]",
        "numberOfBytes": "32"
      },
      "t_bool": {
        "encoding": "inplace",
        "label": "bool",
        "numberOfBytes": "1"
      },
      "t_contract(IBeMetaPlace)15411": {
        "encoding": "inplace",
        "label": "contract IBeMetaPlace",
        "numberOfBytes": "20"
      },
      "t_mapping(t_address,t_array(t_uint256)dyn_storage)": {
        "encoding": "mapping",
        "key": "t_address",
        "label": "mapping(address => uint256[])",
        "numberOfBytes": "32",
        "value": "t_array(t_uint256)dyn_storage"
      },
      "t_mapping(t_address,t_bool)": {
        "encoding": "mapping",
        "key": "t_address",
        "label": "mapping(address => bool)",
        "numberOfBytes": "32",
        "value": "t_bool"
      },
      "t_mapping(t_uint256,t_struct(Sale)14174_storage)": {
        "encoding": "mapping",
        "key": "t_uint256",
        "label": "mapping(uint256 => struct PrimarySale.Sale)",
        "numberOfBytes": "32",
        "value": "t_struct(Sale)14174_storage"
      },
      "t_struct(Sale)14174_storage": {
        "encoding": "inplace",
        "label": "struct PrimarySale.Sale",
        "members": [
          {
            "astId": 14163,
            "contract": "src/PrimarySale.sol:PrimarySale",
            "label": "price",
            "offset": 0,
            "slot": "0",
            "type": "t_uint256"
          },
          {
            "astId": 14165,
            "contract": "src/PrimarySale.sol:PrimarySale",
            "label": "startAt",
            "offset": 0,
            "slot": "1",
            "type": "t_uint256"
          },
          {
            "astId": 14167,
            "contract": "src/PrimarySale.sol:PrimarySale",
            "label": "endAt",
            "offset": 0,
            "slot": "2",
            "type": "t_uint256"
          },
          {
            "astId": 14169,
            "contract": "src/PrimarySale.sol:PrimarySale",
            "label": "tokenAddress",
            "offset": 0,
            "slot": "3",
            "type": "t_address"
          },
          {
            "astId": 14171,
            "contract": "src/PrimarySale.sol:PrimarySale",
            "label": "seller",
            "offset": 0,
            "slot": "4",
            "type": "t_address"
          },
          {
            "astId": 14173,
            "contract": "src/PrimarySale.sol:PrimarySale",
            "label": "listingIndex",
            "offset": 0,
            "slot": "5",
            "type": "t_uint256"
          }
        ],
        "numberOfBytes": "192"
      },
      "t_uint256": {
        "encoding": "inplace",
        "label": "uint256",
        "numberOfBytes": "32"
      }
    }
  }
}