{
  "address": "0x071880Da38730500E7F4CDe3FA15c4715Bb5223e",
  "abi": [
    {
      "anonymous": false,
      "inputs": [
        {
          "indexed": false,
          "internalType": "address",
          "name": "admin",
          "type": "address"
        },
        {
          "indexed": false,
          "internalType": "bool",
          "name": "enabled",
          "type": "bool"
        }
      ],
      "name": "AdminAccessSet",
      "type": "event"
    },
    {
      "anonymous": false,
      "inputs": [
        {
          "indexed": true,
          "internalType": "address",
          "name": "seller",
          "type": "address"
        },
        {
          "indexed": false,
          "internalType": "uint256",
          "name": "tokenId",
          "type": "uint256"
        }
      ],
      "name": "Cancelled",
      "type": "event"
    },
    {
      "anonymous": false,
      "inputs": [
        {
          "indexed": true,
          "internalType": "address",
          "name": "previousOwner",
          "type": "address"
        },
        {
          "indexed": true,
          "internalType": "address",
          "name": "newOwner",
          "type": "address"
        }
      ],
      "name": "OwnershipTransferred",
      "type": "event"
    },
    {
      "anonymous": false,
      "inputs": [
        {
          "indexed": true,
          "internalType": "address",
          "name": "seller",
          "type": "address"
        },
        {
          "indexed": true,
          "internalType": "address",
          "name": "nftAddress",
          "type": "address"
        },
        {
          "indexed": true,
          "internalType": "address",
          "name": "currency",
          "type": "address"
        },
        {
          "indexed": false,
          "internalType": "uint256",
          "name": "price",
          "type": "uint256"
        },
        {
          "indexed": false,
          "internalType": "uint256",
          "name": "startTime",
          "type": "uint256"
        },
        {
          "indexed": false,
          "internalType": "uint256",
          "name": "endTime",
          "type": "uint256"
        },
        {
          "indexed": false,
          "internalType": "uint256",
          "name": "tokenId",
          "type": "uint256"
        },
        {
          "indexed": false,
          "internalType": "bool",
          "name": "isActive",
          "type": "bool"
        }
      ],
      "name": "Sale",
      "type": "event"
    },
    {
      "anonymous": false,
      "inputs": [
        {
          "indexed": true,
          "internalType": "address",
          "name": "currencyAddress",
          "type": "address"
        },
        {
          "indexed": false,
          "internalType": "bool",
          "name": "isAllowed",
          "type": "bool"
        }
      ],
      "name": "SetCurrencies",
      "type": "event"
    },
    {
      "anonymous": false,
      "inputs": [
        {
          "indexed": true,
          "internalType": "address",
          "name": "nftAddress",
          "type": "address"
        },
        {
          "indexed": false,
          "internalType": "bool",
          "name": "isAllowed",
          "type": "bool"
        }
      ],
      "name": "SetNFT",
      "type": "event"
    },
    {
      "anonymous": false,
      "inputs": [
        {
          "indexed": true,
          "internalType": "address",
          "name": "seller",
          "type": "address"
        },
        {
          "indexed": false,
          "internalType": "uint256",
          "name": "tokenId",
          "type": "uint256"
        }
      ],
      "name": "Sold",
      "type": "event"
    },
    {
      "inputs": [
        {
          "internalType": "address",
          "name": "",
          "type": "address"
        }
      ],
      "name": "allowedCurrencies",
      "outputs": [
        {
          "internalType": "bool",
          "name": "",
          "type": "bool"
        }
      ],
      "stateMutability": "view",
      "type": "function"
    },
    {
      "inputs": [
        {
          "internalType": "address",
          "name": "",
          "type": "address"
        }
      ],
      "name": "allowedNFTAddresses",
      "outputs": [
        {
          "internalType": "bool",
          "name": "",
          "type": "bool"
        }
      ],
      "stateMutability": "view",
      "type": "function"
    },
    {
      "inputs": [
        {
          "internalType": "address",
          "name": "nftAddress",
          "type": "address"
        },
        {
          "internalType": "uint256",
          "name": "tokenId",
          "type": "uint256"
        }
      ],
      "name": "buy",
      "outputs": [],
      "stateMutability": "nonpayable",
      "type": "function"
    },
    {
      "inputs": [
        {
          "internalType": "address",
          "name": "nftAddress",
          "type": "address"
        },
        {
          "internalType": "uint256",
          "name": "_tokenId",
          "type": "uint256"
        }
      ],
      "name": "cancel",
      "outputs": [],
      "stateMutability": "nonpayable",
      "type": "function"
    },
    {
      "inputs": [
        {
          "internalType": "address",
          "name": "nftAddress",
          "type": "address"
        },
        {
          "internalType": "address",
          "name": "currency",
          "type": "address"
        },
        {
          "internalType": "string",
          "name": "tokenURI_",
          "type": "string"
        },
        {
          "internalType": "uint256",
          "name": "amount",
          "type": "uint256"
        },
        {
          "internalType": "uint256",
          "name": "startTime",
          "type": "uint256"
        },
        {
          "internalType": "uint256",
          "name": "endTime",
          "type": "uint256"
        }
      ],
      "name": "create",
      "outputs": [],
      "stateMutability": "nonpayable",
      "type": "function"
    },
    {
      "inputs": [
        {
          "internalType": "bytes",
          "name": "b",
          "type": "bytes"
        }
      ],
      "name": "getData",
      "outputs": [
        {
          "internalType": "address",
          "name": "nftAddress",
          "type": "address"
        },
        {
          "internalType": "uint256",
          "name": "tokenId",
          "type": "uint256"
        }
      ],
      "stateMutability": "pure",
      "type": "function"
    },
    {
      "inputs": [
        {
          "internalType": "address",
          "name": "nftAddress",
          "type": "address"
        },
        {
          "internalType": "uint256",
          "name": "tokenId",
          "type": "uint256"
        }
      ],
      "name": "getIndex",
      "outputs": [
        {
          "internalType": "bytes",
          "name": "b",
          "type": "bytes"
        }
      ],
      "stateMutability": "pure",
      "type": "function"
    },
    {
      "inputs": [
        {
          "internalType": "address",
          "name": "seller",
          "type": "address"
        }
      ],
      "name": "getListings",
      "outputs": [
        {
          "components": [
            {
              "internalType": "address",
              "name": "seller",
              "type": "address"
            },
            {
              "internalType": "address",
              "name": "nftAddress",
              "type": "address"
            },
            {
              "internalType": "address",
              "name": "currency",
              "type": "address"
            },
            {
              "internalType": "uint256",
              "name": "price",
              "type": "uint256"
            },
            {
              "internalType": "uint256",
              "name": "startTime",
              "type": "uint256"
            },
            {
              "internalType": "uint256",
              "name": "endTime",
              "type": "uint256"
            },
            {
              "internalType": "uint256",
              "name": "tokenId",
              "type": "uint256"
            },
            {
              "internalType": "bool",
              "name": "isActive",
              "type": "bool"
            }
          ],
          "internalType": "struct SecondarySale.SaleData[]",
          "name": "listing",
          "type": "tuple[]"
        }
      ],
      "stateMutability": "view",
      "type": "function"
    },
    {
      "inputs": [],
      "name": "initialize",
      "outputs": [],
      "stateMutability": "nonpayable",
      "type": "function"
    },
    {
      "inputs": [
        {
          "internalType": "address",
          "name": "admin",
          "type": "address"
        }
      ],
      "name": "isAdmin",
      "outputs": [
        {
          "internalType": "bool",
          "name": "",
          "type": "bool"
        }
      ],
      "stateMutability": "view",
      "type": "function"
    },
    {
      "inputs": [
        {
          "internalType": "address",
          "name": "forwarder",
          "type": "address"
        }
      ],
      "name": "isTrustedForwarder",
      "outputs": [
        {
          "internalType": "bool",
          "name": "",
          "type": "bool"
        }
      ],
      "stateMutability": "view",
      "type": "function"
    },
    {
      "inputs": [
        {
          "internalType": "address",
          "name": "",
          "type": "address"
        },
        {
          "internalType": "bytes",
          "name": "",
          "type": "bytes"
        }
      ],
      "name": "listingIndices",
      "outputs": [
        {
          "internalType": "uint256",
          "name": "",
          "type": "uint256"
        }
      ],
      "stateMutability": "view",
      "type": "function"
    },
    {
      "inputs": [
        {
          "internalType": "address",
          "name": "",
          "type": "address"
        },
        {
          "internalType": "uint256",
          "name": "",
          "type": "uint256"
        }
      ],
      "name": "listings",
      "outputs": [
        {
          "internalType": "address",
          "name": "seller",
          "type": "address"
        },
        {
          "internalType": "address",
          "name": "nftAddress",
          "type": "address"
        },
        {
          "internalType": "address",
          "name": "currency",
          "type": "address"
        },
        {
          "internalType": "uint256",
          "name": "price",
          "type": "uint256"
        },
        {
          "internalType": "uint256",
          "name": "startTime",
          "type": "uint256"
        },
        {
          "internalType": "uint256",
          "name": "endTime",
          "type": "uint256"
        },
        {
          "internalType": "uint256",
          "name": "tokenId",
          "type": "uint256"
        },
        {
          "internalType": "bool",
          "name": "isActive",
          "type": "bool"
        }
      ],
      "stateMutability": "view",
      "type": "function"
    },
    {
      "inputs": [
        {
          "internalType": "address",
          "name": "",
          "type": "address"
        },
        {
          "internalType": "address",
          "name": "",
          "type": "address"
        },
        {
          "internalType": "uint256",
          "name": "",
          "type": "uint256"
        },
        {
          "internalType": "bytes",
          "name": "",
          "type": "bytes"
        }
      ],
      "name": "onERC721Received",
      "outputs": [
        {
          "internalType": "bytes4",
          "name": "",
          "type": "bytes4"
        }
      ],
      "stateMutability": "nonpayable",
      "type": "function"
    },
    {
      "inputs": [],
      "name": "owner",
      "outputs": [
        {
          "internalType": "address",
          "name": "",
          "type": "address"
        }
      ],
      "stateMutability": "view",
      "type": "function"
    },
    {
      "inputs": [],
      "name": "renounceOwnership",
      "outputs": [],
      "stateMutability": "nonpayable",
      "type": "function"
    },
    {
      "inputs": [
        {
          "internalType": "address",
          "name": "",
          "type": "address"
        },
        {
          "internalType": "bytes",
          "name": "",
          "type": "bytes"
        }
      ],
      "name": "sales",
      "outputs": [
        {
          "internalType": "address",
          "name": "seller",
          "type": "address"
        },
        {
          "internalType": "address",
          "name": "nftAddress",
          "type": "address"
        },
        {
          "internalType": "address",
          "name": "currency",
          "type": "address"
        },
        {
          "internalType": "uint256",
          "name": "price",
          "type": "uint256"
        },
        {
          "internalType": "uint256",
          "name": "startTime",
          "type": "uint256"
        },
        {
          "internalType": "uint256",
          "name": "endTime",
          "type": "uint256"
        },
        {
          "internalType": "uint256",
          "name": "tokenId",
          "type": "uint256"
        },
        {
          "internalType": "bool",
          "name": "isActive",
          "type": "bool"
        }
      ],
      "stateMutability": "view",
      "type": "function"
    },
    {
      "inputs": [
        {
          "internalType": "address",
          "name": "admin",
          "type": "address"
        },
        {
          "internalType": "bool",
          "name": "enabled",
          "type": "bool"
        }
      ],
      "name": "setAdminAccess",
      "outputs": [],
      "stateMutability": "nonpayable",
      "type": "function"
    },
    {
      "inputs": [
        {
          "internalType": "address",
          "name": "token",
          "type": "address"
        },
        {
          "internalType": "bool",
          "name": "enabled",
          "type": "bool"
        }
      ],
      "name": "setAllowedCurrency",
      "outputs": [],
      "stateMutability": "nonpayable",
      "type": "function"
    },
    {
      "inputs": [
        {
          "internalType": "address",
          "name": "token",
          "type": "address"
        },
        {
          "internalType": "bool",
          "name": "enabled",
          "type": "bool"
        }
      ],
      "name": "setAllowedNFTAddress",
      "outputs": [],
      "stateMutability": "nonpayable",
      "type": "function"
    },
    {
      "inputs": [
        {
          "internalType": "bytes",
          "name": "",
          "type": "bytes"
        }
      ],
      "name": "tokenSaleData",
      "outputs": [
        {
          "internalType": "address",
          "name": "seller",
          "type": "address"
        },
        {
          "internalType": "address",
          "name": "nftAddress",
          "type": "address"
        },
        {
          "internalType": "address",
          "name": "currency",
          "type": "address"
        },
        {
          "internalType": "uint256",
          "name": "price",
          "type": "uint256"
        },
        {
          "internalType": "uint256",
          "name": "startTime",
          "type": "uint256"
        },
        {
          "internalType": "uint256",
          "name": "endTime",
          "type": "uint256"
        },
        {
          "internalType": "uint256",
          "name": "tokenId",
          "type": "uint256"
        },
        {
          "internalType": "bool",
          "name": "isActive",
          "type": "bool"
        }
      ],
      "stateMutability": "view",
      "type": "function"
    },
    {
      "inputs": [
        {
          "internalType": "address",
          "name": "newOwner",
          "type": "address"
        }
      ],
      "name": "transferOwnership",
      "outputs": [],
      "stateMutability": "nonpayable",
      "type": "function"
    },
    {
      "inputs": [],
      "name": "trustedForwarder",
      "outputs": [
        {
          "internalType": "address",
          "name": "",
          "type": "address"
        }
      ],
      "stateMutability": "view",
      "type": "function"
    },
    {
      "inputs": [
        {
          "components": [
            {
              "internalType": "address",
              "name": "seller",
              "type": "address"
            },
            {
              "internalType": "address",
              "name": "nftAddress",
              "type": "address"
            },
            {
              "internalType": "address",
              "name": "currency",
              "type": "address"
            },
            {
              "internalType": "uint256",
              "name": "price",
              "type": "uint256"
            },
            {
              "internalType": "uint256",
              "name": "startTime",
              "type": "uint256"
            },
            {
              "internalType": "uint256",
              "name": "endTime",
              "type": "uint256"
            },
            {
              "internalType": "uint256",
              "name": "tokenId",
              "type": "uint256"
            },
            {
              "internalType": "bool",
              "name": "isActive",
              "type": "bool"
            }
          ],
          "internalType": "struct SecondarySale.SaleData",
          "name": "data",
          "type": "tuple"
        }
      ],
      "name": "updateListing",
      "outputs": [],
      "stateMutability": "nonpayable",
      "type": "function"
    }
  ],
  "transactionHash": "0xd229076d4fe736d04af06ec58250c257876f1147eb1f5ead34ceda2693ca3dd5",
  "args": [],
  "numDeployments": 1,
  "solcInputHash": "8e9a114e5a1d18dcebc2fcdeee0e8d54",
  "bytecode": "0x608060405234801561001057600080fd5b506129d4806100206000396000f3fe608060405234801561001057600080fd5b50600436106101575760003560e01c806386e306b5116100c3578063c5c7eeb11161007c578063c5c7eeb114610449578063cce7ec131461046c578063cde8cd6e1461047f578063e99ef83f1461049f578063f2fde38b146104e9578063f65a0b3e146104fc57600080fd5b806386e306b51461036f578063886ca0b2146103925780638da5cb5b146103a557806395c491ab146103b657806398590ef9146103c9578063a254faba146103dc57600080fd5b80633837979e116101155780633837979e14610281578063502b8f0014610294578063572b6c0514610312578063715018a6146103345780637da0a8771461033c5780638129fc1c1461036757600080fd5b806207df301461015c57806307134210146101c05780630ee70ebc146101d55780631431b23a146101f5578063150b7a021461022757806324d7806c1461025e575b600080fd5b61016f61016a36600461258a565b61050f565b604080516001600160a01b03998a168152978916602089015295909716948601949094526060850192909252608084015260a083015260c082015290151560e0820152610100015b60405180910390f35b6101d36101ce366004612610565b610581565b005b6101e86101e336600461258a565b610ab7565b6040516101b791906127e0565b6102086102033660046125d3565b610ae6565b604080516001600160a01b0390931683526020830191909152016101b7565b610245610235366004612495565b630a85bd0160e11b949350505050565b6040516001600160e01b031990911681526020016101b7565b61027161026c36600461239b565b610b07565b60405190151581526020016101b7565b6101d361028f366004612501565b610b41565b61016f6102a236600461253a565b60cd6020908152600092835260409092208151808301840180519281529084019290930191909120915280546001820154600283015460038401546004850154600586015460068701546007909701546001600160a01b0396871697958716969094169492939192909160ff1688565b61027161032036600461239b565b6065546001600160a01b0391821691161490565b6101d3610ba1565b60655461034f906001600160a01b031681565b6040516001600160a01b0390911681526020016101b7565b6101d3610bf6565b61027161037d36600461239b565b60cc6020526000908152604090205460ff1681565b6101d36103a0366004612501565b610cc7565b6033546001600160a01b031661034f565b6101d36103c4366004612403565b610d1f565b6101d36103d736600461258a565b6113e7565b61016f6103ea3660046125d3565b805160208183018101805160ce82529282019190930120915280546001820154600283015460038401546004850154600586015460068701546007909701546001600160a01b0396871697958716969094169492939192909160ff1688565b61027161045736600461239b565b60cb6020526000908152604090205460ff1681565b6101d361047a36600461258a565b6118b7565b61049261048d36600461239b565b611f2c565b6040516101b79190612743565b6104db6104ad36600461253a565b60d0602090815260009283526040909220815180830184018051928152908401929093019190912091525481565b6040519081526020016101b7565b6101d36104f736600461239b565b612001565b6101d361050a366004612501565b6120b8565b60cf602052816000526040600020818154811061052b57600080fd5b6000918252602090912060089091020180546001820154600283015460038401546004850154600586015460068701546007909701546001600160a01b0396871699509486169750929094169490939260ff1688565b610589612164565b6001600160a01b031681602001516001600160a01b0316636352211e8360c001516040518263ffffffff1660e01b81526004016105c891815260200190565b60206040518083038186803b1580156105e057600080fd5b505afa1580156105f4573d6000803e3d6000fd5b505050506040513d601f19601f8201168201806040525081019061061891906123b8565b6001600160a01b03161461067d5760405162461bcd60e51b815260206004820152602160248201527f4e6f7420616c6c6f77656420746f207570646174652e204e6f74206f776e65726044820152601760f91b60648201526084015b60405180910390fd5b80608001518160a001511180156106a35750608081015115806106a35750428160800151115b6106bf5760405162461bcd60e51b815260040161067490612858565b6020808201516001600160a01b0316600090815260cb909152604090205460ff166106fc5760405162461bcd60e51b8152600401610674906127f3565b6040808201516001600160a01b0316600090815260cc602052205460ff1661075d5760405162461bcd60e51b815260206004820152601460248201527310dd5c9c995b98de481b9bdd08185b1b1bddd95960621b6044820152606401610674565b600060d0600061076b612164565b6001600160a01b03166001600160a01b0316815260200190815260200160002061079d83602001518460c00151610ab7565b6040516107aa9190612703565b90815260200160405180910390205490508160cd60006107c8612164565b6001600160a01b03166001600160a01b031681526020019081526020016000206107fa84602001518560c00151610ab7565b6040516108079190612703565b9081526040805160209281900383019020835181546001600160a01b03199081166001600160a01b0392831617835585850151600184018054831691841691909117905592850151600283018054909416911617909155606083015160038201556080830151600482015560a0830151600582015560c080840151600683015560e0909301516007909101805460ff191691151591909117905583015190830151839160ce916108b79190610ab7565b6040516108c49190612703565b9081526040805160209281900383019020835181546001600160a01b03199081166001600160a01b0392831617835593850151600183018054861691831691909117905591840151600282018054909416921691909117909155606082015160038201556080820151600482015560a0820151600582015560c0820151600682015560e0909101516007909101805460ff19169115159190911790558160cf600061096d612164565b6001600160a01b03166001600160a01b03168152602001908152602001600020828154811061099e5761099e61294f565b600091825260209182902083516008929092020180546001600160a01b03199081166001600160a01b03938416178255848401516001830180548316918516919091179055604080860151600284018054909316908516179091556060808601516003840155608080870151600485015560a080880151600586015560c080890151600687015560e0988901516007909601805460ff191696151596909617909555898401518a8801518b518c8601518d8601518e860151998f01519c8f015189519283529b8201529687019790975293850198909852951515908301529483169483169391909216917ffdda05da5180528ce250778e2548675dee398b0f64e7fac47139933f9277082c910160405180910390a45050565b604080516001600160a01b03939093166020840152828101919091528051808303820181526060909201905290565b60008082806020019051810190610afd91906123d5565b9094909350915050565b6001600160a01b03811660009081526066602052604081205460ff1680610b3b57506033546001600160a01b038381169116145b92915050565b6001600160a01b038216600081815260cb6020908152604091829020805460ff191685151590811790915591519182527f91b502964ebf0138ddc3c919251db57ba027215620357f67833f9bb13151576a91015b60405180910390a25050565b610ba9612164565b6001600160a01b0316610bc46033546001600160a01b031690565b6001600160a01b031614610bea5760405162461bcd60e51b815260040161067490612823565b610bf46000612173565b565b600054610100900460ff16610c115760005460ff1615610c15565b303b155b610c785760405162461bcd60e51b815260206004820152602e60248201527f496e697469616c697a61626c653a20636f6e747261637420697320616c72656160448201526d191e481a5b9a5d1a585b1a5e995960921b6064820152608401610674565b600054610100900460ff16158015610c9a576000805461ffff19166101011790555b610ca26121c5565b610caa6121f4565b610cb261221b565b8015610cc4576000805461ff00191690555b50565b6001600160a01b038216600081815260cc6020908152604091829020805460ff191685151590811790915591519182527f8709550f5206bf7ae814f2348345d5fa33b92a5d32bc80443b54f521a480180d9101610b95565b818111610d3e5760405162461bcd60e51b815260040161067490612858565b42821180610d4a575081155b610d665760405162461bcd60e51b815260040161067490612858565b6001600160a01b038616600090815260cb602052604090205460ff16610d9e5760405162461bcd60e51b8152600401610674906127f3565b6001600160a01b038516600090815260cc602052604090205460ff16610dfd5760405162461bcd60e51b815260206004820152601460248201527310dd5c9c995b98de481b9bdd08185b1b1bddd95960621b6044820152606401610674565b604051630935e01b60e21b81523060048201526001600160a01b038716906324d7806c9060240160206040518083038186803b158015610e3c57600080fd5b505afa158015610e50573d6000803e3d6000fd5b505050506040513d601f19601f82011682018060405250810190610e7491906125b6565b610eb65760405162461bcd60e51b8152602060048201526013602482015272139bdd08185b1b1bddd959081d1bc81b5a5b9d606a1b6044820152606401610674565b856001600160a01b031663e985e9c5610ecd612164565b6040516001600160e01b031960e084901b1681526001600160a01b03909116600482015230602482015260440160206040518083038186803b158015610f1257600080fd5b505afa158015610f26573d6000803e3d6000fd5b505050506040513d601f19601f82011682018060405250810190610f4a91906125b6565b610f8b5760405162461bcd60e51b815260206004820152601260248201527114d95d08185c1c1c9bdd985b08199a5c9cdd60721b6044820152606401610674565b6000866001600160a01b031663d0def521610fa4612164565b876040518363ffffffff1660e01b8152600401610fc292919061271f565b602060405180830381600087803b158015610fdc57600080fd5b505af1158015610ff0573d6000803e3d6000fd5b505050506040513d601f19601f8201168201806040525081019061101491906126be565b9050600060405180610100016040528061102c612164565b6001600160a01b03168152602001896001600160a01b03168152602001886001600160a01b031681526020018681526020018560001461106c578561106e565b425b815260200184815260200183815260200160011515815250905060cf6000611094612164565b6001600160a01b03908116825260208083019390935260409182016000908120805460018181018355918352858320875160089092020180549185166001600160a01b03199283161781559587015186830180549186169183169190911790559386015160028601805491909416941693909317909155606084015160038401556080840151600484015560a0840151600584015560c0840151600684015560e08401516007909301805493151560ff199094169390931790925560cf8261115a612164565b6001600160a01b0316815260208101919091526040016000205461117e91906128e4565b90508060d0600061118d612164565b6001600160a01b03166001600160a01b031681526020019081526020016000206111b78b86610ab7565b6040516111c49190612703565b908152604051908190036020019020558160cd60006111e1612164565b6001600160a01b03166001600160a01b0316815260200190815260200160002061120b8b86610ab7565b6040516112189190612703565b9081526040805160209281900383019020835181546001600160a01b03199081166001600160a01b0392831617835593850151600183018054861691831691909117905591840151600282018054909416921691909117909155606082015160038201556080820151600482015560a0820151600582015560c0820151600682015560e0909101516007909101805460ff19169115159190911790558160ce6112c18b86610ab7565b6040516112ce9190612703565b9081526040805160209281900383019020835181546001600160a01b03199081166001600160a01b039283161783559385015160018301805486169183169190911790559184015160028201805490941690831617909255606083015160038301556080830151600483015560a0830151600583015560c0830151600683015560e0909201516007909101805460ff1916911515919091179055888116908a16611376612164565b6001600160a01b03167ffdda05da5180528ce250778e2548675dee398b0f64e7fac47139933f9277082c8989156113ad57896113af565b425b6040805192835260208301919091528101899052606081018890526001608082015260a00160405180910390a4505050505050505050565b6113f261026c612164565b6114345760405162461bcd60e51b815260206004820152601360248201527221b0b63632b91034b9903737ba1030b236b4b760691b6044820152606401610674565b60006114408383610ab7565b9050600060ce826040516114549190612703565b9081526040805191829003602090810183206101008401835280546001600160a01b03908116855260018201548116928501929092526002810154909116918301919091526003810154606083015260048101546080830152600581015460a0830152600681015460c08301526007015460ff16151560e082015290506114d9612164565b6001600160a01b031681600001516001600160a01b0316148061151657506033546001600160a01b031661150b612164565b6001600160a01b0316145b6115595760405162461bcd60e51b81526020600482015260146024820152732737ba1037bbb732b91037b91039b2b63632b91760611b6044820152606401610674565b80516001600160a01b0316600090815260d060205260408082209051611580908590612703565b90815260408051602092819003830190205484516001600160a01b03908116600090815260cf909452828420865190911684529190922054919250906115c8906001906128e4565b815481106115d8576115d861294f565b906000526020600020906008020160cf600084600001516001600160a01b03166001600160a01b0316815260200190815260200160002082815481106116205761162061294f565b60009182526020808320845460089093020180546001600160a01b03199081166001600160a01b03948516178255600180870154908301805483169186169190911790556002808701549083018054909216908516179055600380860154908201556004808601549082015560058086015490820155600680860154908201556007948501549401805460ff909516151560ff1990951694909417909355845116815260d090915260409081902090518291906116de908690612703565b90815260408051602092819003830181209390935584516001600160a01b0316600090815260cd909252902090611716908590612703565b90815260405190819003602001812080546001600160a01b0319908116825560018201805482169055600282018054909116905560006003820181905560048201819055600582018190556006820155600701805460ff1916905560ce9061177f908590612703565b908152604080516020928190038301902080546001600160a01b031990811682556001820180548216905560028201805490911690556000600382018190556004820181905560058201819055600682018190556007909101805460ff1916905584516001600160a01b0316815260cf909252902080548061180357611803612939565b60008281526020812060086000199093019283020180546001600160a01b031990811682556001820180548216905560028201805490911690556003810182905560048101829055600581018290556006810191909155600701805460ff19169055905581516040516001600160a01b0391909116907f36ea5cd5608625e789af0282eecdb4eae1cb7c1cf6d0ec3f9a84f35be850260b906118a89087815260200190565b60405180910390a25050505050565b6001600160a01b038216600090815260cb602052604090205460ff166118ef5760405162461bcd60e51b8152600401610674906127f3565b60006118fb8383610ab7565b9050600060ce8260405161190f9190612703565b9081526040805191829003602090810183206101008401835280546001600160a01b03908116855260018201548116928501929092526002810154909116918301919091526003810154606083015260048101546080830152600581015460a0830152600681015460c08301526007015460ff16151560e082018190529091506119d05760405162461bcd60e51b815260206004820152601260248201527153616c65206973206e6f742061637469766560701b6044820152606401610674565b428160800151111580156119ec575080608001518160a0015110155b611a2d5760405162461bcd60e51b815260206004820152601260248201527153616c65206973206e6f742061637469766560701b6044820152606401610674565b836001600160a01b03166342842e0e8260000151611a49612164565b6040516001600160e01b031960e085901b1681526001600160a01b0392831660048201529116602482015260448101869052606401600060405180830381600087803b158015611a9857600080fd5b505af1158015611aac573d6000803e3d6000fd5b5050505080604001516001600160a01b03166323b872dd611acb612164565b8351606085015160405160e085901b6001600160e01b03191681526001600160a01b0393841660048201529290911660248301526044820152606401602060405180830381600087803b158015611b2157600080fd5b505af1158015611b35573d6000803e3d6000fd5b505050506040513d601f19601f82011682018060405250810190611b5991906125b6565b5080516001600160a01b0316600090815260d060205260408082209051611b81908590612703565b90815260408051602092819003830190205484516001600160a01b03908116600090815260cf90945282842086519091168452919092205491925090611bc9906001906128e4565b81548110611bd957611bd961294f565b906000526020600020906008020160cf600084600001516001600160a01b03166001600160a01b031681526020019081526020016000208281548110611c2157611c2161294f565b60009182526020808320845460089093020180546001600160a01b03199081166001600160a01b03948516178255600180870154908301805483169186169190911790556002808701549083018054909216908516179055600380860154908201556004808601549082015560058086015490820155600680860154908201556007948501549401805460ff909516151560ff199095169490941790935584518116825260d0835260408083208651909216835260cf9093529190208054839291611d559184908110611cf657611cf661294f565b600091825260208083206001600890930201919091015487516001600160a01b03908116845260cf9092526040909220805491909216919086908110611d3e57611d3e61294f565b906000526020600020906008020160060154610ab7565b604051611d629190612703565b90815260408051602092819003830190209290925583516001600160a01b0316600090815260cf90915220805480611d9c57611d9c612939565b6000828152602080822060086000199094019384020180546001600160a01b0319908116825560018201805482169055600282018054909116905560038101839055600481018390556005810183905560068101839055600701805460ff191690559190925583516001600160a01b0316825260cd90526040908190209051611e26908590612703565b90815260405190819003602001812080546001600160a01b0319908116825560018201805482169055600282018054909116905560006003820181905560048201819055600582018190556006820155600701805460ff1916905560ce90611e8f908590612703565b90815260405190819003602001902080546001600160a01b0319908116825560018201805482169055600282018054909116905560006003820181905560048201819055600582018190556006820155600701805460ff19169055611ef2612164565b6001600160a01b03167fae92ab4b6f8f401ead768d3273e6bb937a13e39827d19c6376e8fd4512a05d9a856040516118a891815260200190565b6001600160a01b038116600090815260cf60209081526040808320805482518185028101850190935280835260609492939192909184015b82821015611ff657600084815260209081902060408051610100810182526008860290920180546001600160a01b0390811684526001808301548216858701526002830154909116928401929092526003810154606084015260048101546080840152600581015460a0840152600681015460c08401526007015460ff16151560e08301529083529092019101611f64565b505050509050919050565b612009612164565b6001600160a01b03166120246033546001600160a01b031690565b6001600160a01b03161461204a5760405162461bcd60e51b815260040161067490612823565b6001600160a01b0381166120af5760405162461bcd60e51b815260206004820152602660248201527f4f776e61626c653a206e6577206f776e657220697320746865207a65726f206160448201526564647265737360d01b6064820152608401610674565b610cc481612173565b6120c0612164565b6001600160a01b03166120db6033546001600160a01b031690565b6001600160a01b0316146121015760405162461bcd60e51b815260040161067490612823565b6001600160a01b038216600081815260666020908152604091829020805460ff19168515159081179091558251938452908301527fe529461c8529abc0e0fe7c5ee361f74fe22e0b7574df1fc0b7558a282091fb78910160405180910390a15050565b600061216e61224a565b905090565b603380546001600160a01b038381166001600160a01b0319831681179093556040519116919082907f8be0079c531659141344cd1fd0a4f28419497f9722a3daafe3b4186f6b6457e090600090a35050565b600054610100900460ff166121ec5760405162461bcd60e51b815260040161067490612899565b610bf461227e565b600054610100900460ff16610bf45760405162461bcd60e51b815260040161067490612899565b600054610100900460ff166122425760405162461bcd60e51b815260040161067490612899565b610bf46122b5565b60006018361080159061226757506065546001600160a01b031633145b15612279575060131936013560601c90565b503390565b600054610100900460ff166122a55760405162461bcd60e51b815260040161067490612899565b610bf46122b0612164565b612173565b600054610100900460ff166122dc5760405162461bcd60e51b815260040161067490612899565b6001609955565b600067ffffffffffffffff808411156122fe576122fe612965565b604051601f8501601f19908116603f0116810190828211818310171561232657612326612965565b8160405280935085815286868601111561233f57600080fd5b858560208301376000602087830101525050509392505050565b80356123648161297b565b919050565b803561236481612990565b600082601f83011261238557600080fd5b612394838335602085016122e3565b9392505050565b6000602082840312156123ad57600080fd5b81356123948161297b565b6000602082840312156123ca57600080fd5b81516123948161297b565b600080604083850312156123e857600080fd5b82516123f38161297b565b6020939093015192949293505050565b60008060008060008060c0878903121561241c57600080fd5b86356124278161297b565b955060208701356124378161297b565b9450604087013567ffffffffffffffff81111561245357600080fd5b8701601f8101891361246457600080fd5b612473898235602084016122e3565b945050606087013592506080870135915060a087013590509295509295509295565b600080600080608085870312156124ab57600080fd5b84356124b68161297b565b935060208501356124c68161297b565b925060408501359150606085013567ffffffffffffffff8111156124e957600080fd5b6124f587828801612374565b91505092959194509250565b6000806040838503121561251457600080fd5b823561251f8161297b565b9150602083013561252f81612990565b809150509250929050565b6000806040838503121561254d57600080fd5b82356125588161297b565b9150602083013567ffffffffffffffff81111561257457600080fd5b61258085828601612374565b9150509250929050565b6000806040838503121561259d57600080fd5b82356125a88161297b565b946020939093013593505050565b6000602082840312156125c857600080fd5b815161239481612990565b6000602082840312156125e557600080fd5b813567ffffffffffffffff8111156125fc57600080fd5b61260884828501612374565b949350505050565b600061010080838503121561262457600080fd5b6040519081019067ffffffffffffffff8211818310171561264757612647612965565b81604052833591506126588261297b565b81815261266760208501612359565b602082015261267860408501612359565b6040820152606084013560608201526080840135608082015260a084013560a082015260c084013560c08201526126b160e08501612369565b60e0820152949350505050565b6000602082840312156126d057600080fd5b5051919050565b600081518084526126ef816020860160208601612909565b601f01601f19169290920160200192915050565b60008251612715818460208701612909565b9190910192915050565b6001600160a01b0383168152604060208201819052600090612608908301846126d7565b602080825282518282018190526000919060409081850190868401855b828110156127d357815180516001600160a01b03908116865287820151811688870152868201511686860152606080820151908601526080808201519086015260a0808201519086015260c0808201519086015260e0908101511515908501526101009093019290850190600101612760565b5091979650505050505050565b60208152600061239460208301846126d7565b6020808252601690820152751391951059191c995cdcc81b9bdd08185b1b1bddd95960521b604082015260600190565b6020808252818101527f4f776e61626c653a2063616c6c6572206973206e6f7420746865206f776e6572604082015260600190565b60208082526021908201527f456e642074696d65206d7573742062652061667465722073746172742074696d6040820152606560f81b606082015260800190565b6020808252602b908201527f496e697469616c697a61626c653a20636f6e7472616374206973206e6f74206960408201526a6e697469616c697a696e6760a81b606082015260800190565b60008282101561290457634e487b7160e01b600052601160045260246000fd5b500390565b60005b8381101561292457818101518382015260200161290c565b83811115612933576000848401525b50505050565b634e487b7160e01b600052603160045260246000fd5b634e487b7160e01b600052603260045260246000fd5b634e487b7160e01b600052604160045260246000fd5b6001600160a01b0381168114610cc457600080fd5b8015158114610cc457600080fdfea2646970667358221220c5777be9a12cc098ec63d6303634894785d0ca49797fa900baad51ede938960a64736f6c63430008060033",
  "devdoc": {
    "kind": "dev",
    "methods": {
      "onERC721Received(address,address,uint256,bytes)": {
        "details": "See {IERC721Receiver-onERC721Received}. Always returns `IERC721Receiver.onERC721Received.selector`."
      },
      "owner()": {
        "details": "Returns the address of the current owner."
      },
      "renounceOwnership()": {
        "details": "Leaves the contract without owner. It will not be possible to call `onlyOwner` functions anymore. Can only be called by the current owner. NOTE: Renouncing ownership will leave the contract without an owner, thereby removing any functionality that is only available to the owner."
      },
      "transferOwnership(address)": {
        "details": "Transfers ownership of the contract to a new account (`newOwner`). Can only be called by the current owner."
      }
    },
    "version": 1
  },
  "userdoc": {
    "kind": "user",
    "methods": {},
    "version": 1
  },
  "storageLayout": {
    "storage": [
      {
        "astId": 130,
        "contract": "src/SecondarySale.sol:SecondarySale",
        "label": "_initialized",
        "offset": 0,
        "slot": "0",
        "type": "t_bool"
      },
      {
        "astId": 133,
        "contract": "src/SecondarySale.sol:SecondarySale",
        "label": "_initializing",
        "offset": 1,
        "slot": "0",
        "type": "t_bool"
      },
      {
        "astId": 2892,
        "contract": "src/SecondarySale.sol:SecondarySale",
        "label": "__gap",
        "offset": 0,
        "slot": "1",
        "type": "t_array(t_uint256)50_storage"
      },
      {
        "astId": 10,
        "contract": "src/SecondarySale.sol:SecondarySale",
        "label": "_owner",
        "offset": 0,
        "slot": "51",
        "type": "t_address"
      },
      {
        "astId": 122,
        "contract": "src/SecondarySale.sol:SecondarySale",
        "label": "__gap",
        "offset": 0,
        "slot": "52",
        "type": "t_array(t_uint256)49_storage"
      },
      {
        "astId": 13718,
        "contract": "src/SecondarySale.sol:SecondarySale",
        "label": "trustedForwarder",
        "offset": 0,
        "slot": "101",
        "type": "t_address"
      },
      {
        "astId": 13494,
        "contract": "src/SecondarySale.sol:SecondarySale",
        "label": "_admins",
        "offset": 0,
        "slot": "102",
        "type": "t_mapping(t_address,t_bool)"
      },
      {
        "astId": 2607,
        "contract": "src/SecondarySale.sol:SecondarySale",
        "label": "__gap",
        "offset": 0,
        "slot": "103",
        "type": "t_array(t_uint256)50_storage"
      },
      {
        "astId": 211,
        "contract": "src/SecondarySale.sol:SecondarySale",
        "label": "_status",
        "offset": 0,
        "slot": "153",
        "type": "t_uint256"
      },
      {
        "astId": 255,
        "contract": "src/SecondarySale.sol:SecondarySale",
        "label": "__gap",
        "offset": 0,
        "slot": "154",
        "type": "t_array(t_uint256)49_storage"
      },
      {
        "astId": 14613,
        "contract": "src/SecondarySale.sol:SecondarySale",
        "label": "allowedNFTAddresses",
        "offset": 0,
        "slot": "203",
        "type": "t_mapping(t_address,t_bool)"
      },
      {
        "astId": 14617,
        "contract": "src/SecondarySale.sol:SecondarySale",
        "label": "allowedCurrencies",
        "offset": 0,
        "slot": "204",
        "type": "t_mapping(t_address,t_bool)"
      },
      {
        "astId": 14624,
        "contract": "src/SecondarySale.sol:SecondarySale",
        "label": "sales",
        "offset": 0,
        "slot": "205",
        "type": "t_mapping(t_address,t_mapping(t_bytes_memory_ptr,t_struct(SaleData)14658_storage))"
      },
      {
        "astId": 14629,
        "contract": "src/SecondarySale.sol:SecondarySale",
        "label": "tokenSaleData",
        "offset": 0,
        "slot": "206",
        "type": "t_mapping(t_bytes_memory_ptr,t_struct(SaleData)14658_storage)"
      },
      {
        "astId": 14635,
        "contract": "src/SecondarySale.sol:SecondarySale",
        "label": "listings",
        "offset": 0,
        "slot": "207",
        "type": "t_mapping(t_address,t_array(t_struct(SaleData)14658_storage)dyn_storage)"
      },
      {
        "astId": 14641,
        "contract": "src/SecondarySale.sol:SecondarySale",
        "label": "listingIndices",
        "offset": 0,
        "slot": "208",
        "type": "t_mapping(t_address,t_mapping(t_bytes_memory_ptr,t_uint256))"
      }
    ],
    "types": {
      "t_address": {
        "encoding": "inplace",
        "label": "address",
        "numberOfBytes": "20"
      },
      "t_array(t_struct(SaleData)14658_storage)dyn_storage": {
        "base": "t_struct(SaleData)14658_storage",
        "encoding": "dynamic_array",
        "label": "struct SecondarySale.SaleData[]",
        "numberOfBytes": "32"
      },
      "t_array(t_uint256)49_storage": {
        "base": "t_uint256",
        "encoding": "inplace",
        "label": "uint256[49]",
        "numberOfBytes": "1568"
      },
      "t_array(t_uint256)50_storage": {
        "base": "t_uint256",
        "encoding": "inplace",
        "label": "uint256[50]",
        "numberOfBytes": "1600"
      },
      "t_bool": {
        "encoding": "inplace",
        "label": "bool",
        "numberOfBytes": "1"
      },
      "t_bytes_memory_ptr": {
        "encoding": "bytes",
        "label": "bytes",
        "numberOfBytes": "32"
      },
      "t_mapping(t_address,t_array(t_struct(SaleData)14658_storage)dyn_storage)": {
        "encoding": "mapping",
        "key": "t_address",
        "label": "mapping(address => struct SecondarySale.SaleData[])",
        "numberOfBytes": "32",
        "value": "t_array(t_struct(SaleData)14658_storage)dyn_storage"
      },
      "t_mapping(t_address,t_bool)": {
        "encoding": "mapping",
        "key": "t_address",
        "label": "mapping(address => bool)",
        "numberOfBytes": "32",
        "value": "t_bool"
      },
      "t_mapping(t_address,t_mapping(t_bytes_memory_ptr,t_struct(SaleData)14658_storage))": {
        "encoding": "mapping",
        "key": "t_address",
        "label": "mapping(address => mapping(bytes => struct SecondarySale.SaleData))",
        "numberOfBytes": "32",
        "value": "t_mapping(t_bytes_memory_ptr,t_struct(SaleData)14658_storage)"
      },
      "t_mapping(t_address,t_mapping(t_bytes_memory_ptr,t_uint256))": {
        "encoding": "mapping",
        "key": "t_address",
        "label": "mapping(address => mapping(bytes => uint256))",
        "numberOfBytes": "32",
        "value": "t_mapping(t_bytes_memory_ptr,t_uint256)"
      },
      "t_mapping(t_bytes_memory_ptr,t_struct(SaleData)14658_storage)": {
        "encoding": "mapping",
        "key": "t_bytes_memory_ptr",
        "label": "mapping(bytes => struct SecondarySale.SaleData)",
        "numberOfBytes": "32",
        "value": "t_struct(SaleData)14658_storage"
      },
      "t_mapping(t_bytes_memory_ptr,t_uint256)": {
        "encoding": "mapping",
        "key": "t_bytes_memory_ptr",
        "label": "mapping(bytes => uint256)",
        "numberOfBytes": "32",
        "value": "t_uint256"
      },
      "t_struct(SaleData)14658_storage": {
        "encoding": "inplace",
        "label": "struct SecondarySale.SaleData",
        "members": [
          {
            "astId": 14643,
            "contract": "src/SecondarySale.sol:SecondarySale",
            "label": "seller",
            "offset": 0,
            "slot": "0",
            "type": "t_address"
          },
          {
            "astId": 14645,
            "contract": "src/SecondarySale.sol:SecondarySale",
            "label": "nftAddress",
            "offset": 0,
            "slot": "1",
            "type": "t_address"
          },
          {
            "astId": 14647,
            "contract": "src/SecondarySale.sol:SecondarySale",
            "label": "currency",
            "offset": 0,
            "slot": "2",
            "type": "t_address"
          },
          {
            "astId": 14649,
            "contract": "src/SecondarySale.sol:SecondarySale",
            "label": "price",
            "offset": 0,
            "slot": "3",
            "type": "t_uint256"
          },
          {
            "astId": 14651,
            "contract": "src/SecondarySale.sol:SecondarySale",
            "label": "startTime",
            "offset": 0,
            "slot": "4",
            "type": "t_uint256"
          },
          {
            "astId": 14653,
            "contract": "src/SecondarySale.sol:SecondarySale",
            "label": "endTime",
            "offset": 0,
            "slot": "5",
            "type": "t_uint256"
          },
          {
            "astId": 14655,
            "contract": "src/SecondarySale.sol:SecondarySale",
            "label": "tokenId",
            "offset": 0,
            "slot": "6",
            "type": "t_uint256"
          },
          {
            "astId": 14657,
            "contract": "src/SecondarySale.sol:SecondarySale",
            "label": "isActive",
            "offset": 0,
            "slot": "7",
            "type": "t_bool"
          }
        ],
        "numberOfBytes": "256"
      },
      "t_uint256": {
        "encoding": "inplace",
        "label": "uint256",
        "numberOfBytes": "32"
      }
    }
  }
}